:020000040800F2
:1000000080080020350200081B220008C5200008D7
:1000100019220008D5050008372800080000000054
:10002000000000000000000000000000BD240008E7
:1000300095060008000000001D220008BF240008EB
:100040004F0200084F0200084F0200084F0200084C
:100050004F0200084F0200084F0200084F0200083C
:100060004F0200084F0200084F0200084F0200082C
:100070004F0200084F020008D9050008E5050008F6
:100080004F0200084F0200084F0200080000000065
:100090000000000000000000000000004F02000807
:1000A0004F0200084F0200084F0200084F020008EC
:1000B0004F0200084F020008552500084F020008B3
:1000C0004F0200084F0200084F0200084F020008CC
:1000D000212200084F0200084F0200080000000023
:1000E0004F0200084F0200084F0200080000000005
:1000F0000000000000000000000000004F020008A7
:10010000000000004F0200084F0200084F020008E4
:1001100000000000000000000000000000000000DF
:100120004F0200084F0200084F0200084F0200086B
:100130004F02000800000000000000000000000066
:100140000000000000000000000000004F02000856
:100150004F0200084F0200084F0200084F0200083B
:100160004F0200084F0200080000000000000000DD
:10017000000000000000000000000000000000007F
:10018000000000004F020008000000000000000016
:100190004F02000800F002F800F03CF80AA090E8D6
:1001A000000C82448344AAF10107DA4501D100F032
:1001B00031F8AFF2090EBAE80F0013F0010F18BFC3
:1001C000FB1A43F001031847A45A0000C45A000068
:1001D000103A24BF78C878C1FAD8520724BF30C873
:1001E00030C144BF04680C60704700000023002445
:1001F00000250026103A28BF78C1FBD8520728BF37
:1002000030C148BF0B6070471FB505F006F81FBD31
:1002100010B510BD00F014F91146FFF7F5FF03F01B
:10022000C7FE00F032F903B4FFF7F2FF03BC00F0A1
:1002300035F900000948804709480047FEE7FEE716
:10024000FEE7FEE7FEE7FEE7FEE7FEE7FEE7FEE786
:1002500004480549054A064B70470000452500083B
:100260009501000880020020800800208004002002
:100270008004002053EA020C00F069802DE9F04B65
:100280004FF00006002B1FBFB3FA83F503FA05F405
:1002900024FA05F65E4012BF1643B2FA82F502FA5E
:1002A00005F4C5F120051EBF22FA05FC44EA0C0442
:1002B000203556EA044C4FEA144418BF641C4FF032
:1002C00000084FF00009904271EB030C39D300296C
:1002D00019BFB1FA81F701FA07F6B0FA80F700FA10
:1002E00007F6C7F120071EBF20FA07FC46EA0C06F6
:1002F0002037B6FBF4FCA7EB0507103F07F01F0BF8
:10030000CBF120060CFA0BFB2CFA06F644BFB346E1
:100310000026202FA4BF5E464FF0000B5BEA060CC0
:1003200008BF4FF0010B19EB0B09ABFB027C48EB4C
:100330000608C01B06FB02CC0BFB03CC71EB0C01C7
:10034000C1E70B46024641464846BDE8F08B13B56F
:100350004FF000004FF00001AFF30080BDE81C40FB
:10036000704710B5203AC0F00B80B1E81850203A21
:10037000A0E81850B1E81850A0E81850BFF4F5AF45
:100380005FEA027C24BFB1E81850A0E8185044BFCF
:1003900018C918C0BDE810405FEA827C24BF51F83C
:1003A000043B40F8043B08BF7047D20728BF31F830
:1003B000023B48BF11F8012B28BF20F8023B48BF81
:1003C00000F8012B70474FF0000200B51346944629
:1003D0009646203922BFA0E80C50A0E80C50B1F19D
:1003E0002001BFF4F7AF090728BFA0E80C5048BFB1
:1003F0000CC05DF804EB890028BF40F8042B08BF4F
:10040000704748BF20F8022B11F0804F18BF00F84A
:10041000012B704770477047704710B500F008F81F
:10042000006810BD10B5044600F002F8046010BD6D
:10043000004870472002002000487047200200203A
:100440007546FFF7F9FFAE4605006946534620F0B2
:100450000700854618B020B5FFF7FAFEBDE820403A
:100460004FF000064FF000074FF000084FF0000B70
:1004700021F00701AC46ACE8C009ACE8C009ACE823
:10048000C009ACE8C0098D46704710B50446AFF30B
:1004900000802046BDE81040FFF7C5BE0149182086
:1004A000ABBEFEE726000200704700009FED221A57
:1004B0009FED222A20EE010AB5EE001A30EE010A65
:1004C000BDEEC01A11EE100AB5EE400AF1EE10FAB8
:1004D000B8BF013801EE100AB8EEC11A30EE410A79
:1004E00020EE020ABDEEC01A9FED152A11EE100A89
:1004F000002130EE021AB1EB502F45F268411CBFCB
:100500000020B0EE410AC0F6000101EE100A01EB36
:100510008001B8EE411A30EE410A91ED001A91EDDA
:10052000012AB7EE003A33EE403A23EE011A20EEEC
:10053000020A31EE000A704783F9223E00000044AF
:10054000000000C49FED201A9FED202A20EE010A32
:10055000BDEEC01A11EE100AB5EE400AF1EE10FA27
:10056000B8BF013801EE100AB8EEC11A30EE410AE8
:1005700020EE020ABDEEC01A9FED152A11EE100AF8
:10058000002130EE021AB1EB502F45F268411CBF3A
:100590000020B0EE410AC0F6000101EE100A01EBA6
:1005A0008001B8EE411A30EE410A91ED001A91ED4A
:1005B000012AB7EE003A33EE403A23EE011A20EE5C
:1005C000020A31EE000A704783F9223E000000441F
:1005D000000000C4FEE70000014800F071B8000010
:1005E00040010020014800F06BB80000A00100208D
:1005F00001681823CAB2103AB2FBF3F2054B6FF34D
:100600000901032A9B5CC36500D9091D8165084661
:10061000704700001E53000810B5014600208B698A
:100620008A6A4FF0C07453B1B3F5005F15D072B150
:10063000012A0CD0022A0AD0032A09D104E01AB1F7
:10064000012A06D0022A03D1C96AC90100D50120B6
:1006500010BDC96AA142FAD010BD002AF7D0012A04
:10066000F2D0022AF3D0032AF3D010BD30B50468CB
:10067000256825F480252560046863608368402B25
:10068000036803D099600068C26030BD9A6000685A
:10069000C16030BD704772B6FEE790F83510022990
:1006A00003D08021416501207047052180F8351075
:1006B0000068016821F0010101600020704700001E
:1006C0002DE9F84304464FF00009CDF80090634847
:1006D0004FF41651A56D0068B0FBF1F72E6894F841
:1006E0005C10082000FA01F131420FD021680A683D
:1006F00052070BD50A6822F004020A6094F85C10D5
:100700008840A860606D40F00100606594F85C105E
:100710004FF0010808FA01F0304208D02168496919
:10072000090604D5A860606D40F00200606594F889
:100730005C1004208840304208D02168096889078D
:1007400004D5A860606D40F00400606594F85C100A
:1007500010208840304218D021680968090714D554
:10076000A86020680168490304D50068000308D523
:10077000A16C07E00168C90503D4016821F00801F4
:100780000160216C09B12046884794F85C10202054
:100790008840304231D021680968C9062DD5A8604B
:1007A00094F8350005282068016806D0490347D52C
:1007B000006800031DD4616C1CE021F0160101608B
:1007C0002068416921F080014161206C08B9A06C6A
:1007D00020B12068016821F00801016094F85C10E4
:1007E0003F208840A86084F8358084F83490216DDB
:1007F0001FE0E16B09B120468847606D00282BD0CF
:10080000606DC00714D0052084F8350020680168A9
:1008100021F0010101600098401C0090B84203D80B
:1008200020680068C007F6D184F8358084F83490D9
:10083000E16C002910D001B02046BDE8F043084724
:100840000168C905D5D4016821F01001016084F860
:10085000358084F83490CCE7BDE8F8832000002090
:100860002DE9F041044600F0A5F906465CB10220EE
:1008700084F83500002584F834502068016821F0A0
:10088000010101600DE00120BDE8F08100F092F966
:10089000801B052805D920206065032084F83500D9
:1008A000F2E720680068C007F0D12268116820488C
:1008B0000140D4E901031843D4E903363343184314
:1008C00063691843A3691843E3691843236A18430B
:1008D0000843616A042903D1D4E90B13194308437F
:1008E000106020684069666A20F0070130460E43B8
:1008F000012704280CD1A06A0643E06A40B12046D3
:10090000FFF78AFE20B14020606584F83570BAE7B1
:10091000206846612046FFF76BFE94F85C203F217B
:1009200091408160656584F835700020ACE7000077
:100930003F8010F02DE9F0410446866D90F83400B8
:10094000002501280DD0012084F8340094F835707A
:100950000020012F07D084F8340002252846BDE886
:10096000F0810220FBE7022784F83570606520469D
:10097000FFF77CFE94F85C103F208840B060206850
:10098000016841F016010160206C20B12068016807
:1009900041F0080101602068016841F00101016037
:1009A000DCE7000070B5044600F004F90546601C61
:1009B00002D004480078044400F0FCF8401BA04238
:1009C000FAD370BD140000202DE9F84FDFF8B8A16C
:1009D0000022012403254FF00F090AF1040BAAF1AC
:1009E000040E00BF0B6804FA02F63340B34273D121
:1009F0000F7907F00307012F01D0022F16D1876866
:100A00004FEA420805FA08FC27EA0C07D1F80CC0A7
:100A10000CFA08FC4CEA070CC0F808C04768B7435A
:100A20000E79C6F3001696403E4346600E79F643B3
:100A3000B6070DD0C768560005FA06FC27EA0C0772
:100A4000D1F808C00CFA06FC4CEA070CC0F80CC040
:100A50000E7906F00306022E10D1D60800EB8608A8
:100A6000D8F8206057074FEAD76C09FA0CF7BE4355
:100A70000F6907FA0CF73743C8F8207006684FEA89
:100A8000420C05FA0CF7BE430F7907F0030707FA8B
:100A90000CF7374307604E6816F4403F6DD03B4E6D
:100AA000376847F480473760366822F0030706F45A
:100AB00080460096364E07EB060CDCF80868970770
:100AC0003F0F09FA07F826EA0806DFF8C880404514
:100AD00003D14FF000081EE04FE0DFF8BC80404536
:100AE00002D14FF0010816E0DFF8B080404502D196
:100AF0004FF002080FE0DFF8A880404502D14FF028
:100B0000030808E0DFF89C80404502D14FF004085C
:100B100001E04FF0070808FA07F848EA0608CCF8A1
:100B20000888DAF800605746D1F804C09E435FEAAF
:100B3000CC2C00D51E433E60DBF800605F46D1F848
:100B400004C09E435FEA8C2C00D51E433E60DEF855
:100B500000607746D1F804C09E435FEA8C3C00D524
:100B60001E433E60084F083F3E68D1F804C09E43D4
:100B70005FEACC3C00D51E433E60521C102AFFF4B5
:100B800031AFBDE8F88F0000083C01404438024016
:100B90000030014000000240000402400008024012
:100BA000000C0240001002400AB181617047090444
:100BB000FBE7000001488068704700001400002037
:100BC0000248816802781144816070471400002057
:100BD0000B4810B5016841F400710160016841F4EF
:100BE00080610160016841F480710160032000F0C0
:100BF0006FF80F2000F006F800F024F8002010BD78
:100C0000003C024070B50D4D04464FF47A712878CF
:100C1000B1FBF0F00A490968B1FBF0F000F0B4FF55
:100C200048B9102C07D200222146501E00F030F89F
:100C300000206C6070BD012070BD00001400002019
:100C4000200000200A4808B5016841F48041016095
:100C5000006800F4804000900548001F016841F0E2
:100C600080510160006800F08050009008BD0000D5
:100C700044380240002809DB00F01F0201219140A6
:100C80004009800000F1E020C0F80011704700002A
:100C9000F0B40E4B1B680C46C3F30223C3F10705E7
:100CA000042D00D90425191D072901D2002300E0D5
:100CB000DB1E012606FA05F1491E214099409E409F
:100CC000761E16403143F0BC01F0CEBD0CED00E0C5
:100CD000064900F0070208684FF6FF03184040EA93
:100CE0000220034A10430860704700000CED00E04A
:100CF0000000FA052DE9F0470E46050065D0DFF843
:100D00001481D8F80000F7B200F00700B04207D213
:100D100088F80070D8F8000000F00700B04254D105
:100D200028683D4C810712D5400703D5206840F460
:100D3000E05020602878000703D5206840F4604028
:100D400020602068A96820F0F0000843206028781F
:100D5000C0072DD0304968680839012812D0022810
:100D600013D0032811D00968890700292DDA2168DA
:100D700021F0030101432160FFF71CFF814641F28E
:100D8000883A0EE009688903EFE709688901ECE712
:100D9000FFF710FFA0EB0901514502D90320BDE880
:100DA000F0872068696800F00C00B0EB810FEFD18C
:100DB000D8F80010404601F00701B14207D907708A
:100DC000006800F00700B04201D00120E7E7287872
:100DD000400705D52068E96820F4E050084320600A
:100DE0002878000706D52068296920F4604040EA89
:100DF000C100206000F038F82168084AC1F30311EF
:100E0000515CC8400649086006480068FFF7FAFED2
:100E10000020C4E7003C0240083802402653000886
:100E200020000020180000200448054900680968D7
:100E3000044AC1F38221515CC84070472000002061
:100E4000083802403653000804480549006809681C
:100E5000044AC1F34231515CC84070472000002071
:100E60000838024036530008154810B5006810F0E5
:100E70000C02144813D01449042A0FD0082A0ED1AA
:100E80000F4C241F2268236802F03F025B0207D543
:100E90002068C0F38810A0FB010106E0084610BDE1
:100EA0002168C1F38811A1FB00010023FFF7E2F9DB
:100EB0002168C1F30141491C4900B0FBF1F010BDAC
:100EC000083802400024F40040787D012DE9F84FF5
:100ED00004006ED02078DFF84C93C007A9F1040518
:100EE0004AD009F104000168C1F38101012908D049
:100EF0000068C0F3810002280AD1D9F8000040023E
:100F000006D52868800337D560680028E1D033E033
:100F10006068B0F5803F10D0B0F5A02F286810D0E1
:100F200020F480302860286820F4802028606068E1
:100F3000A8B1FFF73FFE06460DE0286840F4803078
:100F4000F4E740F480202860F7E700BFFFF732FEA7
:100F5000801B642873D828688003F7D50CE0FFF75E
:100F600029FE064605E000BFFFF724FE801B64282B
:100F7000F0D828688003F7D42078DFF8AC828007A7
:100F80004FF0000A3ED5A748001D016811F00C0F74
:100F900008D00068C0F3810002280BD1D9F8000006
:100FA000400207D42868800716D5E068012800D1E0
:100FB00012E033E1E068B8B10120C8F80000FFF7A3
:100FC000F9FD064605E000BFFFF7F4FD801B02288F
:100FD000C0D828688007F7D52868216920F0F80074
:100FE00040EAC10028600DE0C8F800A0FFF7E2FD6C
:100FF000064604E0FFF7DEFD801B02281FD82868A4
:101000008007F7D42078000722D5864F874861698A
:10101000703771B101210160FFF7CCFD064604E095
:10102000FFF7C8FD801B022809D838688007F7D56C
:101030000EE0C0F800A0FFF7BDFD064605E082E027
:10104000FFF7B8FD801B02287DD838688007F7D4E9
:101050002078400768D5DFF8CCB100270BF13C0BB6
:10106000DBF80000C0000BD4DBF8001041F0805129
:10107000CBF80010DBF80000012700F08050009052
:101080006B4E3068C00510D4306840F4807030601A
:10109000FFF790FD009005E0FFF78CFD0099401AE6
:1010A000022850D83068C005F6D55E4EA0686C3670
:1010B00001280FD00528306810D020F001003060E2
:1010C000306820F004003060A068B8B1FFF772FD0E
:1010D00000900FE0306840F00100F4E740F00400B9
:1010E0003060F7E7FFF766FD0099411A41F288305A
:1010F000814266D830688007F4D50EE0FFF75AFDCC
:10110000009007E0FFF756FD0099411A41F2883040
:10111000814256D830688007F4D42FB1DBF8001034
:1011200021F08051CBF80010A069C8B33D49091DDA
:101130000968C1F3810102294AD00228504607D02C
:10114000C8F8600000E03CE0FFF734FD04463BE0F7
:101150004746C8F86000FFF72DFD064605E000BFD2
:10116000FFF728FD801B02282BD828688001F7D4C0
:10117000D4E907010843A16A2E4A490802EB01415C
:10118000626A41EA8211084394F82C1040EA016136
:10119000C9F8001001203866FFF70CFD044606E090
:1011A0003EE000BFFFF706FD001B022809D82868B3
:1011B0008001F7D534E000BFFFF7FCFC001B0228DC
:1011C00002D90320BDE8F88F28688001F4D427E015
:1011D0000128F7D0D9F80000E26900F480019142BB
:1011E0001CD1226A00F03F01914217D147F6C0712D
:1011F000626A0140B1EB821F10D1A26A4FF0FF3347
:1012000000F4403103EB5202B1EB024F06D194F8E7
:101210002C1000F07060B0EB016F01D00120D1E71D
:101220000020CFE70438024000004742800E4742CA
:10123000007000400000FFFF7047000038B50168F3
:1012400004464A688868C043430606D5C30704D1EC
:10125000D3435B0601D4216C05E0830708D4D34354
:101260001B0605D4616C01B02046BDE8304008473C
:10127000830603D5430601D5C30551D4D3439B064A
:101280004ED443060AD494F85130032B49D0636DF1
:1012900043F004036365CB688B680093830609D42D
:1012A000636D43F0010363658B6800930B6823F063
:1012B00040030B60C00506D4606D40F00800606517
:1012C000206880680090606D002829D020684168FF
:1012D00021F0E0014160012084F85100900701D421
:1012E000D00722D02068416821F003014160114DF0
:1012F000E06C40B10565E06CFFF7CFF918B1606DA7
:1013000040F040006065A06C002809D00565A06C25
:10131000FFF7C3F9002803D0606D40F0400060651E
:1013200038BDC8688868009038BD2046FFF784FF44
:1013300038BD00002D22000870B5040009D0606A95
:10134000002540B125616561A56294F8510040B166
:101350000CE0012070BD6068B0F5827FF4D0E561DB
:10136000F2E784F85050204600F044F8022084F858
:1013700051002068016821F040010160A0882189A6
:1013800000F4827001F404410843A18901F4006172
:101390000843217C01F002010843217D01F0010195
:1013A0000843218B01F400710843217F01F03801CB
:1013B000084394F8201001F080010843218D01F4C6
:1013C0000051084321680860A069042101EA104027
:1013D00094F8241001F01001084321684860206847
:1013E000C16921F40061C1616565012084F8510083
:1013F000002070BDF0B587B0064614216846FEF7A0
:10140000E2FF2D493068884253D12C4800240168FE
:1014100041F480410160006800F480400590274855
:101420001038016841F0020101600068694600F06F
:10143000020005904FF4444000900220CDE90104E1
:1014400003200390052004901D48FFF7BDFA1E4DB0
:101450001C48C5E900040715AC60C5E903476C6189
:10146000AC61EC612C6228466C62FFF7F9F908B1B7
:10147000FFF711F9F564AE631248144D1830E5E832
:101480000204402091C5114845F81449AC61EC6153
:101490002C626C62FFF7E4F908B1FFF7FCF8B56461
:1014A000002211462420AE63FFF7F2FB2420FFF751
:1014B000E1FB07B0F0BD00000038004040380240BA
:1014C000000402405860024040010020A0010020BA
:1014D0002DE9F84F044690F851001D4616460F4678
:1014E000012838D1002F77D0002E75D060684FF0DA
:1014F0000408B0F5827F01D1A06810B3FFF75AFB52
:10150000824694F85000012825D04FF0010984F854
:10151000509084F851804FF00008C4F85480A763BD
:10152000A687E687C4F83080A4F83480A4F8368013
:10153000C4F84080C4F84480A068B0F5004F0CD0D7
:1015400015E084F85180009313460A46204600F0C7
:1015500099F9BDE8F88F0220FBE72068016821F0C7
:10156000400101602068016821F480410160206829
:101570000168490603D4016841F040010160E06858
:10158000C0B134E020688168C90709D0007BA16B35
:101590000870A06B401CA063E08F401EE08709E04C
:1015A000FFF708FBA0EB0A00A84202D3681C01D099
:1015B00032E085B3E08F0028E4D11BE02068816829
:1015C000C9070AD0C068A16B0880A06B801CA0630B
:1015D000E08F401EE0870AE01BE0FFF7EBFAA0EB8C
:1015E0000A00A84202D3681C01D015E09DB1E08F2B
:1015F0000028E3D152462946204600F09CFE08B15F
:101600002020606584F8519084F85080606D002837
:101610009FD001209DE7FFE784F8519084F8508027
:10162000032096E770B5044690F8510001282AD1AE
:1016300021B11AB1A068042310B105E0012070BDEA
:101640006568B5F5827F15D094F85050012D1AD0F9
:10165000012584F8505084F8513000256565A16358
:10166000A287E28725646564A586E586B0F5004F0C
:101670000BD014E084F851302046BDE8704013468A
:101680000A4600F0F7B9022070BD2068016821F019
:10169000400101602068016821F480410160E16C33
:1016A00017480864E16C1748C863E16C1648C864C1
:1016B000E06C0565E38F2168A26B0C31E06CFFF7ED
:1016C00039F930B1606D40F01000606584F8505019
:1016D000B4E720680168490603D4016841F040017D
:1016E000016084F850502068416841F02001416059
:1016F0002068416841F001014160002070BD000098
:101700005F220008732200083D2200080249884237
:1017100001D102F07BBB70472800002070472DE903
:10172000F84F984616468A460446FFF743FA814624
:1017300094F8510001281ED1BAF1000F73D0002E89
:1017400071D094F85000012815D0012784F850700A
:10175000032084F8510000256565C4F830A0A686F2
:10176000E686A563A587E58765642564A068B0F56E
:10177000004F03D00CE00220BDE8F88F206801681C
:1017800021F0400101602068016841F4804101605E
:1017900020680168490603D4016841F040010160F6
:1017A000E068B0F5006F606803D048B3012E27D021
:1017B00047E008B1012E1FD1206B21680088C86066
:1017C00006E020688168890709D5216B0988C16016
:1017D000206B801C2063E08E401EE0860CE0FFF74B
:1017E000E9F9A0EB0901414503D3B8F1FF3F03D06C
:1017F00035E0B8F1000F32D0E08E0028E1D123E0CF
:10180000206B21680078087306E0206881688907EA
:101810000AD5216B09780173206B401C2063E08E90
:10182000401EE0860DE02BE0FFF7C4F9A0EB0901B4
:10183000414503D3B8F1FF3F03D010E0B8F1000FEA
:101840000DD0E08E0028E0D14A464146204600F007
:10185000A1FD08B120206065A06830B109E084F8DE
:10186000517084F85050032086E72068C168806872
:10187000009084F8517004F8505F60680028F3D03D
:10188000012079E72DE9FF4F81B01D4693460446BC
:101890004FF001090E9EFFF78DF9074694F85100AD
:1018A0006168012806D0B1F5827F3CD1A168C9BB2F
:1018B000042838D10298002871D0BBF1000FFBD06A
:1018C000002DF9D094F8500001282CD04FF0010AD7
:1018D00084F850A094F85100042802D0052084F820
:1018E00051004FF00008C4F85480C4F838B0E587C0
:1018F000A58702992163E586A586C4F84080C4F8CF
:10190000448020680168490603D4016841F0400121
:101910000160E068B0F5006F606808D0F0B3012D99
:1019200049D081E0FFE7022005B0BDE8F08F08B1A3
:10193000012D39D1206B21680088C860206B801C84
:101940002063E08E401EE0862EE0206881688907D3
:101950000FD5E18E69B1B9F1010F0AD1216B098868
:10196000C160206B801C2063E08E401EE0864FF03B
:10197000000920688168C9070CD0E18F51B1C068A7
:10198000A16B0880A06B801CA063E08F401EE087E5
:101990004FF00109FFF70EF9C01B01E00BE067E013
:1019A000B04201D3701C50D1E08E0028CDD1E08F21
:1019B0000028CAD13EE0206B216800780873206BB4
:1019C000401C2063E08E401EE0862DE02068816888
:1019D00089070FD5E18E69B1B9F1010F0AD1216BE9
:1019E00009780173206B401C2063E08E401EE08666
:1019F0004FF0000920688168C9070CD0E18F51B110
:101A0000C068A16B0870A06B401CA063E08F401EF3
:101A1000E0874FF00109FFF7CDF8C01BB04202D3B9
:101A2000701C01D011E086B1E08E0028CED1E08F8D
:101A30000028CBD13A463146204600F0ABFC50B1ED
:101A40002020606584F8508012E084F851A084F86A
:101A50005080032068E7A06818B92068C1688068D2
:101A6000009084F851A084F85080606D0028F1D077
:101A7000012059E770B5044690F8510065680128C7
:101A800006D0B5F5827F3AD1A568A5BB042836D12A
:101A900091B38AB383B394F8500001282FD001206A
:101AA00084F8500094F85100042802D0052084F8EE
:101AB0005100002565652163A386E386A263A387A1
:101AC000E3872564656494F85100042819D0E16C1B
:101AD000274808642748E16CC863E16C2648C8645D
:101AE000E06C0565E38F2168A26B0C31E06CFEF7BA
:101AF00021FF00BB0AE002E0FFE7012070BD0220E9
:101B000070BDE16C1D4808641D48E4E72068416829
:101B100041F001014160A06C0564A06CC563A06C3C
:101B2000C564A06C0565E38E2268216B0C32A06C45
:101B3000FEF700FF30B1606D40F01000606584F882
:101B40005050DAE720680168490603D4016841F083
:101B50004001016084F850502068416841F0200144
:101B600041602068416841F002014160002070BD81
:101B700069220008DD2200083D2200085F220008DB
:101B8000732200087047704710B5401EB0F1807F87
:101B900001D3012010BD4FF0E02460610F216017D8
:101BA00000F062FE0020A06107202061002010BD2F
:101BB0007047704770B590F83C20012A2CD0012462
:101BC00080F83C40022280F83D2003685A689D68F6
:101BD00022F070060A6832435A60104B02689A423B
:101BE0000ED0B2F1804F0BD00D4B9A4208D00D4B66
:101BF0009A4205D00C4B9A4202D00C4B9A4204D127
:101C0000496825F080031943916080F83D40002128
:101C100080F83C10084670BD022070BD00000140F5
:101C20000004004000080040000C0040004001405B
:101C300010B5040003D094F83D0010B107E0012076
:101C400010BD002084F83C00204600F01FF8022060
:101C500084F83D00211D206800F082FC012084F8FA
:101C6000460084F83E0084F83F0084F8400084F881
:101C7000410084F8420084F8430084F8440084F86A
:101C8000450084F83D00002010BD000008B5006844
:101C90000B49884212D10B48016841F004010160F0
:101CA0000068002200F00400009011461E20FEF79C
:101CB000EFFFBDE808401E20FEF7DCBF08BD0000B6
:101CC000000800404038024090F83D10012901D042
:101CD00001207047022180F83D100168CA6842F077
:101CE0000102CA6000680E4988420ED0B0F1804FF0
:101CF0000BD00C49884208D00B49884205D00B49CB
:101D0000884202D00A49884204D1816801F0070163
:101D1000062903D0016841F00101016000207047ED
:101D2000000001400004004000080040000C00409A
:101D30000040014070B5044690F83C0000250128A1
:101D400017D0012684F83C60022084F83D0020680A
:101D5000826822F0770222F47F428260086850286D
:101D600038D00DDC20284FD005DC90B3102811D1DD
:101D70004AE0022070BD302846D040280AD13BE01E
:101D800060282FD070280DD0B0F5805F03D0B0F55B
:101D9000005F12D0012584F83D60002084F83C00EB
:101DA000284670BDCB68D1E90121206800F028FCED
:101DB0002068816841F0770109E0CB68D1E9012111
:101DC000206800F01DFC2068816841F4804181603A
:101DD000E1E719E0CA684968206800F023FC502157
:101DE000206806E0CA684968206800F02CFC602181
:101DF000206800F00FFCCEE7CA684968206800F050
:101E000011FC40212068F4E7226801461046F0E703
:101E100070472DE9F04104460068C66805694FF037
:101E20000007A90713D5B10711D5F91E01610120DB
:101E30002077206880698007204602D0FFF7E8FFFE
:101E400004E000F07EF8204600F07CF82777680771
:101E500016D5700714D521686FF0040008610220C0
:101E600020772068806910F4407F204602D0FFF779
:101E7000CFFF04E000F065F8204600F063F8277714
:101E8000280715D5300713D521686FF008000861C1
:101E9000042020772068C0698007204602D0FFF721
:101EA000B7FF04E000F04DF8204600F04BF827772C
:101EB000E80616D5F00614D521686FF01000086109
:101EC000082020772068C06910F4407F204602D0A7
:101ED000FFF79EFF04E000F034F8204600F032F8EF
:101EE0002777E80708D0F00706D021686FF00100D7
:101EF0000861204600F028F8280608D5300606D5E7
:101F000021686FF0800008612046FFF751FE6806E7
:101F100008D5700606D521686FF04000086120469C
:101F200000F018F8A8060AD5B00608D521686FF0A9
:101F3000200008612046BDE8F041FFF73ABEBDE849
:101F4000F081704770470000014901200870704718
:101F500000000020704770B5040004D094F84100E0
:101F6000002510B106E0012070BD84F840502046E5
:101F700000F024F8242084F841002068C16821F48E
:101F80000051C160204600F097FB2068016921F4F0
:101F9000904101612068416921F02A014161206876
:101FA000C16841F40051C1606564202084F841009B
:101FB00084F842006563002070BD000010B586B053
:101FC000044614216846FEF7FEF91349206888424A
:101FD00020D112480021026842F4003202600068F9
:101FE00000F4003005900D481038026842F00102FC
:101FF0000260006800F0010005900C2000900220B3
:10200000CDE90101032003900720049069460448AC
:10201000FEF7DAFC06B010BD004400404038024034
:10202000000002402DE9F843044690F8410098462C
:1020300016460D46202802D00220BDE8F88385B15F
:102040007EB100206064212084F84100FEF7B2FDDB
:10205000A6848146E684A0682027B0F5805F02D080
:1020600003E00120E9E7206910B12E4600250EE0CB
:1020700000260CE08021204600F0A4FBA8B9C6B1E0
:1020800016F8010B21684860E08C401EE084E08C6B
:102090004B464FF00002CDF800800028EAD14FF007
:1020A0004001204600F08EFB40B184F841700320CF
:1020B000C3E735F8020BC0F30800E3E784F841708A
:1020C0000020BAE7FEE7000070B586B0142168462C
:1020D000FEF779F912480024016841F0010101601E
:1020E000016801F001010591016841F00201016000
:1020F00000680C4E00F002004FF400550590224697
:1021000029463046FEF750FD01200095CDE9010437
:10211000694630460394FEF757FC06B070BD0000D8
:1021200030380240000402400E4810B50C490160EE
:102130004FF48271416000218160C1604FF40072F0
:102140000161C0E90512C1610162416281620A2137
:10215000C162FFF7F1F8002801D072B6FEE710BDAA
:10216000003800402800002030B587B00025244CFE
:1021700000950195029503950495204805952060EA
:102180004F20C4E9010542F20F70C4E9030520465F
:10219000A561FFF74DFD08B172B6FEE74FF4805020
:1021A000009069461648FFF7C5FD08B172B6FEE714
:1021B000049504A912480595FFF7FCFC08B172B616
:1021C000FEE71048006802F071FC9FED0F1B53EC16
:1021D000112B02F0CFFA9FED0E1B53EC112B02F0E6
:1021E000C1FE02F01FFC21688862216840F2E730DE
:1021F000C8620348FFF768FD07B030BD0008004023
:1022000080000020200000200000000080842E417B
:10221000000000000000F03FFEE7FEE7704700000E
:102220000148FFF70BB800002800002010B5806BB4
:102230000021C187C186FEF7FFFF10BD10B5806B7E
:1022400001684A6822F003024A60416D41F01001C2
:102250004165012180F85110FEF7EEFF10BD10B569
:10226000806BFFF75BFA10BD10B5806BFFF78BFC3E
:1022700010BD70B50546846BFEF79CFC02462868CD
:102280000068C00526D42068416821F02001416023
:10229000A06818B96068B0F5827F16D020684168E0
:1022A00021F0010141606421204600F044F808B1AA
:1022B000202060650020E087012084F85100606DD7
:1022C00040B12046FEF7B8FF70BD2068416821F09C
:1022D0000301E7E72046FFF719FA70BD70B5054620
:1022E000846BFEF767FC024628680068C0051ED4B0
:1022F0002068416821F0200141606421204600F0FF
:1023000049F818B1606D40F02000606520684168B0
:1023100021F0030141600020E086E087012084F87D
:102320005100606D18B12046FEF786FF70BD204653
:10233000FFF728FC70BDF8B5044640684FF482737F
:10234000984221D1A0684FF48065B0F5004F01D0CC
:10235000A8420AD12068066826F040060660606838
:10236000984211D1A068A8420ED000920B460022DC
:102370008021204600F044F8002804D0606D40F031
:10238000200060650320F8BD00920B460022012169
:10239000EFE70000F8B515460E460B4600920446DE
:1023A0000122022100F02CF8A0B91348134900685B
:1023B000B0FBF1F04FF47A71484300906068B0F5DB
:1023C000827F0DD13346002280212046009500F007
:1023D00017F870B1606D40F0200060650320F8BD13
:1023E000009830B1401E009020688068C04300060D
:1023F000F6D50020F8BD00002000002000366E0158
:102400002DE9F8431E46914688460446089DFEF78E
:10241000D1FB401B351AFEF7CDFB07462648006866
:10242000C0F3CB3068430AE0701C09D0FEF7C2FB52
:10243000C01BA8420FD275B10098B8B3401E0090DF
:102440002068816838EA010033D000214945EBD18A
:102450000020BDE8F8832068416821F0E001416078
:102460006068B0F5827F0BD1A068B0F5004F02D054
:10247000B0F5806F04D12068016821F0400101604F
:10248000A06AB0F5005F09D12068016821F400510D
:1024900001602068016841F400510160012084F866
:1024A0005100002084F850000320D2E7FFE7002508
:1024B000C6E70121CAE70000200000207047FEF7B0
:1024C0007FBB000010B592B030216846FDF77BFF5E
:1024D00014210CA8FDF777FF18480024016841F08B
:1024E00080510160006800F080501190144801682C
:1024F00021F4404141F4004101600068069400F479
:102500004040119002200090012003901020049080
:102510006846FEF7DBFC08B172B6FEE70F20CDE996
:102520000C040E940F9400210CA81094FEF7E2FB0B
:10253000002801D072B6FEE712B010BD403802404C
:10254000007000400248016841F47001016070476A
:1025500088ED00E00148FFF75CBC0000800000202F
:10256000F0B502681F4B204C204D214E4FF0804C9F
:10257000984207D0604505D0A04203D0A84201D0C0
:10258000B04203D122F070074A683A43984210D013
:1025900060450ED0A0420CD0A8420AD0B04208D06C
:1025A000144CA04205D0144CA04202D0134CA042BF
:1025B00003D122F44074CA6822434C6922F080029D
:1025C00022438C68C4620C688462984201D1096914
:1025D0000163016841F00401016001214161026071
:1025E000F0BD000000000140000400400008004071
:1025F000000C004000400140004401400048014000
:1026000010B5846842EA032224F47F440A4322433B
:10261000826010BD826822F070020A4342F0070116
:102620008160704710B5036A046A24F001040462F3
:10263000846924F0F00444EA021423F00A020A43F5
:102640008461026210BD10B5036A046A24F01004AC
:102650000462846923F0A00324F4704444EA023243
:1026600043EA01118261016210BD01680C3151E839
:10267000002F22F4907241E80023002BF5D101686D
:10268000143151E8002F22F0010241E80023002B11
:10269000F5D1016B012909D101680C3151E8002FF6
:1026A00022F0100241E80023002BF5D1202180F810
:1026B000421000210163704770B50446006801694B
:1026C000E26821F44051114301612169A068E26987
:1026D00008436169114308432168CA6849F20C63E1
:1026E0009A430243CA6020684169A26921F440719B
:1026F0001143416131492068884202D03049884203
:1027000002D1FEF7A1FB01E0FEF78EFBE269002398
:10271000192164253226B2F5004F626828D0A0FB4B
:102720000101930F9200FDF7A5FD0146B0FBF5F006
:102730006FF01802504301EB800006EB0010B0FB75
:10274000F5F000F0F002B1FBF5F002EB0012B1FB86
:10275000F5F06FF01803584301EB800006EB001012
:10276000B0FBF5F000F00F0021681044886070BDE8
:10277000A0FB010192185B41FDF77CFD0146B0FB17
:10278000F5F00201B1FBF5F06FF01803584301EBCF
:10279000800006EBC000B0FBF5F000F0F80002EBA3
:1027A0004002B1FBF5F0584301EB800006EBC0009E
:1027B000B0FBF5F000F00700D6E700000010014084
:1027C000001401402DE9F843984617460D4604468B
:1027D000089E24E0701C22D0FEF7ECF9A0EB080064
:1027E000B0421AD8CEB12068C168490717D5802DEC
:1027F00015D0402D13D00168C94309070FD40168D3
:102800000025406800902046FFF72FFF08206064F5
:1028100084F840500120BDE8F8830320FBE72068DE
:10282000006835EA000004D00020B842D2D0002071
:10283000F1E70120F9E7FEE703B4019841000098B1
:1028400050EAC12018BF04204A0D18BF40F0010013
:1028500040F2FF72B2EB515F08BF40F00200012866
:1028600008BF052002B070470907090E002804DBE5
:1028700000F1E02080F80014704700F00F0000F134
:10288000E02080F8141D704770B59B482DED020BB9
:102890002DED068B079D25F00044A04218DC9748DB
:1028A000844202DC0AD1069840B19DED060BBDECD6
:1028B000068B02B0BDE8704001F006B9002DCCBF18
:1028C0009FED8F0B9FED900BBDEC068B02B070BDA2
:1028D0008F48A04215DD8F48A042D8BF4FF0FF348B
:1028E00058DD9DED060B51EC100BFFF7A5FF0428FA
:1028F00008BF01F01DF99DED060BBDEC068B02B083
:1029000070BD9DED060B51EC100B01F087FACDE97F
:10291000060181489FED828BA0423CDD8248A042A7
:102920001FDD00249FED82AB9DED060B53EC1A2BAF
:1029300051EC100B01F062FE9DED060B41EC190B02
:1029400053EC1A2B51EC100B02F000F953EC182B3E
:1029500002F008FB53EC192B01F00CFFCDE9060146
:1029600049E09DED060B012453EC182B51EC100BA4
:1029700001F044FE9DED060B41EC190B53EC182BB6
:1029800051EC100B02F0EEFA53EC192B01F0F2FEB1
:10299000CDE906012FE06848A0421FDD02249FED2B
:1029A000689B9DED060B53EC192B51EC100B02F0BC
:1029B000CDF853EC182B01F021FE9DED060B41ECF8
:1029C000180B53EC192B51EC100B02F0CBFA53EC13
:1029D000182B01F0CFFECDE906010CE09DED060BB2
:1029E000032453EC102B9FED580B51EC100B01F00E
:1029F000C1FECDE906019DED060B53EC102B51EC09
:102A0000100B02F0A3F841EC180B53EC182B02F05A
:102A10009DF841EC190B4E480621B0EE490AF0EE44
:102A2000690A784400F0BCFF53EC182B51EC100BF2
:102A300002F08CF841EC180B4648B0EE490AF0EE73
:102A4000690A0521784400F0ABFF53EC192B51ECD7
:102A5000100B02F07BF841EC100B51EC180B53EC0F
:102A6000102B002C0EDA01F0C9FD9DED061B53EC76
:102A7000112B02F06BF89DED061B53EC112B02F0AD
:102A800099F935E001F0BAFD9DED061B53EC112BD1
:102A900002F05CF841EC100B2F48784400EBC400C6
:102AA00090ED001B51EC100B53EC112B02F05AFA75
:102AB0009DED061B53EC112B02F054FA41EC100B68
:102AC0002648784400EBC40090ED001B51EC100B3D
:102AD00053EC112B02F06EF941EC100B002DA2BF4C
:102AE000BDEC068B02B070BD51EC100B01F048FD3F
:102AF00041EC100B01E70000000010440000F07FE3
:102B0000182D4454FB21F93F182D4454FB21F9BFE3
:102B10000000DC3F0000203E0000F33F000000000A
:102B2000000000000000F03F0000E63F0000000051
:102B30000000000000000040008003400000000092
:102B4000000000000000F83F000000000000F0BF9F
:102B50000A2A0000C02900004A29000002290000BA
:102B600070B56B4E2DED040B2DED028B82B0DDF8B0
:102B70001CC0DDE905235C422CF000411C4341EA06
:102B8000D474049D22F00040B44205D86C422C431A
:102B900040EAD474B4420BD99DED061B9DED040BA5
:102BA00002B0BDEC028B04B0BDE8704000F096BFEF
:102BB000ACF14054A4F17F641C430BD0022404EA1E
:102BC000AC7444EAD27405439FED538B9FED542BB4
:102BD00007D015E09DED040B51EC100B01F0C8F887
:102BE00042E0002C11BF012C9DED040B02B0BDECA6
:102BF000028B04BF04B070BD022C38D0032C3BD034
:102C00000B439FED491B9FED4A0B0AD0B14218D1EF
:102C1000B04209D121F0804120F080400791059019
:102C20000FE0002A15DA10E0434B7B44002C08BF6C
:102C300093ED000B0DD0012C10D0022C17D0032CDB
:102C40001AD0B0421DD1002A03DAB0EE410AF0EEEC
:102C5000610A02B0BDEC028B04B070BD93ED000BB5
:102C600051EC100B01F08CFC41EC100BF1E7B0EED5
:102C7000480AF0EE680AECE7B0EE420AF0EE620AAB
:102C8000E7E7401A00153C28C8BF8DED000B19DCA2
:102C9000BCF1000FBEBF10F13C0F9FED290B8DED75
:102CA000000B0FDB9DED060B53EC102B9DED040B81
:102CB00051EC100B01F05EFD01F0B0F801F058F896
:102CC000CDE90001002C08BF9DED000BC1D0012C07
:102CD00010D0022C9FED1C0B53EC102B9DED000B24
:102CE00051EC100B0DD002F03DF953EC182B02F013
:102CF00039F9B9E7019880F0004001909DED000B93
:102D0000A7E702F02FF953EC182B02F053F8ABE7CA
:102D10000000F07F00000000182D4454FB21094002
:102D2000182D4454FB2109C0182D4454FB21F9BF30
:102D3000182D4454FB21F93F322800000000000008
:102D40000000000000000000075C143326A6A13C30
:102D50002DE9F04D2DED040B2DED0E8B96B0DDE938
:102D60002550279CDDF890A025F0004624F000486F
:102D7000BAF1000F14BF0121002101EB4502FC490B
:102D800053184A1093422AD3002814BF012300236A
:102D900003EB44030B44F7498B4220D358EA00016C
:102DA0009FEDF59B76D0DFF8D8B35D4503D1BAF13E
:102DB000000F05D188E0BAF1000F08BF002100D054
:102DC000012101EB450111F5001F08D8002814BFAF
:102DD0000121002101EB440111F5001F0BD99DEDEC
:102DE000261B9DED240B16B0BDEC0E8B04B0BDE888
:102DF000F04D00F073BE0027002DBCBFE1498845AF
:102E000021DAE1498845A8BF02271CDAC3451ADC4C
:102E1000DE4901EB2851142908DDC1F1340220FA02
:102E200002F101FA02F282420DD108E058B9C1F173
:102E3000140228FA02F101FA02F2424503D101F02C
:102E40000101C1F1020756EA0A0124D1002C22DA5D
:102E5000002D18BF022F01D0012F0AD00220FDF74C
:102E6000E1FA16B0BDEC0E8B04B0BDE8F04D00F0F9
:102E700013BE0220FDF7D6FA00F00EFE51EC100B47
:102E800001F07EFB41EC100B16B0BDEC0E8B04B0D4
:102E9000BDE8F08D18E09FEDBEAB9FEDBF8B002825
:102EA00071D1B848804522D105F1804010F58010DD
:102EB00008BFBAF1000F07D0B3450ADC002CA8BF49
:102EC0009DED260BE0DA0DE0B0EE490AF0EE690A5E
:102ED000DAE7002C06DA9DED260B51EC100B01F021
:102EE0004FFB6FE0AE48784490ED000BCCE7D8453F
:102EF0004DD1002C48DA2EB186423AD1BAF1000FFA
:102F000042D126E0BAF1000F13D00220FDF78AFA71
:102F100000F0FEFD8DED020B9DED240B8DED000B01
:102F200010EE900A039961F31E0003909DED020BD1
:102F3000AAE78DED02AB9DED240B1AEE901A10EE70
:102F4000900A8DED000B61F31E0003909DED020BC6
:102F50009AE78DED028B9DED240B18EE901A10EE82
:102F6000900A8DED000B61F31E0003909DED020BA6
:102F70008AE709DA9DED240B51EC190B53EC102B69
:102F800001F0F8FB1EE020E09DED240B7CE786427B
:102F90001BDAB4F1804F0DD0A4F10050B0F1FF5016
:102FA00013D1002D11DB9DED240B51EC100B01F022
:102FB00005FA07E09DED240B53EC102B51EC100BA0
:102FC00000F0C2BC41EC100B5EE79DED240B51EC10
:102FD000100B00F023FFBAF1000FCDE90E0142D132
:102FE0009FED710B46B3A6F1E040B0F17F600CD0CD
:102FF0005E4538D1002D00DAA7B3022F0CBF0120A7
:103000004FF0FF3001F03BFDDCE7002D01DD002C2F
:103010000DDA002D01DD002C1FDB002D16DA002C4F
:1030200014DB012F08BF9FED620B3FF42DAFB0EE14
:103030004A0AF0EE6A0A27E7022F18BF002D0CD0CB
:10304000012F0AD1002DFFF61FAF06E0002DB8BFFB
:10305000002C08DA012F3FF417AFB0EE480AF0EE6B
:10306000680A11E71BE0012000EBE57050EA070158
:1030700015D0791EB0EE498AF0EE698A084308BF80
:103080009FED4D8B4E480025804570DD4D494E48E3
:10309000884514DDB0420DDB002C19DB2FE0012048
:1030A000FDF7C0F916B0BDEC0E8B04B0BDE8F04DD5
:1030B00000F01EBDB34502DC002C09DC1FE0864297
:1030C00002DA002C1BDA03E05E452BDD002C16DD56
:1030D0000220FDF7A7F900F01BFD8DED020B53EC6C
:1030E0001A2B51EC180B01F031FDCDE900010399C9
:1030F000019861F31E0003909DED020BC4E60220CF
:10310000FDF790F900F014FD10EE901A18EE900AF9
:103110008DED020B8DED008B61F31E0003909DED94
:10312000020BB1E69DED0E0B53EC192B51EC100B7D
:1031300001F018FF9FED260BCDE9080153EC102B91
:103140009DED080B51EC100B01F000FD9FED221BD3
:1031500053EC112B01F02EFE9DED081B53EC112BAF
:1031600001F0F4FC9FED1E1B53EC112B3CE08CE0B6
:10317000FFFF1F00FFFF0F00000000000000F03FF6
:103180000000F03F0000F07F0000404301FCFFFF23
:10319000000000000000F07F0000000000000000C0
:1031A0007625000000000000000000000000008004
:1031B000000000000000F0FF000000000000F0BF71
:1031C0000000E0410000F043FFFFEF3F000000007F
:1031D000000000000000D03F555555555555D53FCE
:1031E000000000000000E03F01F0E4FD9DED080B51
:1031F00041EC1A0B53EC102B51EC100B01F0A6FC18
:1032000053EC1A2B01F0A2FC41EC1A0B9FEDFE0BC4
:1032100053EC102B9DED080B51EC100B01F096FCBC
:1032200041EC1B0B9FEDFA0B51EC1A0B53EC102BDE
:1032300001F08CFC41EC1A0B9FEDF70B53EC102BBB
:103240009DED080B51EC100B01F080FC53EC1A2B98
:1032500001F088FE41EC1A0B51EC1B0B53EC1A2BBE
:1032600001F0CCF90690CDE906519DED060B53EC2B
:103270001B2B51EC100B01F075FE53EC1A2B01F0D7
:1032800099FD41EC100B00F0A1B90020B6F5801FAC
:103290000EDA9FEDE30B53EC102B9DED0E0B51EC72
:1032A000100B01F053FCCDE90E016FF034000E4617
:1032B00000EB2650A0F2FF37C6F31300DA4940F0C6
:1032C0007F6646F040568842D8BF002408DDD749C3
:1032D0008142C8BF012403DC0024A6F580167F1CB0
:1032E000D348784400EBC4000F9690ED00CB9DEDE1
:1032F0000E0B53EC1C2B51EC100B01F033FE9DED2B
:103300000E0B41EC1B0B53EC1C2B51EC100B01F082
:1033100075F941EC100B51EC190B53EC102B01F02B
:1033200029FA41EC1D0B51EC1B0B53EC1D2B01F04A
:103330000DFC41EC1A0BBF488DED10AB7844109595
:1033400090ED000B4FF0005040EA660000EB844027
:103350008DED080B00F5002009909DED080B53EC56
:103360001C2B51EC100B01F0FDFD9DED0E1B53ECE1
:10337000112B01F01FFD41EC100B53EC102B9DEDB8
:10338000100B51EC100B01F0E1FB9DED080B41EC33
:103390001C0B53EC102B9DED100B51EC100B01F09E
:1033A000D5FB53EC1B2B01F005FD53EC1C2B01F05E
:1033B000D9FD53EC1D2B01F0C9FB41EC1C0B53EC68
:1033C0001A2B51EC1A0B01F0C1FB41EC1B0B9A4874
:1033D0000621B0EE4B0AF0EE6B0A784400F0E0FAFA
:1033E000B0EE401AF0EE601AB0EE41DAF0EE61DABB
:1033F00053EC1B2B51EC1B0B01F0A8FB53EC1D2BCA
:1034000001F0A4FB9DED100B41EC1B0B53EC1A2BB0
:1034100051EC100B01F0F2F853EC1C2B01F096FB71
:1034200053EC1B2B01F0EAF89DED100B41EC1B0B4C
:1034300053EC102B51EC100B01F088FB41EC1D0BF1
:103440009FED7FEB53EC1E2B01F0D8F853EC1B2BB8
:1034500001F0D4F80890CDE908519DED080B53EC2C
:103460001E2B51EC100B01F07DFD53EC1D2B01F0D8
:1034700079FD53EC1B2B01F09DFC9DED080B41ECFD
:103480001D0B53EC102B9DED100B51EC100B01F0AC
:103490005DFB41EC1B0B53EC1A2B51EC1D0B01F0A7
:1034A00055FB9DED080B41EC1A0B53EC102B51EC26
:1034B0001C0B01F04BFB53EC1A2B01F09FF841EC75
:1034C0001A0B51EC1B0B53EC1A2B01F097F80C90D4
:1034D000CDE90C519DED0C0B53EC1B2B51EC100B5B
:1034E00001F040FD53EC1A2B01F064FC41EC1B0B86
:1034F0009FED550B53EC102B9DED0C0B51EC100B6D
:1035000001F024FB41EC1A0B9FED510B51EC1B0B0E
:1035100053EC102B01F01AFB41EC1B0B9FED4E0BF3
:1035200053EC102B9DED0C0B51EC100B01F00EFB2E
:1035300053EC1B2B01F062F841EC100B4848784427
:1035400000EBC40090ED001B51EC100B53EC112B61
:1035500001F054F841EC1B0B384601F090FACDE92C
:10356000080153EC1B2B51EC1A0B01F047F841EC0E
:10357000100B3C48784400EBC40090ED00CB51ECBC
:10358000100B53EC1C2B01F039F89DED081B53EC8C
:10359000112B01F033F80690CDE906519DED080B93
:1035A00053EC102B9DED060B51EC100B01F0DAFCE7
:1035B00053EC1C2B01F0D6FC53EC1A2B01F0D2FC7F
:1035C00053EC1B2B01F0F6FB41EC100B9DED261B81
:1035D00053EC102B8DED001B00959DED260B51EC4F
:1035E000100B01F0B3FA9DED000B41EC1A0B53ECFC
:1035F000102B9DED260B51EC100B01F0B3FC9DED53
:10360000061B53EC112B2FE0000000604715F73F1D
:10361000FE822B654715F73F44DF5DF80BAE543E45
:1036200000000000000040438E9803007AB60B00B3
:103630005A20000020210000921F0000000000001E
:103640000000000000000840000000E009C7EE3F55
:10365000FD033ADC09C7EE3FF5015B14E02F3EBEE7
:103660001E1E0000D81D000001F070FA53EC1A2B4A
:1036700000F0C4FF9DED060B41EC1A0B53EC102B30
:103680009DED000B51EC100B01F060FACDE90C013F
:103690009DED0C0B51EC1A0B53EC102B00F0AEFF10
:1036A000CDE902010C46AA498C422FDB611A08437E
:1036B00018D19DED0C0B53EC102B9DED020B51EC32
:1036C000100B01F04FFC41EC1B0B9FEDA30B51ECD9
:1036D0001A0B53EC102B00F091FF53EC1B2B01F055
:1036E00033FB2DD20220FCF79DFE00F011FA10EE04
:1036F000901A18EE900A8DED020B8DED008B61F3A0
:103700001E0003909DED020BFFF7BEBB944A24F010
:103710000041914214D39349214408437FF4EFAC14
:103720009DED0C0B53EC102B9DED020B51EC100B8F
:1037300001F018FC53EC1A2B01F006FB7FF6DFAC0E
:1037400024F000408849894A002601EB205182423A
:103750002BDA481C4FF4801121FA00F02044844AEF
:10376000C0F30A517A44A1F2FF3192ED000B814A75
:103770008DED080BCA4020EA0202C0F3130040F4AA
:103780008010C1F1140120FA01F60992002CB8BF93
:1037900076429DED080B53EC102B9DED0C0B51EC7C
:1037A000100B01F0DFFBCDE90C019DED0C0B51EC92
:1037B0001A0B53EC102B00F021FF9FED6F0B0890BC
:1037C000CDE9085153EC102B9DED080B51EC100B7B
:1037D00001F0BCF941EC1B0B9FED690B53EC102B76
:1037E0009DED080B51EC100B01F0B0F99DED0C0BA9
:1037F00041EC1C0B53EC102B9DED080B51EC100B06
:1038000001F0B0FB53EC1A2B01F0D4FA9FED5E1BD4
:1038100053EC112B01F09AF953EC1C2B00F0EEFE47
:1038200041EC1A0B51EC1B0B53EC1A2B00F0E6FE8B
:10383000CDE902019DED020B53EC1B2B51EC100B5B
:1038400001F090FB53EC1A2B01F0B4FA9DED020B42
:1038500041EC1A0B53EC102B51EC100B01F076F9E4
:10386000CDE908014A489DED080B0521784400F098
:1038700097F89DED081B51EC100B53EC112B01F048
:1038800065F99DED021B53EC112B01F093FACDE984
:1038900006019DED020B53EC1A2B51EC100B01F0BD
:1038A00055F953EC1A2B00F0A9FE9FED3B0B41ECB0
:1038B0001A0B53EC102B9DED060B51EC100B01F085
:1038C00051FB9DED060B41EC1B0B53EC102B9DEDBA
:1038D000020B51EC100B01F039F953EC1B2B00F0EB
:1038E00049FF53EC1A2B01F03DFB9DED021B53ECFD
:1038F000112B01F037FB53EC192B01F05BFACDE9EA
:10390000020101EB065001150029C8BF039015DC28
:103910009DED020B324651EC100B01F0BAFCFEF7A4
:103920008BFF042808BF00F003F932469DED020B1F
:1039300051EC100B01F0ADFCCDE902019DED020B45
:1039400051EC180B53EC102B01F000F9FFF73ABBC8
:103950000000904000000000FE822B654715973C58
:1039600000CC904000346F3F01FCFFFF0000E03FBF
:10397000F81C0000FFFF0F0000000000432EE63F90
:10398000396CA80C615C20BEEF39FAFE422EE63F8E
:10399000301B00000000000000000000000000409C
:1039A00070B504462DED028B4D1E00EBC500B0EE48
:1039B000408AF0EE608A90ED000B35F0060017D0DB
:1039C00053EC182B51EC100B01F0C0F841EC100B2C
:1039D0006D1E04EBC50090ED001B51EC100B53EC79
:1039E000112B00F00BFE41EC100B35F00600E7D177
:1039F000022D36D0042D1CD0062D1CBFBDEC028B31
:103A000070BD53EC182B51EC100B01F09FF894EDA6
:103A10000A1B53EC112B00F0F1FD53EC182B01F0B5
:103A200095F894ED081B53EC112B00F0E7FD41ECE9
:103A3000100B53EC182B51EC100B01F087F894EDA0
:103A4000061B53EC112B00F0D9FD53EC182B01F0A1
:103A50007DF894ED040B53EC102B00F0CFFD41ECFE
:103A6000100B53EC182B51EC100B01F06FF894ED88
:103A7000021B53EC112B00F0C1FD53EC182B01F08D
:103A800065F894ED001B53EC112B00F0B7FDBDEC75
:103A9000028B41EC100B70BD9FED070B10B553EC82
:103AA000102B9FED070B51EC100B00F063FE41EC67
:103AB000100B10BD0000000000000000000000001E
:103AC000000000000000F03F10B553EC102B51EC4B
:103AD000100B00F093FD41EC100B10BD10B553EC32
:103AE000112B51EC100B00F089FD41EC100B10BDB7
:103AF0009FED050B10B553EC102B51EC100B00F0A3
:103B000039FE41EC100B10BD000000000000000069
:103B10009FED050B10B553EC102B51EC100B01F081
:103B200015F841EC100B10BD000000000000007003
:103B30009FED050B10B553EC102B51EC100B01F061
:103B400005F841EC100B10BD000000000000001053
:103B50000FB410B52DED0A8B9DED0DAADDED0E8A8B
:103B6000159C2AEE0A0A08EEA80AB5EEC00AF1EE84
:103B700010FA02DBB1EEC08A01E09FED3A8A18EE3E
:103B8000100A01F0D9FA9DED0CCA41EC190BB1EE07
:103B90004C0A10EE100A01F0CFFA41EC100BB0EE17
:103BA000491AF0EE691AFEF7DBFF9FED2F9B51ECEF
:103BB000100B53EC192B00F021FD00F0EDFC6060C0
:103BC00018EE900A01F0B8FA41EC1B0B1AEE100A3D
:103BD00001F0B2FA41EC100BB0EE4B1AF0EE6B1A9A
:103BE000FEF7BEFF53EC192B51EC100B00F006FD55
:103BF00000F0D2FCCAEE08AAA0609DED11BADDED7E
:103C000010BADDED0F0A88EE88AA2BEE0A0A0BEE39
:103C1000AA0A2CEE400A00EE880A10EE100A01F003
:103C20008BFA2BEE2A0A41EC180B0BEECA0A10EEA7
:103C3000100A01F081FA41EC100BB0EE481AF0EED8
:103C4000681AFEF78DFF53EC192B51EC100B00F0A6
:103C5000D5FC00F0A1FC2060BDEC0A8B10BC5DF827
:103C600014FB000000000000FCA9F1D24D62503F9F
:103C700000224FF400510148FCF796BF00040240B7
:103C800008B56A460321002000F060F99DF80000A5
:103C9000032140F002028DF80020002000F072F9AC
:103CA0006420FCF77FFE6A460321002000F04EF9F5
:103CB0009DF80000032140F020028DF80020002034
:103CC00000F060F90A20FCF76DFE07228DF8002055
:103CD0000121302000F056F90A20FCF763FE402253
:103CE0008DF800200521002000F04CF90A20FCF797
:103CF00059FE03228DF800200021302000F042F907
:103D00000A20FCF74FFE80228DF80020022130208F
:103D100000F038F90A20FCF745FE0121322000F0BE
:103D200008F86420FCF73EFE0821312000F001F87D
:103D300008BD70B50C4605460C220321302000F06A
:103D400021F92A460421302000F01CF922460621E0
:103D5000302000F017F93220FCF724FE81220521E3
:103D6000302000F00FF9BDE870403220FCF71ABE99
:103D700010B541EC100BFEF787FD51EC100B10BD98
:103D80000FB42DE9F0411F4F8AB01F4C3878DDF891
:103D9000648006AE14AD00B314222946684605942B
:103DA000FCF7DFFA10AF97E80F0000F03FFB14229A
:103DB000294668460596FCF7D4FA97E80F00FFF706
:103DC000C7FE00BF94E80E00C8E90012C8F808302A
:103DD0000AB0BDE8F0015DF814FB142229466846DC
:103DE0000596FCF7BEFA0DF1400C9CE80F00FFF7BA
:103DF000AFFE012006AB387093E8070084E80700A7
:103E0000E0E70000240000201402002001225103FA
:103E10000148FCF7C9BE00000004024082B0CDE9B1
:103E2000000121F0004001909DED000B02B051EC2B
:103E3000100B704710B5C1220621002000F0A2F837
:103E40006420FCF7AFFD01220621002000F09AF863
:103E500000221021202000F095F8002210212020BF
:103E600000F090F803221421202000F08BF810229B
:103E70000321002000F086F8002000F06FF900F028
:103E80001FF900221146202000F07CF803220121B6
:103E9000202000F077F8FFF7F3FE11248C22032195
:103EA000302000F06FF822460421302000F06AF83C
:103EB0003220FCF777FD88220521302000F062F8DF
:103EC0003220FCF76FFDBDE81040002000F046B93D
:103ED00008B5AD218DF800101A490A8852BA02803F
:103EE0004A8852BA42808A8852BA8280CA8852BAB4
:103EF000C2800A8952BA02814A8952BA42818A7BB7
:103F0000CB7B683242EA032282810A7C4B7C6A3294
:103F100042EA0322C2818A7CC97CA2F2162242EACA
:103F200001210182FFF7A4FE4FF47A730122694652
:103F30000548FDF7F4FB142202490348FDF772FB24
:103F4000002008BD000200202800002038B541F004
:103F5000800114468DF8001000F000F9FFF788FE8C
:103F60006423012269460648FDF7D9FB6423012238
:103F700021460348FDF7ACFAFFF748FF38BD0000C3
:103F80002800002007B500F0E9F8FFF771FE642370
:103F9000012201A90548FDF7C2FB6423012202A901
:103FA0000248FDF7BCFBFFF731FF0EBD28000020E3
:103FB0008CB0FCF70DFEFEF785FAFEF785F83C485D
:103FC0000025016841F40011016000682A4600F4F0
:103FD0000010009029460E20FCF75AFE0E20FCF738
:103FE00049FE002211460F20FCF752FE0F20FCF77D
:103FF00041FEFEF799F8FEF7B7F82F482D4901600A
:104000004FF4E131C0E901150C21C560C0E904514C
:104010008561C561FDF79FFF08B172B6FEE76420B8
:10402000FCF7C0FCFFF706FF244C20780128FCD1E8
:10403000257006A8FFF74CFFBDF91E00A1680DF121
:10404000180C0844A060BDF92010E2681144E1603A
:10405000BDF922102269114421616080BDF8180069
:10406000A080154848300190BDF82800ADF8000048
:104070009CE80F0000F08CF80F4814226C30A0F17F
:10408000140105906846FCF76CF90B4848300FC8DE
:10409000FFF776FE761C36B21E2EC6D106490026E4
:1040A00064230C226C310448FDF7BCFFBDE700001F
:1040B0003038024000440040C800002000000020CA
:1040C0002DE9F041002786B03E463D463C464FF480
:1040D000FA786846FFF7FCFEBDF906000744BDF913
:1040E00008000644BDF90A0005440220FCF75AFC0A
:1040F000641C4445EDDB4FF4FA6097FBF0F14C4251
:1041000096FBF0F195FBF0F045424E426420FCF73F
:1041100049FCC4F3072203212020FFF733FFE2B25A
:1041200004212020FFF72EFFC6F3072205212020BF
:10413000FFF728FFF2B206212020FFF723FFC5F387
:10414000072207212020FFF71DFFEAB208212020C7
:10415000FFF718FF06B0BDE8F08100001CB58DF830
:1041600000007F208DF80400FFF782FD6423012208
:1041700001A90648FDF7D3FA6423012269460348E2
:10418000FDF7CDFAFFF742FE1CBD0000280000201D
:104190002DE9F047884601B200EE101A00142DED0B
:1041A0000C8BB8EEC00A91460FFA88F260EE000A56
:1041B00000EE100ADDE91454B8EEC01A00EE100A41
:1041C000B8EEC00A41EE000A12FB02F600EE106AD9
:1041D000B8EEC00A30EE800AB5EEC00AF1EE10FA71
:1041E0007DDBF1EEC00A1FB21E1400EE107A01EE64
:1041F000106A2DB2B8EEC00AF8EEC11A01EE106ACC
:1042000020EE000AB8EEC11A01EE810A01EE105A42
:10421000F8EEC11A01EE105AB8EEC11A01EE810A89
:10422000B5EEC00AF1EE10FA7EDBB1EEC08A00EE08
:10423000101AB8EEC00AB1EE400A80EE201A00EE65
:10424000100AB8EEC00A84ED001A80EE201A00EEC3
:10425000102AB8EE400A84ED011A80EE201A84ED8F
:10426000021A9FED4ECBB0EE4C1AF0EE6C1A9FED99
:104270004DDBB0EE4D0AF0EE6D0AFEF769FD9FEDE5
:104280004B9B51EC100B53EC192B00F05FFC41ECF5
:104290001A0B4FEA284000F0F2FB53EC1A2B00F007
:1042A00055FC9FED44AB53EC1A2B00F063FA00F081
:1042B00073F9B0EE4C1AF0EE6C1AB0EE4D0AF0EE57
:1042C0006D0AA061FEF744FD53EC192B51EC100B65
:1042D00000F03CFC41EC1B0B0FFA89F000E05BE0C6
:1042E00000EE100AB8EEC00AB1EE402A12EE100A33
:1042F00000F022FF53EC1B2B00F028FC53EC1A2B90
:1043000000F038FA00F048F9B0EE4C1AF0EE6C1AF2
:10431000B0EE4D0AF0EE6D0AE061FEF719FD53ECC8
:10432000192B51EC100B00E037E000F00FFC41ECD2
:10433000190B4FEA294000EE100AB8EEC00AB1EEA0
:10434000400A10EE100A00F0F7FE53EC192B00F0B3
:10435000FDFB53EC1A2B00F00DFA00F01DF900EEF6
:10436000107A2062B8EEC00AC0EE080A00EE106AA9
:10437000B8EEC00AC4ED030AC0EE080A00EE105AF7
:10438000B8EEC00AC4ED040AC0EE080AC4ED050A7E
:10439000BDEC0C8BBDE8F087FEE7FEE700000000F7
:1043A0000000F03F0000000000000040ED7BA8BAD4
:1043B0002D74213F0000000000408F4000B52DED1E
:1043C000048B83B041EC190B00F000FD41EC180B9D
:1043D00018EE100A18EE901A8DED008B002818BF09
:1043E0000120084320F00040C0F17F6000F1E04070
:1043F000C00F14D019EE101A19EE900A8DED009B23
:10440000002918BF0121084320F00040C0F17F605F
:1044100000F1E040C00F04BF0120FCF703F851ECAD
:10442000180B03B0BDEC048B00BD00000FB410B539
:104430002DED048B0F9C94ED010AFCF783F8B0EE90
:10444000401A94ED010AB0EE419AFCF72FF8F0EE15
:10445000400A94ED020AB0EE608AFCF773F8F0EEC1
:10446000400A94ED020AF0EE608AFCF71FF8C9EEEC
:10447000082ADDED0D1A9DED0E2ADDED0C0A21EE68
:10448000A81A02EE001A21EE800A02EE680A42EE35
:10449000810AD4ED022A70EEA20AC4ED020AD4ED1C
:1044A000010A30EE200AC1EE080A84ED010A94EDFB
:1044B000001A70EE810AC4ED000AFBF7F7FFB5EEB3
:1044C000C00AF1EE10FA13D2D4ED010A9FED280ACA
:1044D00070EE600AC4ED010AD4ED020A70EE800AA3
:1044E000C4ED020AD4ED000A30EE800A84ED000A21
:1044F000D4ED020A1F4810EE901A9FED1F0A814268
:1045000003DD70EEC00AC4ED020A10EE902A1B49CA
:104510008A4203D970EE800AC4ED020AD4ED010A82
:1045200010EE902A824203DD70EEC00AC4ED010A4B
:1045300010EE902A8A4203D970EE800AC4ED010A77
:10454000D4ED000A10EE902A824203DD70EEC00A1C
:10455000C4ED000A10EE900A884203D930EE800ABA
:1045600084ED000ABDEC048B10BC5DF814FB000068
:10457000DB0F4940DB0F4940DB0FC940DB0F49C06F
:1045800081F00041704780F00040704721F0004109
:10459000704720F00040704721F00042A2F16052C5
:1045A000B2F5801F01F0004328BFD2F17F6C0BD918
:1045B0005FEA001C43EAC20242EB507018BF70472A
:1045C00028BF20F001007047B2F5801FBCBF18461D
:1045D00070474FEA410C1CF5001F02D2084600F05C
:1045E00021BE70B500F05CFB00000089FFF7F6BF4C
:1045F0004FF00040A0F580007047000010B591EA30
:10460000030F48BF83F0004300F1B484841A71EBB8
:10461000030C05D2121943EB0C03001B61EB0C01D8
:10462000DFF824E14FEA1154A4EB135C1EEA430FB8
:1046300018BF9EEA445F73D023EA0E03DCF1200E1C
:1046400021EA045143F4801332D322FA0CFE10EB1A
:104650000E0023FA0CFE41EB0E01CCF1200E03FA02
:104660000EFE10EB0E0051F10001B1F5801FCCF1F0
:10467000200E32D201EB045112FA0EF2BDE81040C6
:1046800058BF7047401C38BF5FEA420218BF7047EE
:10469000002814BF20F0010041F100014FEA41035E
:1046A00013F5001F38BF7047A1F1C04100F046BBB1
:1046B000012A43EB0302ACF1200CDCF11F0E32BFE8
:1046C0004FF0000E23FA0CF310EB030041EB045102
:1046D000B4EB115FD0D0A1EB045101F58011490872
:1046E0005FEA300001EB04510ED350F1000038BFF7
:1046F00012FA0EFE08D1BDE81040C9E7401C38BFD1
:104700005FEA4202CAD1C3E7BDE810404FEA410365
:1047100013F5001F38BF7047A1F1C04100F00EBB78
:104720009EEA445F08D011EA5E0FBDE8104004BF66
:1047300001F0004100207047BDE8104070B500F066
:10474000AFFA00BF64FBBE3E0000E0FF02494FF03D
:10475000000000F06CBD00BF0000F87F491058BF9A
:10476000C1F140415B1058BFC3F140438B42EFF3AE
:10477000008070472DE9C04130B4DFF8A0C23CEAA8
:10478000111418BF3CEA131400F0EC8081EA030511
:104790001CEA111444EAD57418BF1CEA131500F082
:1047A000C780A4EB05044FF0004545EAC12145EA66
:1047B000C32341EA505143EA525304F17F749942B2
:1047C00004F500344FEAC0204FEAC22208BF9042ED
:1047D00000F09C804FEA13650FF24016765D4FEAB9
:1047E000134506FB05F7C7F1807706FB07F74FEA8D
:1047F000D737A7FB03687642C8F58038A7FB06CEFB
:1048000038BFA8F1010807FB08E64FF0000EA6FB31
:10481000028CE6FB03CEDCF1000CCEF1004E38BF7B
:10482000AEF1010EA6FB0C584FF000074FF000054B
:10483000E6FB0E87A1FB08C6A0FB07CE16EB0E0613
:1048400045F10005E1FB076515F1E04E7EBFA4F5DB
:1048500080345FEA46066D4116F1800745F1000598
:104860004FEA17274FEA066647EA0567A6F1DE46D4
:10487000B6F1805F4FEA15251FD9384624F0010CA8
:1048800005EBC471BCF1FE6F01EB0C1102D8F0BC5A
:10489000BDE8008124425CBF01F5801E9EEAC47F12
:1048A00002D4F0BCBDE80081244238D4F0BCA1F1B0
:1048B000C041BDE8004100F041BA4FEAD22242EACD
:1048C00043524FEAD323A7FB02864FEAD02040EAA7
:1048D000415007FB03661EEA0E0F4FEAD12105FB8C
:1048E000026658BFA6EB0056B6EB00564FEA520ED2
:1048F0004EEAC37E18EB0E0E56EB530EBDD518EBE9
:1049000002085E417F1C55F10005B6E74FF48015A3
:104910004FF000074FF000064FF00008ADE7F0BC85
:104920004FF0000001F1C04101F00041BDE80081FD
:1049300011EA0C1F0CEA131500D00CE013EA0C1F4F
:1049400000F025804FF00000F0BC81EA030101F087
:104950000041BDE80081F0BCBDE8004181EA0301EF
:1049600000F0ECB9F0BCBDE8004170B500F098F97A
:10497000097EFC3E00F007B881EA03014FF0000019
:1049800001F00041704781EA030100F0D7B9F0BCA3
:10499000BDE800414FF0000021497047FFFDFBF9E1
:1049A000F7F5F4F2F0EEEDEBE9E8E6E4E3E1E0DE62
:1049B000DDDBDAD8D7D5D4D3D1D0CFCDCCCBCAC8D4
:1049C000C7C6C5C4C2C1C0BFBEBDBCBBBAB9B8B7FB
:1049D000B6B5B4B3B2B1B0AFAEADACABAAA9A8A8EE
:1049E000A7A6A5A4A3A3A2A1A09F9F9E9D9C9C9BBC
:1049F0009A99999897979695959493939291919067
:104A00008F8F8E8E8D8C8C8B8B8A898988888787F7
:104A10008685858484838382828181800000FF076C
:104A20000000F87F4FEA1153A3F58063D3F11E0312
:104A3000A8BFD3F1200C08DB4FF0004242EAC122AC
:104A400052EA505232FA03F0704709420BD4102B4D
:104A5000C4BF0020704703F5787CBCF1FF3F05D050
:104A60004FF0FF3070474FF00000704770B500F016
:104A700017F900BF4992248000207047F0E710F03A
:104A8000004248BF4042B0FA80F310FA03F10AD066
:104A9000C3F11D0303F580634FEA415002EB03525B
:104AA00002EBD12170474FF000007047B0FA80F35D
:104AB00010FA03F10AD0C3F11D0303F580634FEA36
:104AC00041504FEA035202EBD12170474FF00000F2
:104AD0007047000051EA030C17D41CF5801F58BF23
:104AE000BCF5801F00F10680994218BF704708BFCF
:104AF0009042704707D711F5801F58BF13F5801FEC
:104B000019D499427047894270471CF5801F08D517
:104B1000BCF5801FF7D58B4218BF704708BF824293
:104B200070474FF4001C1CEB410F38BF1CEB430FC8
:104B300001D28B42704770B500F0B2F89224490060
:104B40004FF000514FF08053FFF708BEDFF848C127
:104B500070B51CEA111E1EBF1CEA13159EEA0C0F4D
:104B600095EA0C0F00F06F8081EA030423EA4C13EE
:104B70004EEAD47E21EA4C1141F4801143F48013B3
:104B8000AE44A1FB024CA0FB0365AEF17F7E36195B
:104B900055EB0C05A1FB034C4CF10003A0FB021CE0
:104BA00016EB0C06654153F10003094218BF46F0AD
:104BB000010613F4007F0BD14FEA03314FEA0530B1
:104BC000340341EA155140EA16506FF003020AE03F
:104BD0004FEAC3214FEAC520F40241EA555140EAA9
:104BE00056506FF0020202EB2E4201EB025585EAAD
:104BF000CE710AD05FEA440C18BF24F0004450F193
:104C0000000041F1000120EAD47040F2FE7C6245D0
:104C100000D270BDA84214BF4FF080444FF0404412
:104C2000002E08BF0024BEF1806FA8BFA1F1C041D3
:104C3000BDE8704080F282804FF0000001F1C04179
:104C400001F0004170479EEA0C0F0CEA131518BFE3
:104C500095EA0C0F06D04FF0000081EA030E0EF02B
:104C6000004170BD00F01CF88900013E00F007B85B
:104C700000F009B84FEA430C5FEA5C5C08D081EAB7
:104C8000030100F05BB84FEA410C5FEA5C5CF6D1CF
:104C90004FF00000014970470000FF070000F87F57
:104CA0000EF1020E2EF0030E5EF8046B364205D4B0
:104CB000012A43EB030515F5001F12D8012841EB2B
:104CC000010C1CF5001F0CD80ED14FEAD17C15F554
:104CD000001F0CEB4C0C0CF1020C08BF4CEBD37C0E
:104CE00004E04FF0080C01E04FEAD37C0CEB4C05DC
:104CF00026FA05F606F00706B6F1040C06D20EEB0E
:104D0000860CBDE870404CF0010C6047DFE80CF009
:104D1000090B02024FF000414FF00000A1F5002105
:104D200070BD19461046012851EB010418BFD4F597
:104D3000001484BF002001F0004170BD0808A0F5F8
:104D400000114FEA3101704753EA010C17D41CF5EA
:104D5000801F58BFBCF5801F00F106808B4218BF32
:104D6000704708BF8242704707D713F5801F58BFAE
:104D700011F5801F19D48B4270479B4270471CF578
:104D8000801F08D5BCF5801FF7D5994218BF704722
:104D900008BF904270474FF4001C1CEB430F38BF14
:104DA0001CEB410F01D2994270470FB40CBC03BCFD
:104DB000FFF7C1BE91EA030F10B581F000413FF546
:104DC00025AC83F0004300F0D5B800002DE9F04198
:104DD00001F5801CBCF5001FC0F2A9804FEA115CF0
:104DE00021EA0C510CF1FD0C41F480115FEA5C0CDE
:104DF0000CF5C07C01D34000494130A4890241EA4E
:104E0000905187028E0E0A0CA45D04FB04F602FB8F
:104E100006F6C6F14046A4FB0662F60D46EA4226B7
:104E200006FB06F4A4FB01235242C3F1404338BF02
:104E30005B1EA6FB02420024E6FB0324D20B42EADF
:104E40004446A6FB0623A1FB02E2A3FB07E4E3FB27
:104E500061426442C2F1404E38BFAEF1010EA6FB82
:104E600004234FF00002E6FB0E32A2FB034634009F
:104E7000E2FB6264A1FB06E6A4FB07E8E4FB6168D1
:104E80007642C8F1405838BFA8F10108A2FB06E4F9
:104E9000A3FB08E5E2FB6854A1FB05E6A7FB04E8D9
:104EA000E1FB648618F1200556F10006A809A8F177
:104EB0001B08B10908F03F08B8F10A0F40EA866004
:104EC0001CD901EB0C51BDE8F08100BFFCF5EEE808
:104ED000E2DDD8D3CFCBC7C3C0BDB9B6B4B1AEAC99
:104EE000A9A7A5A3A19F9D9B9A9896959392908F11
:104EF0008D8C8B898887868584838281A0FB00685E
:104F000000FB01F208EB4208B8EB872807D53418FC
:104F100058EB0104D5D5401C51F10001D1E7341AFA
:104F200078EB0104CDD4401E71F10001C9E75FEABE
:104F30004C0C5FEA9C5C0DD105D34FF0000001F0F2
:104F40000041BDE8F081BDE8F04170B5FFF7A8FE73
:104F50006DDBFFBEBDE8F0414FF000000049704737
:104F60000000F87F10B591EA030F48BF83F00043BB
:104F70003FF54CAB841A71EB030C07D212198CF07D
:104F8000004C43EB0C03001B61EB0C01DFF8A4E1C8
:104F90004FEA1154A4EB135C1EEA430F18BF9EEABC
:104FA000445F00F0B08023EA6E03524221EA0451CC
:104FB000C3EB6E0338BF5B1EDCF1200E25D322FA53
:104FC0000CFE10EB0E0043FA0CFE41EB0E01CCF18F
:104FD000200E03FA0EFE10EB0E0051F10001CCF191
:104FE000200E29D412FA0EF201EB0451BDE8104054
:104FF00058BF7047401C1CBFB2F1004F70470028DB
:105000000CBF491C20F00100704712EB020E43EB6D
:10501000030218BF4FF0010E4EEA4202ACF1200C21
:10502000DCF11E0E54D943FA0CFE10EB0E0051F1C8
:10503000FF31CCF11E0ED5D50EF1010E12FA0EFE87
:10504000404141EB010101EB445C5FEA5C5C10D93B
:1050500010EBDE7001EB045138BFBEF1004FBDE82C
:10506000104018BF704700280CBF491C20F00100F9
:10507000704730D24FEAD42C11F5001124F40064AB
:105080001BD0B1FA81F20B3AA41AA41ED2F120036C
:10509000914030FA03F31943904001EBCC71002C9E
:1050A00001EB0451BDE81040A8BF704701F1C041B9
:1050B0004FF0000001F000417047B0FA80F310FAA1
:1050C00003F100D110BDE41A173C4805C90AE4E712
:1050D00001EB045110BD491001EB0451BDE8104033
:1050E0004FEA300002E04FF0000170474A0008BF6D
:1050F0000042F8D0B2F5001F28BF704701F0004110
:105100004FF0000070479EEA445F07D011EA5E0F3F
:10511000BDE8104004BF002100207047BDE81040EA
:1051200070B5FFF7BDFD00BF40DFF63E83F00041E4
:10513000104670470000E0FF43004FEAD30C4FEAEF
:105140003C0C43401FBF40070CF1605113F0FE4F71
:1051500070471CF0006F03D100200CF00041704735
:105160000CF0004343EA507010B540EACC0000F068
:105170000EF800BF000000924FEA0001FFF7DEBD0D
:105180004FF000414FF00000A1F5002170470EF1F3
:10519000020E2EF0030E5EF8044B244204D44FEAB4
:1051A0004102B2F17F4F11D84FEA4003B3F17F4F74
:1051B0000CD80ED14FEAD07CB2F17F4F0CEB4C0CE7
:1051C0000CF1020C08BF4CEBD17C04E04FF0080C52
:1051D00001E04FEAD17C0CEB4C0324FA03F404F019
:1051E0000704B4F1040C06D20EEB840CBDE81040A9
:1051F0004CF0010C6047DFE80CF0070802024FF0AA
:105200000040A0F5800010BD0846420018BFD2F152
:10521000807288BF00F0004010BD4FF04070E1EE9A
:10522000100A7047FF2141EAD050C00570470CF0CA
:105230000F03092B08BF082000F059800A2B0BD060
:10524000082B18BF704708BF1CF0400F0AD04FF062
:1052500000004FF0000170471CF0400F18BF4FF0E6
:10526000004070471CF0100F08D020F0704300F091
:105270007F4242EAD3014FEA4370704700F060403A
:1052800021F07F4242EA000201F07F4040EA727062
:1052900070474FF0FF0C4CF4E06C1CEA11531CBF3C
:1052A0009CEA030C9445C2BFDA4201EB02517047FD
:1052B000002B0DD0BCF1000F0FD0002A01F00041EF
:1052C000A4BF41F0E04141F07F614FF00000704722
:1052D00001F000414FF00000704750EA01334FF0F9
:1052E0009B0C18BF4CF0806C7FF430AA70471CF404
:1052F000801F11D01CF4E02F03D06FEACC3149009D
:1053000070474FF04050EFF3008222F0704242EAC3
:10531000000282F3008870474FF0000070470006DB
:105320001016000610160000000000000000010228
:10533000030406070809000000000102030400003E
:10534000000000000000F03F000000000000F83FF7
:1053500000000000000000000000004003B8E23F31
:10536000000000000000000006D0CF43EBFD4C3EE3
:10537000033333333333E33FFFAB6FDBB66DDB3FD8
:105380004D268F515555D53F01411DA96074D13F20
:1053900065DBC9934A86CD3FEF4E454A287ECA3F1A
:1053A0003E5555555555C53F93BDBE166CC166BF9C
:1053B0002CDE25AF6A56113FF16BD2C541BDBBBE95
:1053C000D0A4BE726937663E4FBB610567ACDD3F56
:1053D000182D4454FB21E93F9BF681D20B73EF3F1C
:1053E000182D4454FB21F93FE2652F227F2B7A3C94
:1053F000075C143326A6813CBDCBF07A8807703C4D
:10540000075C143326A6913CC4EB98999999C9BFBF
:10541000711623FEC671BCBF6D9A74AFF2B0B3BFF4
:105420009AFDDE522DDEADBF2F6C6A2C44B4A2BFB4
:105430000D5555555555D53FFF8300922449C23F20
:105440006E204CC5CD45B73F513DD0A0660DB13F54
:10545000EB0D76244B7BA93F11DA22E33AAD903F66
:10546000000000000000000000000000920E493C17
:10547000B10AC93C2BC3163D2EFB483D752B7B3D25
:1054800004A9963D80B6AF3D36BDC83D2FBCE13D79
:1054900073B2FA3D87CF093E8340163EB5AB223E3C
:1054A000A2102F3ECF6E3B3EC2C5473E0115543E73
:1054B000135C603E7F9A6C3ECCCF783EC07D823ECE
:1054C000938E883E229A8E3E32A0943E86A09A3ECB
:1054D000E59AA03E128FA63ED47CAC3EEF63B23E6E
:1054E0002A44B83E491DBE3E15EFC33E53B9C93EDE
:1054F000CA7BCF3E4136D53E80E8DA3E4F92E03E51
:105500007533E63EBBCBEB3EEA5AF13ECBE0F63ECE
:10551000275DFC3EE4E7003F3D9C033F824B063F96
:105520009BF5083F6B9A0B3FDA390E3FCDD3103F06
:105530002A68133FD9F6153FC07F183FC6021B3FAC
:10554000D17F1D3FCBF61F3F9967223F25D2243FD5
:105550005636273F1594293F4AEB2B3FDE3B2E3F23
:10556000BB85303FC9C8323FF304353F233A373F4C
:105570004268393F3B8F3B3FF9AE3D3F67C73F3FF6
:1055800070D8413F01E2433F03E4453F65DE473FBA
:1055900012D1493FF8BB4B3F029F4D3F207A4F3F0E
:1055A0003D4D513F4918533F31DB543FE595563F40
:1055B0005348583F6AF2593F1A945B3F532D5D3F61
:1055C00005BE5E3F2146603F97C5613F5A3C633F41
:1055D00059AA643F880F663FD86B673F3CBF683F5E
:1055E000A7096A3F0C4B6B3F5E836C3F93B26D3FE4
:1055F0009ED86E3F73F56F3F0809713F5213723F9B
:105600004714733FDD0B743F0BFA743FC6DE753FE2
:1056100007BA763FC58B773FF853783F9812793FAA
:105620009DC7793F02737A3FBE147B3FCDAC7B3F71
:10563000283B7C3FC9BF7C3FAC3A7D3FCCAB7D3F34
:1056400023137E3FB0707E3F6DC47E3F580E7F3F78
:105650006D4E7F3FAB847F3F0FB17F3F97D37F3F3E
:1056600043EC7F3F11FB7F3F0000803F11FB7F3FFA
:1056700043EC7F3F97D37F3F0FB17F3FAB847F3FAA
:105680006D4E7F3F580E7F3F6DC47E3FB0707E3FB2
:1056900023137E3FCCAB7D3FAC3A7D3FC9BF7C3FFF
:1056A000283B7C3FCDAC7B3FBE147B3F02737A3FEF
:1056B0009DC7793F9812793FF853783FC58B773F64
:1056C00007BA763FC6DE753F0BFA743FDD0B743FB9
:1056D0004714733F5213723F0809713F73F56F3FD0
:1056E0009ED86E3F93B26D3F5E836C3F0C4B6B3F19
:1056F000A7096A3F3CBF683FD86B673F880F663F8A
:1057000059AA643F5A3C633F97C5613F2146603FB9
:1057100005BE5E3F532D5D3F1A945B3F6AF2593FD1
:105720005348583FE595563F31DB543F4918533FA6
:105730003D4D513F207A4F3F029F4D3FF8BB4B3FBD
:1057400012D1493F65DE473F03E4453F01E2433F55
:1057500070D8413F67C73F3FF9AE3D3F3B8F3B3F6E
:105760004268393F233A373FF304353FC9C8323FD7
:10577000BB85303FDE3B2E3F4AEB2B3F1594293F44
:105780005636273F25D2243F9967223FCBF61F3F4D
:10579000D17F1D3FC6021B3FC07F183FD9F6153F82
:1057A0002A68133FCDD3103FDA390E3F6B9A0B3F77
:1057B0009BF5083F824B063F3D9C033FE4E7003FDB
:1057C000275DFC3ECBE0F63EEA5AF13EBBCBEB3E1A
:1057D0007533E63E4F92E03E80E8DA3E4136D53EF4
:1057E000CA7BCF3E53B9C93E15EFC33E491DBE3EED
:1057F0002A44B83EEF63B23ED47CAC3E128FA63E44
:10580000E59AA03E86A09A3E32A0943E229A8E3E11
:10581000938E883EC07D823ECCCF783E7F9A6C3E90
:10582000135C603E0115543EC2C5473ECF6E3B3E01
:10583000A2102F3EB5AB223E8340163E87CF093ED5
:1058400073B2FA3D2FBCE13D36BDC83D80B6AF3DD9
:1058500004A9963D752B7B3D2EFB483D2BC3163D81
:10586000B10AC93C920E493C00000000920E49BCAE
:10587000B10AC9BC2BC316BD2EFB48BD752B7BBD21
:1058800004A996BD80B6AFBD36BDC8BD2FBCE1BD75
:1058900073B2FABD87CF09BE834016BEB5AB22BE38
:1058A000A2102FBECF6E3BBEC2C547BE011554BE6F
:1058B000135C60BE7F9A6CBECCCF78BEC07D82BECA
:1058C000938E88BE229A8EBE32A094BE86A09ABEC7
:1058D000E59AA0BE128FA6BED47CACBEEF63B2BE6A
:1058E0002A44B8BE491DBEBE15EFC3BE53B9C9BEDA
:1058F000CA7BCFBE4136D5BE80E8DABE4F92E0BE4D
:105900007533E6BEBBCBEBBEEA5AF1BECBE0F6BECA
:10591000275DFCBEE4E700BF3D9C03BF824B06BF92
:105920009BF508BF6B9A0BBFDA390EBFCDD310BF02
:105930002A6813BFD9F615BFC07F18BFC6021BBFA8
:10594000D17F1DBFCBF61FBF996722BF25D224BFD1
:10595000563627BF159429BF4AEB2BBFDE3B2EBF1F
:10596000BB8530BFC9C832BFF30435BF233A37BF48
:10597000426839BF3B8F3BBFF9AE3DBF67C73FBFF2
:1059800070D841BF01E243BF03E445BF65DE47BFB6
:1059900012D149BFF8BB4BBF029F4DBF207A4FBF0A
:1059A0003D4D51BF491853BF31DB54BFE59556BF3C
:1059B000534858BF6AF259BF1A945BBF532D5DBF5D
:1059C00005BE5EBF214660BF97C561BF5A3C63BF3D
:1059D00059AA64BF880F66BFD86B67BF3CBF68BF5A
:1059E000A7096ABF0C4B6BBF5E836CBF93B26DBFE0
:1059F0009ED86EBF73F56FBF080971BF521372BF97
:105A0000471473BFDD0B74BF0BFA74BFC6DE75BFDE
:105A100007BA76BFC58B77BFF85378BF981279BFA6
:105A20009DC779BF02737ABFBE147BBFCDAC7BBF6D
:105A3000283B7CBFC9BF7CBFAC3A7DBFCCAB7DBF30
:105A400023137EBFB0707EBF6DC47EBF580E7FBF74
:105A50006D4E7FBFAB847FBF0FB17FBF97D37FBF3A
:105A600043EC7FBF11FB7FBF000080BF11FB7FBFF6
:105A700043EC7FBF97D37FBF0FB17FBFAB847FBFA6
:105A80006D4E7FBF580E7FBF6DC47EBFB0707EBFAE
:105A900023137EBFCCAB7DBFAC3A7DBFC9BF7CBFFB
:105AA000283B7CBFCDAC7BBFBE147BBF02737ABFEB
:105AB0009DC779BF981279BFF85378BFC58B77BF60
:105AC00007BA76BFC6DE75BF0BFA74BFDD0B74BFB5
:105AD000471473BF521372BF080971BF73F56FBFCC
