:020000040800F2
:10000000C0070020350200080B1A0008C5190008B7
:10001000091A00082B040008451D00080000000014
:10002000000000000000000000000000AD1C0008FF
:10003000E9040008000000000D1A0008AF1C0008C9
:100040004F0200084F0200084F0200084F0200084C
:100050004F0200084F0200084F0200084F0200083C
:100060004F0200084F0200084F0200084F0200082C
:100070004F0200084F0200082D0400083904000850
:100080004F0200084F0200084F0200080000000065
:100090000000000000000000000000004F02000807
:1000A0004F0200084F0200084F0200084F020008EC
:1000B0004F0200084F0200084F0200084F020008DC
:1000C0004F0200084F0200084F0200084F020008CC
:1000D000111A00084F0200084F020008000000003B
:1000E0004F0200084F0200084F0200080000000005
:1000F0000000000000000000000000004F020008A7
:10010000000000004F0200084F0200084F020008E4
:1001100000000000000000000000000000000000DF
:100120004F0200084F0200084F0200084F0200086B
:100130004F02000800000000000000000000000066
:100140000000000000000000000000004F02000856
:100150004F0200084F0200084F0200084F0200083B
:100160004F0200084F0200080000000000000000DD
:10017000000000000000000000000000000000007F
:10018000000000004F020008000000000000000016
:100190004F02000800F002F800F03CF80AA090E8D6
:1001A000000C82448344AAF10107DA4501D100F032
:1001B00031F8AFF2090EBAE80F0013F0010F18BFC3
:1001C000FB1A43F00103184764200000842000005C
:1001D000103A24BF78C878C1FAD8520724BF30C873
:1001E00030C144BF04680C60704700000023002445
:1001F00000250026103A28BF78C1FBD8520728BF37
:1002000030C148BF0B6070471FB501F0FDFF1FBD37
:1002100010B510BD00F0CFF81146FFF7F5FF01F063
:10022000DDFE00F0EDF803B4FFF7F2FF03BC00F0D1
:10023000F5F800000948804709480047FEE7FEE757
:10024000FEE7FEE7FEE7FEE7FEE7FEE7FEE7FEE786
:1002500004480549054A064B70470000351D000853
:1002600095010008C0010020C0070020C003002045
:10027000C003002053EA020C00F069802DE9F04B26
:100280004FF00006002B1FBFB3FA83F503FA05F405
:1002900024FA05F65E4012BF1643B2FA82F502FA5E
:1002A00005F4C5F120051EBF22FA05FC44EA0C0442
:1002B000203556EA044C4FEA144418BF641C4FF032
:1002C00000084FF00009904271EB030C39D300296C
:1002D00019BFB1FA81F701FA07F6B0FA80F700FA10
:1002E00007F6C7F120071EBF20FA07FC46EA0C06F6
:1002F0002037B6FBF4FCA7EB0507103F07F01F0BF8
:10030000CBF120060CFA0BFB2CFA06F644BFB346E1
:100310000026202FA4BF5E464FF0000B5BEA060CC0
:1003200008BF4FF0010B19EB0B09ABFB027C48EB4C
:100330000608C01B06FB02CC0BFB03CC71EB0C01C7
:10034000C1E70B46024641464846BDE8F08B13B56F
:100350004FF000004FF00001AFF30080BDE81C40FB
:1003600070474FF0000200B5134694469646203978
:1003700022BFA0E80C50A0E80C50B1F12001BFF45E
:10038000F7AF090728BFA0E80C5048BF0CC05DF8C4
:1003900004EB890028BF40F8042B08BF704748BF12
:1003A00020F8022B11F0804F18BF00F8012B704786
:1003B000704770477047754600F02CF8AE46050050
:1003C0006946534620F00700854618B020B5FFF770
:1003D0003FFFBDE820404FF000064FF000074FF010
:1003E00000084FF0000B21F00701AC46ACE8C00953
:1003F000ACE8C009ACE8C009ACE8C0098D4670475C
:1004000010B50446AFF300802046BDE81040FFF76A
:100410000ABF0000004870475C0100200149182015
:10042000ABBEFEE7260002007047FEE7014800F081
:1004300071B8000084000020014800F06BB8000093
:10044000E400002001681823CAB2103AB2FBF3F2AC
:10045000054B6FF30901032A9B5CC36500D9091D95
:1004600081650846704700001222000810B5014659
:1004700000208B698A6A4FF0C07453B1B3F5005FF6
:1004800015D072B1012A0CD0022A0AD0032A09D150
:1004900004E01AB1012A06D0022A03D1C96AC901AF
:1004A00000D5012010BDC96AA142FAD010BD002AB2
:1004B000F7D0012AF2D0022AF3D0032AF3D010BDDC
:1004C00030B50468256825F48025256004686360DC
:1004D0008368402B036803D099600068C26030BD18
:1004E0009A600068C16030BD704772B6FEE790F850
:1004F0003510022903D08021416501207047052174
:1005000080F835100068016821F0010101600020C9
:10051000704700002DE9F84304464FF00009CDF87C
:10052000009063484FF41651A56D0068B0FBF1F7D9
:100530002E6894F85C10082000FA01F131420FD0C7
:1005400021680A6852070BD50A6822F004020A6083
:1005500094F85C108840A860606D40F00100606510
:1005600094F85C104FF0010808FA01F0304208D00E
:1005700021684969090604D5A860606D40F0020051
:10058000606594F85C1004208840304208D02168EF
:100590000968890704D5A860606D40F004006065B3
:1005A00094F85C1010208840304218D02168096807
:1005B000090714D5A86020680168490304D50068BC
:1005C000000308D5A16C07E00168C90503D40168E0
:1005D00021F008010160216C09B12046884794F898
:1005E0005C1020208840304231D021680968C9065B
:1005F0002DD5A86094F8350005282068016806D03C
:10060000490347D5006800031DD4616C1CE021F04C
:10061000160101602068416921F080014161206C70
:1006200008B9A06C20B12068016821F008010160C0
:1006300094F85C103F208840A86084F8358084F8E6
:100640003490216D1FE0E16B09B120468847606D51
:1006500000282BD0606DC00714D0052084F8350029
:100660002068016821F0010101600098401C0090A1
:10067000B84203D820680068C007F6D184F83580F6
:1006800084F83490E16C002910D001B02046BDE818
:10069000F04308470168C905D5D4016821F010016D
:1006A000016084F8358084F83490CCE7BDE8F883A5
:1006B0001C0000202DE9F041044600F0A5F9064693
:1006C0005CB1022084F83500002584F8345020689D
:1006D000016821F0010101600DE00120BDE8F08119
:1006E00000F092F9801B052805D9202060650320C1
:1006F00084F83500F2E720680068C007F0D122686E
:10070000116820480140D4E901031843D4E90336B5
:100710003343184363691843A3691843E3691843D3
:10072000236A18430843616A042903D1D4E90B13EF
:1007300019430843106020684069666A20F0070189
:1007400030460E43012704280CD1A06A0643E06A14
:1007500040B12046FFF78AFE20B14020606584F852
:100760003570BAE7206846612046FFF76BFE94F8C3
:100770005C203F2191408160656584F835700020E0
:10078000ACE700003F8010F02DE9F0410446866D93
:1007900090F83400002501280DD0012084F83400A1
:1007A00094F835700020012F07D084F8340002251A
:1007B0002846BDE8F0810220FBE7022784F8357067
:1007C00060652046FFF77CFE94F85C103F2088406F
:1007D000B0602068016841F016010160206C20B112
:1007E0002068016841F0080101602068016841F05B
:1007F00001010160DCE7000070B5044600F004F977
:100800000546601C02D004480078044400F0FCF85F
:10081000401BA042FAD370BD100000202DE9F84F14
:10082000DFF8B8A10022012403254FF00F090AF1D7
:10083000040BAAF1040E00BF0B6804FA02F6334061
:10084000B34273D10F7907F00307012F01D0022FB4
:1008500016D187684FEA420805FA08FC27EA0C0718
:10086000D1F80CC00CFA08FC4CEA070CC0F808C020
:100870004768B7430E79C6F3001696403E4346607C
:100880000E79F643B6070DD0C768560005FA06FC88
:1008900027EA0C07D1F808C00CFA06FC4CEA070C52
:1008A000C0F80CC00E7906F00306022E10D1D6084F
:1008B00000EB8608D8F8206057074FEAD76C09FA92
:1008C0000CF7BE430F6907FA0CF73743C8F82070DE
:1008D00006684FEA420C05FA0CF7BE430F7907F0A1
:1008E000030707FA0CF7374307604E6816F4403FDA
:1008F0006DD03B4E376847F480473760366822F04A
:10090000030706F480460096364E07EB060CDCF82B
:10091000086897073F0F09FA07F826EA0806DFF884
:10092000C880404503D14FF000081EE04FE0DFF8DB
:10093000BC80404502D14FF0010816E0DFF8B080DE
:10094000404502D14FF002080FE0DFF8A880404593
:1009500002D14FF0030808E0DFF89C80404502D147
:100960004FF0040801E04FF0070808FA07F848EADA
:100970000608CCF80888DAF800605746D1F804C0B9
:100980009E435FEACC2C00D51E433E60DBF800603E
:100990005F46D1F804C09E435FEA8C2C00D51E430D
:1009A0003E60DEF800607746D1F804C09E435FEAFF
:1009B0008C3C00D51E433E60084F083F3E68D1F88E
:1009C00004C09E435FEACC3C00D51E433E60521CEF
:1009D000102AFFF431AFBDE8F88F0000083C014059
:1009E0004438024000300140000002400004024050
:1009F00000080240000C0240001002400AB1816170
:100A000070470904FBE70000014880687047000058
:100A1000100000200248816802781144816070470C
:100A2000100000200B4810B5016841F4007101600E
:100A3000016841F480610160016841F480710160E6
:100A4000032000F06FF80F2000F006F800F024F803
:100A5000002010BD003C024070B50D4D04464FF41F
:100A60007A712878B1FBF0F00A490968B1FBF0F01F
:100A700000F094FF48B9102C07D200222146501EE6
:100A800000F030F800206C6070BD012070BD0000E7
:100A9000100000201C0000200A4808B5016841F43D
:100AA00080410160006800F4804000900548001F0C
:100AB000016841F080510160006800F080500090B2
:100AC00008BD000044380240002809DB00F01F0286
:100AD000012191404009800000F1E020C0F80011A0
:100AE00070470000F0B40E4B1B680C46C3F30223A2
:100AF000C3F10705042D00D90425191D072901D2CA
:100B0000002300E0DB1E012606FA05F1491E214004
:100B100099409E40761E16403143F0BC01F013B957
:100B20000CED00E0064900F0070208684FF6FF03ED
:100B3000184040EA0220034A104308607047000052
:100B40000CED00E00000FA052DE9F0470E46050027
:100B500065D0DFF81481D8F80000F7B200F0070084
:100B6000B04207D288F80070D8F8000000F0070003
:100B7000B04254D128683D4C810712D5400703D5B7
:100B8000206840F4E05020602878000703D52068F2
:100B900040F4604020602068A96820F0F00008431D
:100BA00020602878C0072DD03049686808390128AE
:100BB00012D0022813D0032811D009688907002910
:100BC0002DDA216821F0030101432160FFF71CFFAA
:100BD000814641F2883A0EE009688903EFE7096827
:100BE0008901ECE7FFF710FFA0EB0901514502D99D
:100BF0000320BDE8F0872068696800F00C00B0EBC6
:100C0000810FEFD1D8F80010404601F00701B14242
:100C100007D90770006800F00700B04201D001203A
:100C2000E7E72878400705D52068E96820F4E05018
:100C3000084320602878000706D52068296920F439
:100C4000604040EAC100206000F018F82168084ABE
:100C5000C1F30311515CC8400649086006480068AA
:100C6000FFF7FAFE0020C4E7003C024008380240CB
:100C70001A2200081C00002014000020154810B59E
:100C8000006810F00C02144813D01449042A0FD045
:100C9000082A0ED10F4C241F2268236802F03F025D
:100CA0005B0207D52068C0F38810A0FB010106E0B5
:100CB000084610BD2168C1F38811A1FB0001002383
:100CC000FFF7D8FA2168C1F30141491C4900B0FB84
:100CD000F1F010BD083802400024F40040787D0196
:100CE0002DE9F84F04006ED02078DFF84C93C00750
:100CF000A9F104054AD009F104000168C1F381019A
:100D0000012908D00068C0F3810002280AD1D9F86F
:100D10000000400206D52868800337D560680028A7
:100D2000E1D033E06068B0F5803F10D0B0F5A02F7F
:100D3000286810D020F480302860286820F48020B3
:100D400028606068A8B1FFF75FFE06460DE02868DE
:100D500040F48030F4E740F480202860F7E700BFDB
:100D6000FFF752FE801B642873D828688003F7D5EC
:100D70000CE0FFF749FE064605E000BFFFF744FE22
:100D8000801B6428F0D828688003F7D42078DFF827
:100D9000AC8280074FF0000A3ED5A748001D0168CD
:100DA00011F00C0F08D00068C0F3810002280BD1AD
:100DB000D9F80000400207D42868800716D5E068FB
:100DC000012800D112E033E1E068B8B10120C8F891
:100DD0000000FFF719FE064605E000BFFFF714FE0E
:100DE000801B0228C0D828688007F7D528682169A9
:100DF00020F0F80040EAC10028600DE0C8F800A02B
:100E0000FFF702FE064604E0FFF7FEFD801B022806
:100E10001FD828688007F7D42078000722D5864F8E
:100E200087486169703771B101210160FFF7ECFDFE
:100E3000064604E0FFF7E8FD801B022809D8386861
:100E40008007F7D50EE0C0F800A0FFF7DDFD0646ED
:100E500005E082E0FFF7D8FD801B02287DD83868C6
:100E60008007F7D42078400768D5DFF8CCB1002799
:100E70000BF13C0BDBF80000C0000BD4DBF80010DA
:100E800041F08051CBF80010DBF80000012700F0A2
:100E9000805000906B4E3068C00510D4306840F42C
:100EA00080703060FFF7B0FD009005E0FFF7ACFD0B
:100EB0000099401A022850D83068C005F6D55E4E19
:100EC000A0686C3601280FD00528306810D020F0BB
:100ED00001003060306820F004003060A068B8B1D4
:100EE000FFF792FD00900FE0306840F00100F4E75A
:100EF00040F004003060F7E7FFF786FD0099411AE3
:100F000041F28830814266D830688007F4D50EE01F
:100F1000FFF77AFD009007E0FFF776FD0099411A90
:100F200041F28830814256D830688007F4D42FB11E
:100F3000DBF8001021F08051CBF80010A069C8B395
:100F40003D49091D0968C1F3810102294AD00228DF
:100F5000504607D0C8F8600000E03CE0FFF754FDC1
:100F600004463BE04746C8F86000FFF74DFD0646E3
:100F700005E000BFFFF748FD801B02282BD828683A
:100F80008001F7D4D4E907010843A16A2E4A490831
:100F900002EB0141626A41EA8211084394F82C1085
:100FA00040EA0161C9F8001001203866FFF72CFD06
:100FB000044606E03EE000BFFFF726FD001B0228C6
:100FC00009D828688001F7D534E000BFFFF71CFD81
:100FD000001B022802D90320BDE8F88F2868800191
:100FE000F4D427E00128F7D0D9F80000E26900F432
:100FF000800191421CD1226A00F03F01914217D139
:1010000047F6C071626A0140B1EB821F10D1A26A3B
:101010004FF0FF3300F4403103EB5202B1EB024FCB
:1010200006D194F82C1000F07060B0EB016F01D085
:101030000120D1E70020CFE70438024000004742FA
:10104000800E4742007000400000FFFF7047000024
:1010500038B5016804464A688868C043430606D527
:10106000C30704D1D3435B0601D4216C05E0830799
:1010700008D4D3431B0605D4616C01B02046BDE8FB
:1010800030400847830603D5430601D5C30551D434
:10109000D3439B064ED443060AD494F85130032B15
:1010A00049D0636D43F004036365CB688B6800939C
:1010B000830609D4636D43F0010363658B68009375
:1010C0000B6823F040030B60C00506D4606D40F050
:1010D00008006065206880680090606D002829D055
:1010E0002068416821F0E0014160012084F851004E
:1010F000900701D4D00722D02068416821F0030175
:101100004160114DE06C40B10565E06CFFF7EFF90F
:1011100018B1606D40F040006065A06C002809D0F7
:101120000565A06CFFF7E3F9002803D0606D40F07F
:101130004000606538BDC8688868009038BD2046AA
:10114000FFF784FF38BD00001D1A000870B50400C9
:1011500009D0606A002540B125616561A56294F8F7
:10116000510040B10CE0012070BD6068B0F5827F95
:10117000F4D0E561F2E784F85050204600F044F8DE
:10118000022084F851002068016821F040010160CC
:10119000A088218900F4827001F404410843A189E8
:1011A00001F400610843217C01F002010843217D24
:1011B00001F001010843218B01F400710843217FF4
:1011C00001F03801084394F8201001F08001084331
:1011D000218D01F40051084321680860A0690421B1
:1011E00001EA104094F8241001F01001084321682E
:1011F00048602068C16921F40061C1616565012012
:1012000084F85100002070BDF0B587B00646142167
:101210006846FFF7A6F82D493068884253D12C481C
:101220000024016841F480410160006800F48040BE
:10123000059027481038016841F0020101600068FC
:10124000694600F0020005904FF4444000900220EF
:10125000CDE9010403200390052004901D48FFF709
:10126000DDFA1E4D1C48C5E900040715AC60C5E950
:1012700003476C61AC61EC612C6228466C62FFF73D
:1012800019FA08B1FFF731F9F564AE631248144D4D
:101290001830E5E80204402091C5114845F814498A
:1012A000AC61EC612C626C62FFF704FA08B1FFF7E5
:1012B0001CF9B564002211462420AE63FFF712FC2E
:1012C0002420FFF701FC07B0F0BD0000003800400B
:1012D0004038024000040240586002408400002070
:1012E000E40000202DE9F84F044690F851001D4617
:1012F00016460F46012838D1002F77D0002E75D022
:1013000060684FF00408B0F5827F01D1A06810B387
:10131000FFF77AFB824694F85000012825D04FF061
:10132000010984F8509084F851804FF00008C4F807
:101330005480A763A687E687C4F83080A4F8348079
:10134000A4F83680C4F84080C4F84480A068B0F5A2
:10135000004F0CD015E084F85180009313460A46E4
:10136000204600F099F9BDE8F88F0220FBE72068DD
:10137000016821F0400101602068016821F480418A
:10138000016020680168490603D4016841F040010A
:101390000160E068C0B134E020688168C90709D005
:1013A000007BA16B0870A06B401CA063E08F401E07
:1013B000E08709E0FFF728FBA0EB0A00A84202D370
:1013C000681C01D032E085B3E08F0028E4D11BE037
:1013D00020688168C9070AD0C068A16B0880A06B2B
:1013E000801CA063E08F401EE0870AE01BE0FFF74F
:1013F0000BFBA0EB0A00A84202D3681C01D015E049
:101400009DB1E08F0028E3D152462946204600F0E6
:101410008AFB08B12020606584F8519084F85080E0
:10142000606D00289FD001209DE7FFE784F8519070
:1014300084F85080032096E770B5044690F8510078
:1014400001282AD121B11AB1A068042310B105E006
:10145000012070BD6568B5F5827F15D094F85050B5
:10146000012D1AD0012584F8505084F85130002500
:101470006565A163A287E28725646564A586E58624
:10148000B0F5004F0BD014E084F851302046BDE891
:10149000704013460A4600F0F7B9022070BD20687C
:1014A000016821F0400101602068016821F4804159
:1014B0000160E16C17480864E16C1748C863E16C8F
:1014C0001648C864E06C0565E38F2168A26B0C3197
:1014D000E06CFFF759F930B1606D40F010006065C5
:1014E00084F85050B4E720680168490603D40168C5
:1014F00041F04001016084F850502068416841F09B
:10150000200141602068416841F0010141600020F4
:1015100070BD00004F1A0008631A00082D1A000859
:101520000249884201D100F09FBC70472C00002086
:1015300070472DE9F84F984616468A460446FFF74D
:1015400063FA814694F8510001281ED1BAF1000FC8
:1015500073D0002E71D094F85000012815D00127C7
:1015600084F85070032084F8510000256565C4F8A4
:1015700030A0A686E686A563A587E5876564256411
:10158000A068B0F5004F03D00CE00220BDE8F88F52
:101590002068016821F0400101602068016841F481
:1015A0008041016020680168490603D4016841F068
:1015B00040010160E068B0F5006F606803D048B397
:1015C000012E27D047E008B1012E1FD1206B2168E2
:1015D0000088C86006E020688168890709D5216B0A
:1015E0000988C160206B801C2063E08E401EE0866D
:1015F0000CE0FFF709FAA0EB0901414503D3B8F16C
:10160000FF3F03D035E0B8F1000F32D0E08E002864
:10161000E1D123E0206B21680078087306E02068A0
:10162000816889070AD5216B09780173206B401CFA
:101630002063E08E401EE0860DE02BE0FFF7E4F92A
:10164000A0EB0901414503D3B8F1FF3F03D010E0FF
:10165000B8F1000F0DD0E08E0028E0D14A46414697
:10166000204600F08FFA08B120206065A06830B1F4
:1016700009E084F8517084F85050032086E7206810
:10168000C1688068009084F8517004F8505F606809
:101690000028F3D0012079E72DE9FF4F81B01D46E6
:1016A000934604464FF001090E9EFFF7ADF9074639
:1016B00094F851006168012806D0B1F5827F3CD1D1
:1016C000A168C9BB042838D10298002871D0BBF1A9
:1016D000000FFBD0002DF9D094F8500001282CD039
:1016E0004FF0010A84F850A094F85100042802D069
:1016F000052084F851004FF00008C4F85480C4F865
:1017000038B0E587A58702992163E586A586C4F8E8
:101710004080C4F8448020680168490603D4016809
:1017200041F040010160E068B0F5006F606808D0EA
:10173000F0B3012D49D081E0FFE7022005B0BDE8FC
:10174000F08F08B1012D39D1206B21680088C86065
:10175000206B801C2063E08E401EE0862EE0206817
:10176000816889070FD5E18E69B1B9F1010F0AD1FE
:10177000216B0988C160206B801C2063E08E401EB5
:10178000E0864FF0000920688168C9070CD0E18F1E
:1017900051B1C068A16B0880A06B801CA063E08F72
:1017A000401EE0874FF00109FFF72EF9C01B01E052
:1017B0000BE067E0B04201D3701C50D1E08E0028EE
:1017C000CDD1E08F0028CAD13EE0206B216800789F
:1017D0000873206B401C2063E08E401EE0862DE0E5
:1017E0002068816889070FD5E18E69B1B9F1010FD1
:1017F0000AD1216B09780173206B401C2063E08EB5
:10180000401EE0864FF0000920688168C9070CD0AF
:10181000E18F51B1C068A16B0870A06B401CA06340
:10182000E08F401EE0874FF00109FFF7EDF8C01B85
:10183000B04202D3701C01D011E086B1E08E0028C6
:10184000CED1E08F0028CBD13A463146204600F079
:1018500099F950B12020606584F8508012E084F836
:1018600051A084F85080032068E7A06818B9206868
:10187000C1688068009084F851A084F85080606D41
:101880000028F1D0012059E770B5044690F85100C6
:101890006568012806D0B5F5827F3AD1A568A5BB59
:1018A000042836D191B38AB383B394F85000012849
:1018B0002FD0012084F8500094F85100042802D061
:1018C000052084F85100002565652163A386E38621
:1018D000A263A387E3872564656494F85100042814
:1018E00019D0E16C274808642748E16CC863E16CB3
:1018F0002648C864E06C0565E38F2168A26B0C3153
:10190000E06CFEF741FF00BB0AE002E0FFE70120C8
:1019100070BD022070BDE16C1D4808641D48E4E7FD
:101920002068416841F001014160A06C0564A06C31
:10193000C563A06CC564A06C0565E38E2268216B4D
:101940000C32A06CFEF720FF30B1606D40F010004B
:10195000606584F85050DAE720680168490603D4CE
:10196000016841F04001016084F8505020684168EE
:1019700041F0200141602068416841F0020141606E
:10198000002070BD591A0008CD1A00082D1A000851
:101990004F1A0008631A00087047704710B5401EC0
:1019A000B0F1807F01D3012010BD4FF0E0246061D1
:1019B0000F21601700F0C7F90020A0610720206107
:1019C000002010BDFEE700000E4810B50C49016074
:1019D0004FF48271416000218160C1604FF4007258
:1019E0000161C0E90512C1610162416281620A219F
:1019F000C162FFF7ABFB002801D072B6FEE710BD55
:101A0000003800402C000020FEE7FEE77047000091
:101A10000148FFF71DBB00002C00002010B5806BB3
:101A20000021C187C186FFF711FB10BD10B5806B87
:101A300001684A6822F003024A60416D41F01001DA
:101A40004165012180F85110FFF700FB10BD10B572
:101A5000806BFFF76DFD10BD10B5806BFFF79DFF2C
:101A600010BD70B50546846BFEF7CEFF02462868B0
:101A70000068C00526D42068416821F0200141603B
:101A8000A06818B96068B0F5827F16D020684168F8
:101A900021F0010141606421204600F044F808B1C2
:101AA000202060650020E087012084F85100606DEF
:101AB00040B12046FFF7CAFA70BD2068416821F0A6
:101AC0000301E7E72046FFF72BFD70BD70B5054623
:101AD000846BFEF799FF024628680068C0051ED493
:101AE0002068416821F0200141606421204600F017
:101AF00049F818B1606D40F02000606520684168C9
:101B000021F0030141600020E086E087012084F895
:101B10005100606D18B12046FFF798FA70BD20465D
:101B2000FFF73AFF70BDF8B5044640684FF4827382
:101B3000984221D1A0684FF48065B0F5004F01D0E4
:101B4000A8420AD12068066826F040060660606850
:101B5000984211D1A068A8420ED000920B460022F4
:101B60008021204600F044F8002804D0606D40F049
:101B7000200060650320F8BD00920B460022012181
:101B8000EFE70000F8B515460E460B4600920446F6
:101B90000122022100F02CF8A0B913481349006873
:101BA000B0FBF1F04FF47A71484300906068B0F5F3
:101BB000827F0DD13346002280212046009500F01F
:101BC00017F870B1606D40F0200060650320F8BD2B
:101BD000009830B1401E009020688068C043000625
:101BE000F6D50020F8BD00001C00002000366E0174
:101BF0002DE9F8431E46914688460446089DFEF7A7
:101C000003FF401B351AFEF7FFFE07462648006813
:101C1000C0F3CB3068430AE0701C09D0FEF7F4FE35
:101C2000C01BA8420FD275B10098B8B3401E0090F7
:101C30002068816838EA010033D000214945EBD1A2
:101C40000020BDE8F8832068416821F0E001416090
:101C50006068B0F5827F0BD1A068B0F5004F02D06C
:101C6000B0F5806F04D12068016821F04001016067
:101C7000A06AB0F5005F09D12068016821F4005125
:101C800001602068016841F400510160012084F87E
:101C90005100002084F850000320D2E7FFE7002520
:101CA000C6E70121CAE700001C0000207047FEF7CC
:101CB000B1BE000010B592B030216846FEF751FB6E
:101CC00014210CA8FEF74DFB18480024016841F0D0
:101CD00080510160006800F0805011901448016844
:101CE00021F4404141F4004101600068069400F491
:101CF0004040119002200090012003901020049099
:101D00006846FEF7EDFF08B172B6FEE70F20CDE999
:101D10000C040E940F9400210CA81094FEF714FFED
:101D2000002801D072B6FEE712B010BD4038024064
:101D3000007000400248016841F470010160704782
:101D400088ED00E0FEE70907090E002804DB00F13A
:101D5000E02080F80014704700F00F0000F1E02050
:101D600080F8141D7047000000224FF40051014814
:101D7000FEF744BE0004024008B56A460321002075
:101D800000F0FAF89DF80000032140F002028DF8FF
:101D90000020002000F00CF96420FEF72DFD6A46BB
:101DA0000321002000F0E8F89DF80000032140F036
:101DB00020028DF80020002000F0FAF80A20FEF73B
:101DC0001BFD07228DF800200121302000F0F0F8E3
:101DD0000A20FEF711FD40228DF800200521002089
:101DE00000F0E6F80A20FEF707FD03228DF8002038
:101DF0000021302000F0DCF80A20FEF7FDFC8022F4
:101E00008DF800200221302000F0D2F80A20FEF7E1
:101E1000F3FC0121322000F008F86420FEF7ECFC0E
:101E20000821312000F001F808BD70B50C460546C8
:101E30000C220321302000F0BBF82A460421302078
:101E400000F0B6F822460621302000F0B1F832202A
:101E5000FEF7D2FC81220521302000F0A9F8BDE870
:101E600070403220FEF7C8BC012251030148FEF742
:101E7000C5BD00000004024010B5C12206210020AB
:101E800000F096F86420FEF7B7FC0122062100203E
:101E900000F08EF800221021202000F089F80022A6
:101EA0001021202000F084F803221421202000F0CB
:101EB0007FF810220321002000F07AF8002000F0C3
:101EC00089F900F031F900221146202000F070F865
:101ED00003220121202000F06BF8FFF74DFF1124B1
:101EE0008C220321302000F063F8224604213020A8
:101EF00000F05EF83220FEF77FFC882205213020BA
:101F000000F056F83220FEF777FCBDE810400020C4
:101F100000F060B908B5AD218DF8001014490A88A9
:101F200052BA02804A8852BA42808A8852BA828063
:101F3000CA8852BAC2800A8952BA02814A8952BA00
:101F40004281CA8982810A8AC281498A0182FFF755
:101F50000BFF4FF47A73012269460648FFF7E9FA4E
:101F6000162203490348FFF767FA002008BD000066
:101F7000440100202C00002038B541F080011446B7
:101F80008DF8001000F026F9FFF7EEFE6423012221
:101F900069460648FFF7CDFA64230122214603482B
:101FA000FFF7A0F9FFF760FF38BD00002C0000200C
:101FB00007B500F00FF9FFF7D7FE6423012201A94E
:101FC0000548FFF7B6FA6423012202A90248FFF789
:101FD000B0FAFFF749FF0EBD2C0000208EB000259F
:101FE000FEF720FDFFF766FE142105A8FEF7B9F9FC
:101FF000494C0026206840F0020020602068DFF88D
:102000001C8100F002004FF400570C903246394614
:102010004046FEF7F3FC0120CDE90606059705A929
:1020200040460896FEF7FAFB206840F40010206056
:102030002068002200F40010059011460E20FEF7E3
:1020400051FD0E20FEF740FD002211460F20FEF745
:1020500049FD0F20FEF738FDFFF7B6FC6420FEF7C0
:10206000CBFB002239464046FEF7C8FC7F208DF8A6
:10207000280030208DF82C00642301220AA928486A
:10208000FFF757FA642301220BA92548FFF751FAFD
:10209000012239464046FEF7B1FC0022394640464F
:1020A000FEF7ACFC80208DF82800642301220AA9E9
:1020B0001B48FFF73EFA642301220BA91848FFF7DB
:1020C00011F9012239464046FEF798FCFFF7D4FE8D
:1020D000144C4FF47A7630466D1CFEF78DFBB542FA
:1020E00000D100256846FFF715FFBDF906006168BD
:1020F00008446060BDF90800A1680844A060BDF90B
:102100000A00E1680844E060BDF80E002080BDF8D8
:1021100000006080DFE70000303802400004024029
:102120002C000020000000202DE9F041002786B09F
:102130003E463D463C464FF4FA786846FFF7EAFED5
:10214000BDF906000744BDF908000644BDF90A00C0
:1021500005440220FEF750FB641C4445EDDB4FF4C0
:10216000FA6097FBF0F149420CB296FBF0F195FB57
:10217000F0F0404205B2164849420EB28560C0E90F
:1021800000466420FEF738FBC4F307220321202019
:10219000FFF70EFFE2B204212020FFF709FFC6F38C
:1021A000072205212020FFF703FFF2B2062120209D
:1021B000FFF7FEFEC5F3072207212020FFF7F8FEF8
:1021C000EAB208212020FFF7F3FE06B0BDE8F08157
:1021D000200000201CB58DF800007F208DF8040041
:1021E000FFF7C2FD6423012201A90648FFF7A1F908
:1021F0006423012269460348FFF79BF9FFF734FE89
:102200001CBD00002C0000204FF04070E1EE100AD1
:1022100070470006101600061016000000000000AF
:102220000000010203040607080900004C22000810
:10223000000000202C000000D001000878220008D7
:102240002C00002094070000EC01000800000000B2
:10225000000000000000000000000000010000007D
:1022600010000000000000000024F4000000000046
:08227000000000000000000066
:040000050800019559
:00000001FF
