:020000040800F2
:10000000300E00208D0200085B3300080532000826
:10001000593300081717000877390008000000005E
:10002000000000000000000000000000FD35000896
:10003000D5170008000000005D330008FF350008F8
:10004000A7020008A7020008A7020008A7020008EC
:10005000A7020008A7020008A7020008A7020008DC
:10006000A7020008A7020008A7020008A7020008CC
:10007000A7020008A70200081917000825170008A2
:10008000A7020008A7020008A7020008000000005D
:10009000000000000000000000000000A7020008AF
:1000A000A7020008A7020008A7020008A70200088C
:1000B000A7020008A702000895360008A70200085A
:1000C000A7020008A7020008A7020008A70200086C
:1000D00061330008A7020008A70200080000000022
:1000E000A7020008A7020008A702000800000000FD
:1000F000000000000000000000000000A70200084F
:1001000000000000A7020008A7020008A7020008DC
:1001100000000000000000000000000000000000DF
:10012000A7020008A7020008A7020008A70200080B
:10013000A70200080000000000000000000000000E
:10014000000000000000000000000000A7020008FE
:10015000A7020008A7020008A7020008A7020008DB
:10016000A7020008A702000800000000000000002D
:10017000000000000000000000000000000000007F
:1001800000000000A70200080000000000000000BE
:10019000A702000800F002F800F069F80AA090E851
:1001A000000C82448344AAF10107DA4501D100F032
:1001B0005EF8AFF2090EBAE80F0013F0010F18BF96
:1001C000FB1A43F001031847E465000004660000D1
:1001D0000A444FF0000C10F8013B13F0070408BF6D
:1001E00010F8014B1D1108BF10F8015B641E05D00B
:1001F00010F8016B641E01F8016BF9D113F0080FC0
:100200001EBF10F8014BAD1C0C1B09D16D1E58BF51
:1002100001F801CBFAD505E014F8016B01F8016B88
:100220006D1EF9D59142D6D37047000000230024FB
:1002300000250026103A28BF78C1FBD8520728BFF6
:1002400030C148BF0B607047642900F04D81002029
:1002500070471FB506F0C9F99DE8030000F0F8F9F2
:1002600000F0E0FA1FBD10B500F045FB10BD00F036
:10027000B0FB1146FFF7EDFF04F0B6FE00F078FD8D
:1002800003B4FFF7F0FF03BC00F0B0FD094880475E
:1002900009480047FEE7FEE7FEE7FEE7FEE7FEE768
:1002A000FEE7FEE7FEE7FEE704480549054A064B80
:1002B00070470000853600089501000830080020CE
:1002C000300E0020300A0020300A002070B50646AB
:1002D00000F0A2F9056806F10B0020F00704B44213
:1002E0009CBF002070BD2B466A68BAB11068A0425E
:1002F00010D304F1080188423CBF5068586007D30E
:100300005168101941601168091B01605860146040
:10031000101D70BD13465268002AE7D121462846B9
:1003200000F082F90028DED170BD70B50446051FCB
:1003300000F072F90068002C14BF446870BD002CF6
:1003400018BFAC423CBF20466468F8D301680A1865
:10035000AA4218BF456003D12A68054611440160CE
:1003600028684119A1421CBF6C6070BD616869605A
:1003700021680844286070BD53EA020C00F06980CF
:100380002DE9F04B4FF00006002B1FBFB3FA83F5A9
:1003900003FA05F424FA05F65E4012BF1643B2FADA
:1003A00082F502FA05F4C5F120051EBF22FA05FC0C
:1003B00044EA0C04203556EA044C4FEA144418BFB2
:1003C000641C4FF000084FF00009904271EB030CE1
:1003D00039D3002919BFB1FA81F701FA07F6B0FA4B
:1003E00080F700FA07F6C7F120071EBF20FA07FCC6
:1003F00046EA0C062037B6FBF4FCA7EB0507103FD6
:1004000007F01F0BCBF120060CFA0BFB2CFA06F6BB
:1004100044BFB3460026202FA4BF5E464FF0000B1A
:100420005BEA060C08BF4FF0010B19EB0B09ABFBA5
:10043000027C48EB0608C01B06FB02CC0BFB03CC7E
:1004400071EB0C01C1E70B46024641464846BDE848
:10045000F08B13B54FF000004FF00001AFF30080B8
:10046000BDE81C40704700000FB4044910B503AA52
:10047000029800F087F910BC5DF814FB24070020F7
:100480002DE9F0410E460446002020622046E16836
:10049000884730B3252805D0D4E901219047206A48
:1004A000401CF2E7E168204600278847050018D085
:1004B000A5F14100192802D820354FF400673246D3
:1004C000294620462760FFF7BFFE40B1012804D02F
:1004D000F61D26F007060836D8E7361DD6E728466B
:1004E000DAE7206ABDE8F0812DE9F04106460024F4
:1004F00010687529314616A510D0AFF3008000288A
:1005000002DA404213A507E031688A0701D512A537
:1005100002E0490704D511A5012401E0AFF30080F2
:1005200000210A2206F1240709E0B0FBF2FCB0FB2F
:10053000F2F302FB1C00303078541846491C0028A6
:10054000F3D123462A463046BDE8F04100F0C1B859
:10055000000000002D0000002B0000002000000023
:1005600010B5203AC0F00B80B1E81850203AA0E84E
:100570001850B1E81850A0E81850BFF4F5AF5FEA82
:10058000027C24BFB1E81850A0E8185044BF18C935
:1005900018C0BDE810405FEA827C24BF51F8043BDC
:1005A00040F8043B08BF7047D20728BF31F8023B30
:1005B00048BF11F8012B28BF20F8023B48BF00F8C4
:1005C000012B70474FF0000200B513469446964643
:1005D000203922BFA0E80C50A0E80C50B1F1200156
:1005E000BFF4F7AF090728BFA0E80C5048BF0CC004
:1005F0005DF804EB890028BF40F8042B08BF704762
:1006000048BF20F8022B11F0804F18BF00F8012BD3
:10061000704770477047704700487047D407002004
:10062000704770477047704738B504460A46002047
:100630006946AFF30080002808BF38BD0246009924
:10064000204600F0B9F8012038BD012000F086B93D
:10065000F8B5AFF30080054600200C46102000BF1F
:100660000646A819A0420DD9324669460020AFF3CC
:100670000080070008BF00F071F90098A04218BF81
:100680000546C419FFF7C8FF05600746F01D20F0B6
:1006900007004619284600F00AF8B44208BFF8BD22
:1006A000A21B31463868BDE8F84000F085B800214B
:1006B0000160C0E9011070471020704710B500F0CC
:1006C00077F8006810BD10B5044600F071F80460BA
:1006D00010BD2DE9F0470D4699469246044600F1BB
:1006E00024080168880604D5E06921F01001216022
:1006F00000E00120A84201DD471B00E00027A169BE
:100700007A1902EB0900081AA0612078C00602D409
:100710002046AFF30080002608E0D4E901211AF852
:1007200006009047206A401C761C20624E45F4DB90
:100730002078C0060AD52046AFF3008006E0D4E951
:10074000012130209047206A401C2062381EA7F10A
:100750000107F4DC07E0D4E9012118F8050090470F
:10076000206A401C2062281EA5F10105F3DC20460A
:10077000AFF300802078000602D50220BDE8F087A4
:100780000120FBE7074B70B50D467B4400F033F8C2
:100790000446284600F042F810B14FF0FF3070BD1B
:1007A000204670BD0B46000000487047CC07002073
:1007B00000487047CC070020034640688C4600285C
:1007C00018BF88423CBF03464068F8D318681844F5
:1007D000884207D00CF1030020F00700001D411AE9
:1007E000521A0146081D0A60FFF79FBD01694A1CA5
:1007F00002610878704700B58FB0CDE90131002162
:10080000059105497944CDE9031011466846FFF783
:1008100037FE0FB000BD0000E5FFFFFF007B00F0DA
:100820008000704710B542485421FFF7CBFE414885
:100830005421FFF7C7FE40485421FFF7C3FE3F494C
:100840003B483C4A3F4B08603D490A603A491960C1
:10085000531C0365481C1065012008653B48344A59
:1008600039A1784400F0E8F920B9384878440A38CA
:1008700000F08CFA37482F4A35A1784400F0DCF9B3
:1008800020B9344878440A3800F080FA32482A4ABD
:100890002FA1784400F0D0F920B92F4878440A38C5
:1008A00000F074FA40232248DC000021224600F0C8
:1008B000A0F920B125487844543800F067FA1D4863
:1008C00022464023002100F094F920B121487844C9
:1008D000543800F05BFA184822461023002100F03B
:1008E00088F9002806D01C487844BDE810405638E6
:1008F00000F04CBA10BD104870B5006D20F0010436
:100900000B4800F00FFA0B4800F00CFA0A4800F010
:1009100009FA09E0206D20F00105204600F002FAF6
:100920002046FFF702FD2C46002CF3D170BD0000DD
:10093000D006002024070020780700205C0100205A
:100940006001002064010020720000003A5F000096
:1009500077000000265F0000125F000010B500F075
:100960001DFABDE8104000F00CBA0EB5CDE900014B
:1009700000F06AFB029069460120ABBE0EBD08B5CF
:10098000694600900220ABBE08BD1FB58DE8070088
:1009900069460520ABBE04B010BD1FB58DE80F0041
:1009A00069460620ABBEF6E708B569460090092007
:1009B000ABBE08BD1CB5CDE9000169460A20ABBE3F
:1009C0001CBD704708B5694600900C20ABBE08BD41
:1009D00070477546FFF7E8FEAE4605006946534688
:1009E00020F00700854618B020B5FFF75DFCBDE894
:1009F00020404FF000064FF000074FF000084FF086
:100A0000000B21F00701AC46ACE8C009ACE8C00916
:100A1000ACE8C009ACE8C0098D4670472DE9F04745
:100A200005460C46C86820F4201040F48000C860D9
:100A3000800602D5084600F0B2FAE06841F2820171
:100A40004FF0FF390140022903D0204600F050FA50
:100A5000B5E000F42041B1F5004F0FD1C00306D539
:100A60006168E06A884200D80846606006E0206954
:100A7000E06260606069FFF7A5FFA061A0680022E6
:100A8000EEB200280DDAE1688B050AD4C043A060FD
:100A900041F490302260E0606068411C6160067043
:100AA000A5E0E0689046226040F40050E0602069D4
:100AB00068BB6069FFF778FF012704F12405A0B146
:100AC000A08910F4407F08D0E069FFF7FFFB2061A8
:100AD00018B1E06840F4006016E0E7612561E06865
:100AE00020F4407040F480600EE0E069FFF7EEFB18
:100AF00000282061F1D0E06840F4006010F4407FED
:100B0000E06002D140F48070E06020696060E068DD
:100B100025696FF0010AC1051FD56168E06A884246
:100B200000D80846411B04D02246284600F0EAF9C6
:100B3000F0BBE068010203D5E562C4E9015854E066
:100B4000691CE1626160E16940F48030491EC4E9DA
:100B5000021030462E70BDE8F087010202D500F485
:100B600080320AE06068411C61600670E0680A2E0D
:100B700040F48030E06006D00022E16A6068814283
:100B800003D90B4602E00122F7E70346A7895B1B66
:100B90007F0503D4E7699F4200DDE2B1814200D8BE
:100BA0000146E5620F1AC4E90158002B09DD00E097
:100BB00005E022461946284600F0A4F908B1484647
:100BC000C9E747B1A069E5626560C01BA061E06844
:100BD00040F01000E060E068000208D56168A0699C
:100BE000E562491B08446560A0615046B3E73046A2
:100BF000B1E770B5C468A50713D0650211D4B2F58A
:100C0000807F09D0B2F5007F06D0B2F5806F08D1A1
:100C1000012300F1240106E05D1E6FF07F46B5421E
:100C200001D3012070BD0161C361416024F4706192
:100C30001143C160002070BD2DE9F0410C4607460C
:100C40001646104600F06EF82078611C61280AD024
:100C5000722802D077283CD102E00125002405E06B
:100C60000225042402E0082448F2020511F8010BD1
:100C70002B2806D0622809D011F8010C74280AD05C
:100C80000BE045F0030544F00204EFE745F00405EE
:100C900044F00104EAE744F0100438462146FFF727
:100CA00064FE411C15D00021316171604FF4007168
:100CB000F560F1617061200704D530460222002101
:100CC00000F09AF8306D40F0010030653046BDE824
:100CD000F0810020FBE72DE9F0410D460646104C5F
:100CE000206DC10704D0410804D020F00104F7E7CB
:100CF00022460EE05420FFF7E9FA07000ED0206DDF
:100D000047F001010843542120653846FFF75AFC9B
:100D10003A4629463046BDE8F0418DE70020D6E747
:100D2000D00600202DE9F04704464FF000094FF0AF
:100D3000FF37C568D4E90486A80707D0204600F02D
:100D40000BF93046FFF71BFE002802DA3846BDE8F3
:100D5000F087280502D54046FFF7E7FA4C212046E8
:100D6000FFF730FC206D20F0010020654846EEE7DB
:100D700010B50446AFF300802046BDE81040FFF7F1
:100D80007FBA002801D000F031B8704710B500F0EC
:100D900041F9BDE81040FFF7F4BF000010B501288D
:100DA00005D0002103A000F01BF9012010BD09A10E
:100DB000F8E7000053494752544D454D3A204F75CE
:100DC00074206F662068656170206D656D6F727943
:100DD000000000003A2048656170206D656D6F72FB
:100DE0007920636F72727570746564000149182010
:100DF000ABBEFEE7260002002DE9F0410446164690
:100E00000D464769007B80072ED03846FFF7CCFDA2
:100E100050BB3EB3012E02D0022E25D104E0204665
:100E200000F038F905441DE03846FFF7CBFDE168D6
:100E3000002841F01001E16005DA204600F058F882
:100E40000120BDE8F081C9030BD56268E16A9142D7
:100E500000D81146A26911442269891A814200DD35
:100E600008460544002D01DA0220EAE7E16A6068DD
:100E7000E268814206D29103E06203D522F4003198
:100E800041F01002A6690027AE4213DCE16A8142FC
:100E900001D90B4600E0034603EB060C2369ACEBDB
:100EA000030CAC4506DD814201D98C4600E0844646
:100EB0009C4505D1A760276042F02000A5620DE0A7
:100EC000AD1BE669AE1B8142A66000D90846C01A78
:100ED000281A20605819606022F020000349084059
:100EE000E060002084F84870ABE70000BFCFD7FF78
:100EF000C16821F4001141F08001C16000218160CE
:100F0000016070472DE9F047814614460E464FF0C8
:100F1000FF383248D5685769054209D03846A1697B
:100F2000FFF748FD002811DB2C48C0430540E56071
:100F30002B46324649463846FFF727FDA16920F087
:100F40000042B21A11440028A16103D02046FFF7E5
:100F5000CFFF4046BDE8F08770B504460569C06A1A
:100F60006168884200D80846E16821F42011E160F8
:100F7000C90312D5A84208D02246411B2846FFF7D4
:100F8000C1FF10B14FF0FF3070BD0020E562C4E931
:100F90000150E06820F48030E060002070BD10B5A2
:100FA0000446C06820F02000E060A16AA069884281
:100FB0000DD02046FFF7D0FFE06820F4405040F00D
:100FC0001000E060A06AA0612069E062606044F205
:100FD0004001E0688843E06010BD0000100002009E
:100FE00070B505460C460A2000E06D1C00F04BF879
:100FF00035B128780028F8D102E0641C00F043F8ED
:1010000014B120780028F8D1BDE870400A2000F023
:101010003AB8000010B5014602A0FFF7E1FF012039
:1010200010BD000053494752545245443A2052657E
:101030006469726563743A2063616E2774206F700F
:10104000656E3A200000000010B5431C02E010F865
:10105000011B71B18107FAD14FF0013202C88C1A1D
:101060008C4314EAC211F9D0C01A0A0603D0C01E7C
:1010700010BDC01A10BD0A0401D0801E10BD0902A7
:10108000FCD0401E10BD08B569468DF80000032055
:10109000ABBE08BD10B50146C268900703D09006EC
:1010A00007D5886A0AE0FFF783FB01210160881EEB
:1010B00010BD8B69486818440B69C01A91F8483014
:1010C0001BB191F84910401A10BD1103FCD500283E
:1010D000FADD401E10BD0000B0B5B0F800C00B88AE
:1010E0009C4553D145884B889D424FD113889C45E0
:1010F0004CD153889D4249D143684968506805FBEB
:101100000CFC0022B2EB9C0F30D04FEA9C0200BFD7
:1011100093ED000A91ED001A03F1100E30EE010A72
:1011200080ED000A93ED010A91ED011A01F110041E
:1011300030EE010A80ED010A93ED020A91ED021AE8
:1011400000F1100530EE010A80ED020A93ED030A6A
:1011500091ED031A013A30EE010A80ED030A73465D
:1011600028462146D4D12146284673461CF0030266
:101170000AD000BFB3EC010AB1EC011A013A30EE1B
:10118000010AA0EC010AF5D1002000E0FD2040B2E8
:10119000B0BD018042804360704700002DE9F04FF0
:1011A00081B02DED028B8EB0B0F800C0B0F802A077
:1011B000D44540F03A810B88FD229C4540F03681B1
:1011C0004F88BB4240F0328140689FEDB08ABCF14D
:1011D000000F009000F031814C686FF0030000EBCD
:1011E0008C09002700266546CDF828C020460994C2
:1011F0000A98401B08D0B1002046FFF7E3F93846B3
:10120000013004F10404FBD304F1040BB5F101082F
:101210004FF07E50206012D0A9EB86015846FFF7B0
:10122000D1F901205C4600BF0130854204F104047D
:10123000FAD10136013FB8F1000F4546D8D1DDF8AB
:1012400028C0BCF1000F00F0F8804FEACA0004305B
:1012500002900998009900EB8A00C0F1000904206F
:1012600000EB8A00ACF1010801EB8A054FEA8A0322
:10127000019001F1040B4FF0000E0F46564600207E
:101280000A460490039300BF0EFB0AF002EB8001B4
:1012900091ED000A0C910999B5EE400AF1EE10FAB1
:1012A00001EB80000D90CDF82080CDE906950B92E2
:1012B0002ED10EF1010060450DD20020414600BF45
:1012C0002A1892ED000AB5EE400AF1EE10FA06D1A6
:1012D00001391844F4D10498012817D0D4E0A0EBC8
:1012E0000900002157F82130146842F8043B47F800
:1012F000214001318E42F5D10D9A514613680468A0
:1013000040F8043B013942F8044BF7D10120049026
:101310000C99AAEB0E0991ED008AB9F1010F4FF07B
:101320007E5008600DD00120594600BF91ED000AA3
:10133000013080EE080A864281ED000A01F10401C5
:10134000F4D10D995046CDF814B000BF91ED000ACC
:10135000013880EE080AA1EC010AF7D1DDF82C80F3
:101360000998A9F1010B0022654600BF724505D11D
:1013700008EB890300EB8A0036E000BF0C9998ED7A
:10138000008A91ED000ABBF1000F28EE000A38EE4A
:10139000400A88ED000A17D00123042107EB010C55
:1013A00008EB01049CED000A94ED001A28EE000AF7
:1013B000013331EE400A9E4201F1040184ED000A3E
:1013C000ECD108EB010301E008F104030D9C514648
:1013D000B4EC011A90ED000A28EE011A30EE410A31
:1013E000A0EC010A0139F3D103EB8E08013D02F1B3
:1013F0000102BBD1079D02980B9ADDF820800544BD
:10140000039BDDF818900198DDF814B0DDF828C0D2
:101410000432013E0EF1010EA8F10108A9EB030907
:10142000074483447FF430AF09E0FD2250B20EB090
:10143000BDEC028B01B0BDE8F08F00200490B5EE4A
:10144000408AF1EE10FA4FF00002EFD10498012823
:10145000ECD00AFB0CF14FF000004FF0000271B12C
:10146000009B00BF93ED000AB5EE400AF1EE10FAC2
:1014700005D10132914203F10403F3D10A468A42B5
:1014800008BF6FF00400D2E7FB22CFE700000000A6
:101490002DE9F04F85B047880B889F4240F084804B
:1014A000B0F800B013889B4540F07E80B1F802E0B0
:1014B00053889E4578D1D0F80480506849680190DF
:1014C000BC0827F0030008EB800604FB0EF09FED3C
:1014D000390A07F0030C029101EB00104FEA8E026B
:1014E00000210090CDE903E70198DDF808A0009BFA
:1014F00000EB8109B0EE401A5746404674B355469A
:1015000027464046B0EE401A95ED002A90ED003A8D
:10151000154490ED014A23EE022A95ED003A154458
:1015200090ED025A31EE021A24EE032A95ED003AAC
:10153000154490ED036A31EE021A25EE032A95ED6B
:10154000003A31EE021A26EE032A31EE021A013F6A
:1015500000F110001544D7D11F463046BCF1000FF2
:101560000CD0654690ED002A97ED003A043022EE4B
:10157000032A31EE021A013D1744F3D1A9EC011AF6
:10158000BEF1010E0AF1040A03F10403B2D1DDF841
:101590000CE0049F714408EB8708BBF1010B06EBDC
:1015A0008706A1D1002000E0FD2040B205B0BDE8D3
:1015B000F08F00BF00000000B0B5B0F800C00B888D
:1015C0009C4553D145884B889D424FD113889C45FB
:1015D0004CD153889D4249D143684968506805FB06
:1015E0000CFC0022B2EB9C0F30D04FEA9C0200BFF3
:1015F00093ED000A91ED001A03F1100E30EE410A4E
:1016000080ED000A93ED010A91ED011A01F1100439
:1016100030EE410A80ED010A93ED020A91ED021AC3
:1016200000F1100530EE410A80ED020A93ED030A45
:1016300091ED031A013A30EE410A80ED030A734638
:1016400028462146D4D12146284673461CF0030281
:101650000AD000BFB3EC010AB1EC011A013A30EE36
:10166000410AA0EC010AF5D1002000E0FD2040B2C3
:10167000B0BD00002DE9F04FB0F800A04A889245B7
:1016800045D142880B889A4241D1D1F804C04668BE
:101690004FEA920802F003094FEA0A1E4FEA8A0154
:1016A0004FF0000B624600BFB8F1000F1AD015468C
:1016B000474600BF336828462B6073680D4443508B
:1016C000B3686C186B50F56806F110036618655026
:1016D000013F06EB01051E46ECD100EB0E071E464E
:1016E00002E000BF0CEB8B07B9F1000F06D04846B3
:1016F00056F8043B01383B600F44F9D10BF1010B64
:10170000BAF1010A02F10402CED1002000E0FD206E
:1017100040B2BDE8F08FFEE7014800F071B800006C
:1017200084020020014800F06BB80000E4020020B1
:1017300001681823CAB2103AB2FBF3F2054B6FF3FB
:101740000901032A9B5CC36500D9091D8165084610
:1017500070470000EE66000810B5014600208B6956
:101760008A6A4FF0C07453B1B3F5005F15D072B1FF
:10177000012A0CD0022A0AD0032A09D104E01AB1A6
:10178000012A06D0022A03D1C96AC90100D5012065
:1017900010BDC96AA142FAD010BD002AF7D0012AB3
:1017A000F2D0022AF3D0032AF3D010BD30B504687A
:1017B000256825F480252560046863608368402BD4
:1017C000036803D099600068C26030BD9A60006809
:1017D000C16030BD704772B6FEE790F8351002293F
:1017E00003D08021416501207047052180F8351024
:1017F0000068016821F001010160002070470000CD
:101800002DE9F84304464FF00009CDF800906348F5
:101810004FF41651A56D0068B0FBF1F72E6894F8EF
:101820005C10082000FA01F131420FD021680A68EB
:1018300052070BD50A6822F004020A6094F85C1083
:101840008840A860606D40F00100606594F85C100D
:101850004FF0010808FA01F0304208D021684969C8
:10186000090604D5A860606D40F00200606594F838
:101870005C1004208840304208D02168096889073C
:1018800004D5A860606D40F00400606594F85C10B9
:1018900010208840304218D021680968090714D503
:1018A000A86020680168490304D50068000308D5D2
:1018B000A16C07E00168C90503D4016821F00801A3
:1018C0000160216C09B12046884794F85C10202003
:1018D0008840304231D021680968C9062DD5A860FA
:1018E00094F8350005282068016806D0490347D5DB
:1018F000006800031DD4616C1CE021F0160101603A
:101900002068416921F080014161206C08B9A06C18
:1019100020B12068016821F00801016094F85C1092
:101920003F208840A86084F8358084F83490216D89
:101930001FE0E16B09B120468847606D00282BD07D
:10194000606DC00714D0052084F835002068016858
:1019500021F0010101600098401C0090B84203D8BA
:1019600020680068C007F6D184F8358084F8349088
:10197000E16C002910D001B02046BDE8F0430847D3
:101980000168C905D5D4016821F01001016084F80F
:10199000358084F83490CCE7BDE8F883200000203F
:1019A0002DE9F041044600F0A5F906465CB102209D
:1019B00084F83500002584F834502068016821F04F
:1019C000010101600DE00120BDE8F08100F092F915
:1019D000801B052805D920206065032084F8350088
:1019E000F2E720680068C007F0D12268116820483B
:1019F0000140D4E901031843D4E9033633431843C3
:101A000063691843A3691843E3691843236A1843B9
:101A10000843616A042903D1D4E90B13194308432D
:101A2000106020684069666A20F0070130460E4366
:101A3000012704280CD1A06A0643E06A40B1204681
:101A4000FFF78AFE20B14020606584F83570BAE760
:101A5000206846612046FFF76BFE94F85C203F212A
:101A600091408160656584F835700020ACE7000026
:101A70003F8010F02DE9F0410446866D90F8340067
:101A8000002501280DD0012084F8340094F8357029
:101A90000020012F07D084F8340002252846BDE835
:101AA000F0810220FBE7022784F83570606520464C
:101AB000FFF77CFE94F85C103F208840B0602068FF
:101AC000016841F016010160206C20B120680168B6
:101AD00041F0080101602068016841F001010160E6
:101AE000DCE7000070B5044600F004F90546601C10
:101AF00002D004480078044400F0FCF8401BA042E7
:101B0000FAD370BD140000202DE9F84FDFF8B8A11A
:101B10000022012403254FF00F090AF1040BAAF15A
:101B2000040E00BF0B6804FA02F63340B34273D1CF
:101B30000F7907F00307012F01D0022F16D1876814
:101B40004FEA420805FA08FC27EA0C07D1F80CC056
:101B50000CFA08FC4CEA070CC0F808C04768B74309
:101B60000E79C6F3001696403E4346600E79F64362
:101B7000B6070DD0C768560005FA06FC27EA0C0721
:101B8000D1F808C00CFA06FC4CEA070CC0F80CC0EF
:101B90000E7906F00306022E10D1D60800EB860857
:101BA000D8F8206057074FEAD76C09FA0CF7BE4304
:101BB0000F6907FA0CF73743C8F8207006684FEA38
:101BC000420C05FA0CF7BE430F7907F0030707FA3A
:101BD0000CF7374307604E6816F4403F6DD03B4E1C
:101BE000376847F480473760366822F0030706F409
:101BF00080460096364E07EB060CDCF8086897071F
:101C00003F0F09FA07F826EA0806DFF8C8804045C2
:101C100003D14FF000081EE04FE0DFF8BC804045E4
:101C200002D14FF0010816E0DFF8B080404502D144
:101C30004FF002080FE0DFF8A880404502D14FF0D6
:101C4000030808E0DFF89C80404502D14FF004080B
:101C500001E04FF0070808FA07F848EA0608CCF850
:101C60000888DAF800605746D1F804C09E435FEA5E
:101C7000CC2C00D51E433E60DBF800605F46D1F8F7
:101C800004C09E435FEA8C2C00D51E433E60DEF804
:101C900000607746D1F804C09E435FEA8C3C00D5D3
:101CA0001E433E60084F083F3E68D1F804C09E4383
:101CB0005FEACC3C00D51E433E60521C102AFFF464
:101CC00031AFBDE8F88F0000083C014044380240C5
:101CD00000300140000002400004024000080240C1
:101CE000000C0240001002400AB1816170470904F3
:101CF000FBE70000014880687047000014000020E6
:101D00000248816802781144816070471400002005
:101D10000B4810B5016841F400710160016841F49D
:101D200080610160016841F480710160032000F06E
:101D30006FF80F2000F006F800F024F8002010BD26
:101D4000003C024070B50D4D04464FF47A7128787E
:101D5000B1FBF0F00A490968B1FBF0F000F0B4FF04
:101D600048B9102C07D200222146501E00F030F84E
:101D700000206C6070BD012070BD000014000020C8
:101D8000200000200A4808B5016841F48041016044
:101D9000006800F4804000900548001F016841F091
:101DA00080510160006800F08050009008BD000084
:101DB00044380240002809DB00F01F020121914055
:101DC0004009800000F1E020C0F8001170470000D9
:101DD000F0B40E4B1B680C46C3F30223C3F1070596
:101DE000042D00D90425191D072901D2002300E084
:101DF000DB1E012606FA05F1491E214099409E404E
:101E0000761E16403143F0BC01F0CEBD0CED00E073
:101E1000064900F0070208684FF6FF03184040EA41
:101E20000220034A10430860704700000CED00E0F8
:101E30000000FA052DE9F0470E46050065D0DFF8F1
:101E40001481D8F80000F7B200F00700B04207D2C2
:101E500088F80070D8F8000000F00700B04254D1B4
:101E600028683D4C810712D5400703D5206840F40F
:101E7000E05020602878000703D5206840F46040D7
:101E800020602068A96820F0F000084320602878CE
:101E9000C0072DD0304968680839012812D00228BF
:101EA00013D0032811D00968890700292DDA216889
:101EB00021F0030101432160FFF71CFF814641F23D
:101EC000883A0EE009688903EFE709688901ECE7C1
:101ED000FFF710FFA0EB0901514502D90320BDE82F
:101EE000F0872068696800F00C00B0EB810FEFD13B
:101EF000D8F80010404601F00701B14207D9077039
:101F0000006800F00700B04201D00120E7E7287820
:101F1000400705D52068E96820F4E05008432060B8
:101F20002878000706D52068296920F4604040EA37
:101F3000C100206000F038F82168084AC1F303119D
:101F4000515CC8400649086006480068FFF7FAFE81
:101F50000020C4E7003C024008380240F666000852
:101F60002000002018000020044805490068096886
:101F7000044AC1F38221515CC84070472000002010
:101F800008380240066700080448054900680968E7
:101F9000044AC1F34231515CC84070472000002020
:101FA0000838024006670008154810B5006810F0B0
:101FB0000C02144813D01449042A0FD0082A0ED159
:101FC0000F4C241F2268236802F03F025B0207D5F2
:101FD0002068C0F38810A0FB010106E0084610BD90
:101FE0002168C1F38811A1FB00010023FEF7C4F9A9
:101FF0002168C1F30141491C4900B0FBF1F010BD5B
:10200000083802400024F40040787D012DE9F84FA3
:1020100004006ED02078DFF84C93C007A9F10405C6
:102020004AD009F104000168C1F38101012908D0F7
:102030000068C0F3810002280AD1D9F800004002EC
:1020400006D52868800337D560680028E1D033E0E2
:102050006068B0F5803F10D0B0F5A02F286810D090
:1020600020F480302860286820F480202860606890
:10207000A8B1FFF73FFE06460DE0286840F4803027
:10208000F4E740F480202860F7E700BFFFF732FE56
:10209000801B642873D828688003F7D50CE0FFF70D
:1020A00029FE064605E000BFFFF724FE801B6428DA
:1020B000F0D828688003F7D42078DFF8AC82800756
:1020C0004FF0000A3ED5A748001D016811F00C0F23
:1020D00008D00068C0F3810002280BD1D9F80000B5
:1020E000400207D42868800716D5E068012800D18F
:1020F00012E033E1E068B8B10120C8F80000FFF752
:10210000F9FD064605E000BFFFF7F4FD801B02283D
:10211000C0D828688007F7D52868216920F0F80022
:1021200040EAC10028600DE0C8F800A0FFF7E2FD1A
:10213000064604E0FFF7DEFD801B02281FD8286852
:102140008007F7D42078000722D5864F8748616939
:10215000703771B101210160FFF7CCFD064604E044
:10216000FFF7C8FD801B022809D838688007F7D51B
:102170000EE0C0F800A0FFF7BDFD064605E082E0D6
:10218000FFF7B8FD801B02287DD838688007F7D498
:102190002078400768D5DFF8CCB100270BF13C0B65
:1021A000DBF80000C0000BD4DBF8001041F08051D8
:1021B000CBF80010DBF80000012700F08050009001
:1021C0006B4E3068C00510D4306840F480703060C9
:1021D000FFF790FD009005E0FFF78CFD0099401A95
:1021E000022850D83068C005F6D55E4EA0686C361F
:1021F00001280FD00528306810D020F00100306091
:10220000306820F004003060A068B8B1FFF772FDBC
:1022100000900FE0306840F00100F4E740F0040067
:102220003060F7E7FFF766FD0099411A41F2883008
:10223000814266D830688007F4D50EE0FFF75AFD7A
:10224000009007E0FFF756FD0099411A41F28830EF
:10225000814256D830688007F4D42FB1DBF80010E3
:1022600021F08051CBF80010A069C8B33D49091D89
:102270000968C1F3810102294AD00228504607D0DB
:10228000C8F8600000E03CE0FFF734FD04463BE0A6
:102290004746C8F86000FFF72DFD064605E000BF81
:1022A000FFF728FD801B02282BD828688001F7D46F
:1022B000D4E907010843A16A2E4A490802EB01410B
:1022C000626A41EA8211084394F82C1040EA0161E5
:1022D000C9F8001001203866FFF70CFD044606E03F
:1022E0003EE000BFFFF706FD001B022809D8286862
:1022F0008001F7D534E000BFFFF7FCFC001B02288B
:1023000002D90320BDE8F88F28688001F4D427E0C3
:102310000128F7D0D9F80000E26900F48001914269
:102320001CD1226A00F03F01914217D147F6C071DB
:10233000626A0140B1EB821F10D1A26A4FF0FF33F5
:1023400000F4403103EB5202B1EB024F06D194F896
:102350002C1000F07060B0EB016F01D00120D1E7CC
:102360000020CFE70438024000004742800E474279
:10237000007000400000FFFF7047000038B50168A2
:1023800004464A688868C043430606D5C30704D19B
:10239000D3435B0601D4216C05E0830708D4D34303
:1023A0001B0605D4616C01B02046BDE830400847EB
:1023B000830603D5430601D5C30551D4D3439B06F9
:1023C0004ED443060AD494F85130032B49D0636DA0
:1023D00043F004036365CB688B680093830609D4DC
:1023E000636D43F0010363658B6800930B6823F012
:1023F00040030B60C00506D4606D40F008006065C6
:10240000206880680090606D002829D020684168AD
:1024100021F0E0014160012084F85100900701D4CF
:10242000D00722D02068416821F003014160114D9E
:10243000E06C40B10565E06CFFF7CFF918B1606D55
:1024400040F040006065A06C002809D00565A06CD4
:10245000FFF7C3F9002803D0606D40F040006065CD
:1024600038BDC8688868009038BD2046FFF784FFF3
:1024700038BD00006D33000870B5040009D0606AF3
:10248000002540B125616561A56294F8510040B115
:102490000CE0012070BD6068B0F5827FF4D0E5618A
:1024A000F2E784F85050204600F044F8022084F807
:1024B00051002068016821F040010160A088218955
:1024C00000F4827001F404410843A18901F4006121
:1024D0000843217C01F002010843217D01F0010144
:1024E0000843218B01F400710843217F01F038017A
:1024F000084394F8201001F080010843218D01F475
:102500000051084321680860A069042101EA1040D5
:1025100094F8241001F010010843216848602068F5
:10252000C16921F40061C1616565012084F8510031
:10253000002070BDF0B587B0064614216846FEF74E
:1025400041F82D493068884253D12C480024016855
:1025500041F480410160006800F480400590274804
:102560001038016841F0020101600068694600F01E
:10257000020005904FF4444000900220CDE9010490
:1025800003200390052004901D48FFF7BDFA1E4D5F
:102590001C48C5E900040715AC60C5E903476C6138
:1025A000AC61EC612C6228466C62FFF7F9F908B166
:1025B000FFF711F9F564AE631248144D1830E5E8E1
:1025C0000204402091C5114845F81449AC61EC6102
:1025D0002C626C62FFF7E4F908B1FFF7FCF8B56410
:1025E000002211462420AE63FFF7F2FB2420FFF700
:1025F000E1FB07B0F0BD0000003800404038024069
:10260000000402405860024084020020E4020020DE
:102610002DE9F84F044690F851001D4616460F4626
:10262000012838D1002F77D0002E75D060684FF088
:102630000408B0F5827F01D1A06810B3FFF75AFB00
:10264000824694F85000012825D04FF0010984F803
:10265000509084F851804FF00008C4F85480A7636C
:10266000A687E687C4F83080A4F83480A4F83680C2
:10267000C4F84080C4F84480A068B0F5004F0CD086
:1026800015E084F85180009313460A46204600F076
:1026900099F9BDE8F88F0220FBE72068016821F076
:1026A000400101602068016821F4804101602068D8
:1026B0000168490603D4016841F040010160E06807
:1026C000C0B134E020688168C90709D0007BA16BE4
:1026D0000870A06B401CA063E08F401EE08709E0FB
:1026E000FFF708FBA0EB0A00A84202D3681C01D048
:1026F00032E085B3E08F0028E4D11BE020688168D8
:10270000C9070AD0C068A16B0880A06B801CA063B9
:10271000E08F401EE0870AE01BE0FFF7EBFAA0EB3A
:102720000A00A84202D3681C01D015E09DB1E08FD9
:102730000028E3D152462946204600F09CFE08B10D
:102740002020606584F8519084F85080606D0028E6
:102750009FD001209DE7FFE784F8519084F85080D6
:10276000032096E770B5044690F8510001282AD15D
:1027700021B11AB1A068042310B105E0012070BD99
:102780006568B5F5827F15D094F85050012D1AD0A8
:10279000012584F8505084F8513000256565A16307
:1027A000A287E28725646564A586E586B0F5004FBB
:1027B0000BD014E084F851302046BDE87040134639
:1027C0000A4600F0F7B9022070BD2068016821F0C8
:1027D000400101602068016821F480410160E16CE2
:1027E00017480864E16C1748C863E16C1648C86470
:1027F000E06C0565E38F2168A26B0C31E06CFFF79C
:1028000039F930B1606D40F01000606584F85050C7
:10281000B4E720680168490603D4016841F040012B
:10282000016084F850502068416841F02001416007
:102830002068416841F001014160002070BD000046
:102840009F330008B33300087D33000802498842F3
:1028500001D102F08DBA70476801002070472DE960
:10286000F84F984616468A460446FFF743FA8146D3
:1028700094F8510001281ED1BAF1000F73D0002E38
:1028800071D094F85000012815D0012784F85070B9
:10289000032084F8510000256565C4F830A0A686A1
:1028A000E686A563A587E58765642564A068B0F51D
:1028B000004F03D00CE00220BDE8F88F20680168CB
:1028C00021F0400101602068016841F4804101600D
:1028D00020680168490603D4016841F040010160A5
:1028E000E068B0F5006F606803D048B3012E27D0D0
:1028F00047E008B1012E1FD1206B21680088C86015
:1029000006E020688168890709D5216B0988C160C4
:10291000206B801C2063E08E401EE0860CE0FFF7F9
:10292000E9F9A0EB0901414503D3B8F1FF3F03D01A
:1029300035E0B8F1000F32D0E08E0028E1D123E07D
:10294000206B21680078087306E020688168890799
:102950000AD5216B09780173206B401C2063E08E3F
:10296000401EE0860DE02BE0FFF7C4F9A0EB090163
:10297000414503D3B8F1FF3F03D010E0B8F1000F99
:102980000DD0E08E0028E0D14A464146204600F0B6
:10299000A1FD08B120206065A06830B109E084F88D
:1029A000517084F85050032086E72068C168806821
:1029B000009084F8517004F8505F60680028F3D0EC
:1029C000012079E72DE9FF4F81B01D46934604466B
:1029D0004FF001090E9EFFF78DF9074694F851005C
:1029E0006168012806D0B1F5827F3CD1A168C9BBDE
:1029F000042838D10298002871D0BBF1000FFBD019
:102A0000002DF9D094F8500001282CD04FF0010A85
:102A100084F850A094F85100042802D0052084F8CE
:102A200051004FF00008C4F85480C4F838B0E5876E
:102A3000A58702992163E586A586C4F84080C4F87D
:102A4000448020680168490603D4016841F04001D0
:102A50000160E068B0F5006F606808D0F0B3012D48
:102A600049D081E0FFE7022005B0BDE8F08F08B152
:102A7000012D39D1206B21680088C860206B801C33
:102A80002063E08E401EE0862EE020688168890782
:102A90000FD5E18E69B1B9F1010F0AD1216B098817
:102AA000C160206B801C2063E08E401EE0864FF0EA
:102AB000000920688168C9070CD0E18F51B1C06856
:102AC000A16B0880A06B801CA063E08F401EE08794
:102AD0004FF00109FFF70EF9C01B01E00BE067E0C2
:102AE000B04201D3701C50D1E08E0028CDD1E08FD0
:102AF0000028CAD13EE0206B216800780873206B63
:102B0000401C2063E08E401EE0862DE02068816836
:102B100089070FD5E18E69B1B9F1010F0AD1216B97
:102B200009780173206B401C2063E08E401EE08614
:102B30004FF0000920688168C9070CD0E18F51B1BE
:102B4000C068A16B0870A06B401CA063E08F401EA2
:102B5000E0874FF00109FFF7CDF8C01BB04202D368
:102B6000701C01D011E086B1E08E0028CED1E08F3C
:102B70000028CBD13A463146204600F0ABFC50B19C
:102B80002020606584F8508012E084F851A084F819
:102B90005080032068E7A06818B92068C168806881
:102BA000009084F851A084F85080606D0028F1D026
:102BB000012059E770B5044690F851006568012876
:102BC00006D0B5F5827F3AD1A568A5BB042836D1D9
:102BD00091B38AB383B394F8500001282FD0012019
:102BE00084F8500094F85100042802D0052084F89D
:102BF0005100002565652163A386E386A263A38750
:102C0000E3872564656494F85100042819D0E16CC9
:102C1000274808642748E16CC863E16C2648C8640B
:102C2000E06C0565E38F2168A26B0C31E06CFEF768
:102C300021FF00BB0AE002E0FFE7012070BD022097
:102C400070BDE16C1D4808641D48E4E720684168D8
:102C500041F001014160A06C0564A06CC563A06CEB
:102C6000C564A06C0565E38E2268216B0C32A06CF4
:102C7000FEF700FF30B1606D40F01000606584F831
:102C80005050DAE720680168490603D4016841F032
:102C90004001016084F850502068416841F02001F3
:102CA00041602068416841F002014160002070BD30
:102CB000A93300081D3400087D3300089F33000845
:102CC000B33300087047704710B5401EB0F1807FE5
:102CD00001D3012010BD4FF0E02460610F21601787
:102CE00000F062FE0020A06107202061002010BDDE
:102CF0007047704770B590F83C20012A2CD0012411
:102D000080F83C40022280F83D2003685A689D68A4
:102D100022F070060A6832435A60104B02689A42E9
:102D20000ED0B2F1804F0BD00D4B9A4208D00D4B14
:102D30009A4205D00C4B9A4202D00C4B9A4204D1D5
:102D4000496825F080031943916080F83D400021D7
:102D500080F83C10084670BD022070BD00000140A4
:102D60000004004000080040000C0040004001400A
:102D700010B5040003D094F83D0010B107E0012025
:102D800010BD002084F83C00204600F01FF802200F
:102D900084F83D00211D206800F082FC012084F8A9
:102DA000460084F83E0084F83F0084F8400084F830
:102DB000410084F8420084F8430084F8440084F819
:102DC000450084F83D00002010BD000008B50068F3
:102DD0000B49884212D10B48016841F0040101609F
:102DE0000068002200F00400009011461E20FEF74B
:102DF000EFFFBDE808401E20FEF7DCBF08BD000065
:102E0000000800404038024090F83D10012901D0F0
:102E100001207047022180F83D100168CA6842F025
:102E20000102CA6000680E4988420ED0B0F1804F9E
:102E30000BD00C49884208D00B49884205D00B4979
:102E4000884202D00A49884204D1816801F0070112
:102E5000062903D0016841F001010160002070479C
:102E6000000001400004004000080040000C004049
:102E70000040014070B5044690F83C000025012850
:102E800017D0012684F83C60022084F83D002068B9
:102E9000826822F0770222F47F428260086850281C
:102EA00038D00DDC20284FD005DC90B3102811D18C
:102EB0004AE0022070BD302846D040280AD13BE0CD
:102EC00060282FD070280DD0B0F5805F03D0B0F50A
:102ED000005F12D0012584F83D60002084F83C009A
:102EE000284670BDCB68D1E90121206800F028FC9C
:102EF0002068816841F0770109E0CB68D1E90121C0
:102F0000206800F01DFC2068816841F480418160E8
:102F1000E1E719E0CA684968206800F023FC502105
:102F2000206806E0CA684968206800F02CFC60212F
:102F3000206800F00FFCCEE7CA684968206800F0FE
:102F400011FC40212068F4E7226801461046F0E7B2
:102F500070472DE9F04104460068C66805694FF0E6
:102F60000007A90713D5B10711D5F91E016101208A
:102F70002077206880698007204602D0FFF7E8FFAD
:102F800004E000F07EF8204600F07CF82777680720
:102F900016D5700714D521686FF00400086102206F
:102FA00020772068806910F4407F204602D0FFF728
:102FB000CFFF04E000F065F8204600F063F82777C3
:102FC000280715D5300713D521686FF00800086170
:102FD000042020772068C0698007204602D0FFF7D0
:102FE000B7FF04E000F04DF8204600F04BF82777DB
:102FF000E80616D5F00614D521686FF010000861B8
:10300000082020772068C06910F4407F204602D055
:10301000FFF79EFF04E000F034F8204600F032F89D
:103020002777E80708D0F00706D021686FF0010085
:103030000861204600F028F8280608D5300606D595
:1030400021686FF0800008612046FFF751FE680696
:1030500008D5700606D521686FF04000086120464B
:1030600000F018F8A8060AD5B00608D521686FF058
:10307000200008612046BDE8F041FFF73ABEBDE8F8
:10308000F0817047704700000149012008707047C7
:1030900000000020704770B5040004D094F841008F
:1030A000002510B106E0012070BD84F84050204694
:1030B00000F024F8242084F841002068C16821F43D
:1030C0000051C160204600F097FB2068016921F49F
:1030D000904101612068416921F02A014161206825
:1030E000C16841F40051C1606564202084F841004A
:1030F00084F842006563002070BD000010B586B002
:10310000044614216846FDF75DFA13492068884299
:1031100020D112480021026842F4003202600068A7
:1031200000F4003005900D481038026842F00102AA
:103130000260006800F0010005900C200090022061
:10314000CDE901010320039007200490694604485B
:10315000FEF7DAFC06B010BD0044004040380240E3
:10316000000002402DE9F843044690F841009846DB
:1031700016460D46202802D00220BDE8F88385B10E
:103180007EB100206064212084F84100FEF7B2FD8A
:10319000A6848146E684A0682027B0F5805F02D02F
:1031A00003E00120E9E7206910B12E4600250EE07A
:1031B00000260CE08021204600F0A4FBA8B9C6B18F
:1031C00016F8010B21684860E08C401EE084E08C1A
:1031D0004B464FF00002CDF800800028EAD14FF0B6
:1031E0004001204600F08EFB40B184F8417003207E
:1031F000C3E735F8020BC0F30800E3E784F8417039
:103200000020BAE7FEE7000070B586B014216846DA
:10321000FDF7D8F912480024016841F0010101606E
:10322000016801F001010591016841F002010160AE
:1032300000680C4E00F002004FF400550590224645
:1032400029463046FEF750FD01200095CDE90104E6
:10325000694630460394FEF757FC06B070BD000087
:1032600030380240000402400E4810B50C4901609D
:103270004FF48271416000218160C1604FF400729F
:103280000161C0E90512C1610162416281620A21E6
:10329000C162FFF7F1F8002801D072B6FEE710BD59
:1032A000003800406801002030B587B00025244C6C
:1032B0000095019502950395049520480595206099
:1032C0004F20C4E9010542F20F70C4E9030520460E
:1032D000A561FFF74DFD08B172B6FEE74FF48050CF
:1032E000009069461648FFF7C5FD08B172B6FEE7C3
:1032F000049504A912480595FFF7FCFC08B172B6C5
:10330000FEE71048006802F0B9FD9FED0F1B53EC7B
:10331000112B02F017FC9FED0E1B53EC112B03F049
:1033200009F802F067FD21688862216840F2E73001
:10333000C8620348FFF768FD07B030BD00080040D1
:10334000C0010020200000200000000080842E41E9
:10335000000000000000F03FFEE7FEE770470000BD
:103360000148FFF70BB800006801002010B5806B22
:103370000021C187C186FEF7FFFF10BD10B5806B2D
:1033800001684A6822F003024A60416D41F0100171
:103390004165012180F85110FEF7EEFF10BD10B518
:1033A000806BFFF75BFA10BD10B5806BFFF78BFCED
:1033B00010BD70B50546846BFEF79CFC024628687C
:1033C0000068C00526D42068416821F020014160D2
:1033D000A06818B96068B0F5827F16D0206841688F
:1033E00021F0010141606421204600F044F808B159
:1033F000202060650020E087012084F85100606D86
:1034000040B12046FEF7B8FF70BD2068416821F04A
:103410000301E7E72046FFF719FA70BD70B50546CE
:10342000846BFEF767FC024628680068C0051ED45E
:103430002068416821F0200141606421204600F0AD
:1034400049F818B1606D40F020006065206841685F
:1034500021F0030141600020E086E087012084F82C
:103460005100606D18B12046FEF786FF70BD204602
:10347000FFF728FC70BDF8B5044640684FF482732E
:10348000984221D1A0684FF48065B0F5004F01D07B
:10349000A8420AD12068066826F0400606606068E7
:1034A000984211D1A068A8420ED000920B4600228B
:1034B0008021204600F044F8002804D0606D40F0E0
:1034C000200060650320F8BD00920B460022012118
:1034D000EFE70000F8B515460E460B46009204468D
:1034E0000122022100F02CF8A0B91348134900680A
:1034F000B0FBF1F04FF47A71484300906068B0F58A
:10350000827F0DD13346002280212046009500F0B5
:1035100017F870B1606D40F0200060650320F8BDC1
:10352000009830B1401E009020688068C0430006BB
:10353000F6D50020F8BD00002000002000366E0106
:103540002DE9F8431E46914688460446089DFEF73D
:10355000D1FB401B351AFEF7CDFB07462648006815
:10356000C0F3CB3068430AE0701C09D0FEF7C2FB01
:10357000C01BA8420FD275B10098B8B3401E00908E
:103580002068816838EA010033D000214945EBD139
:103590000020BDE8F8832068416821F0E001416027
:1035A0006068B0F5827F0BD1A068B0F5004F02D003
:1035B000B0F5806F04D12068016821F040010160FE
:1035C000A06AB0F5005F09D12068016821F40051BC
:1035D00001602068016841F400510160012084F815
:1035E0005100002084F850000320D2E7FFE70025B7
:1035F000C6E70121CAE70000200000207047FEF75F
:103600007FBB000010B592B030216846FCF7DAFFAE
:1036100014210CA8FCF7D6FF18480024016841F0DB
:1036200080510160006800F08050119014480168DA
:1036300021F4404141F4004101600068069400F427
:10364000404011900220009001200390102004902F
:103650006846FEF7DBFC08B172B6FEE70F20CDE945
:103660000C040E940F9400210CA81094FEF7E2FBBA
:10367000002801D072B6FEE712B010BD40380240FB
:10368000007000400248016841F470010160704719
:1036900088ED00E00148FFF75CBC0000C00100209D
:1036A000F0B502681F4B204C204D214E4FF0804C4E
:1036B000984207D0604505D0A04203D0A84201D06F
:1036C000B04203D122F070074A683A43984210D0C2
:1036D00060450ED0A0420CD0A8420AD0B04208D01B
:1036E000144CA04205D0144CA04202D0134CA0426E
:1036F00003D122F44074CA6822434C6922F080024C
:1037000022438C68C4620C688462984201D10969C2
:103710000163016841F0040101600121416102601F
:10372000F0BD00000000014000040040000800401F
:10373000000C0040004001400044014000480140AE
:1037400010B5846842EA032224F47F440A432243EA
:10375000826010BD826822F070020A4342F00701C5
:103760008160704710B5036A046A24F001040462A2
:10377000846924F0F00444EA021423F00A020A43A4
:103780008461026210BD10B5036A046A24F010045B
:103790000462846923F0A00324F4704444EA0232F2
:1037A00043EA01118261016210BD01680C3151E8E8
:1037B000002F22F4907241E80023002BF5D101681C
:1037C000143151E8002F22F0010241E80023002BC0
:1037D000F5D1016B012909D101680C3151E8002FA5
:1037E00022F0100241E80023002BF5D1202180F8BF
:1037F000421000210163704770B5044600680169FA
:10380000E26821F44051114301612169A068E26935
:1038100008436169114308432168CA6849F20C638F
:103820009A430243CA6020684169A26921F4407149
:103830001143416131492068884202D030498842B1
:1038400002D1FEF7A1FB01E0FEF78EFBE269002347
:10385000192164253226B2F5004F626828D0A0FBFA
:103860000101930F9200FCF787FD0146B0FBF5F0D4
:103870006FF01802504301EB800006EB0010B0FB24
:10388000F5F000F0F002B1FBF5F002EB0012B1FB35
:10389000F5F06FF01803584301EB800006EB0010C1
:1038A000B0FBF5F000F00F0021681044886070BD97
:1038B000A0FB010192185B41FCF75EFD0146B0FBE5
:1038C000F5F00201B1FBF5F06FF01803584301EB7E
:1038D000800006EBC000B0FBF5F000F0F80002EB52
:1038E0004002B1FBF5F0584301EB800006EBC0004D
:1038F000B0FBF5F000F00700D6E700000010014033
:10390000001401402DE9F843984617460D46044639
:10391000089E24E0701C22D0FEF7ECF9A0EB080012
:10392000B0421AD8CEB12068C168490717D5802D9A
:1039300015D0402D13D00168C94309070FD4016881
:103940000025406800902046FFF72FFF08206064A4
:1039500084F840500120BDE8F8830320FBE720688D
:10396000006835EA000004D00020B842D2D0002020
:10397000F1E70120F9E7FEE703B401984100009860
:1039800050EAC12018BF04204A0D18BF40F00100C2
:1039900040F2FF72B2EB515F08BF40F00200012815
:1039A00008BF052002B070470907090E002804DB94
:1039B00000F1E02080F80014704700F00F0000F1E3
:1039C000E02080F8141D70472DE9F04D2DED040B1B
:1039D0002DED0E8B96B0DDE92550279CDDF890A0EB
:1039E00025F0004624F00048BAF1000F14BF012171
:1039F000002101EB4502FC4953184A1093422AD397
:103A0000002814BF0123002303EB44030B44F749B0
:103A10008B4220D358EA00019FEDF59B76D0DFF86A
:103A2000D8B35D4503D1BAF1000F05D188E0BAF1F2
:103A3000000F08BF002100D0012101EB450111F565
:103A4000001F08D8002814BF0121002101EB440108
:103A500011F5001F0BD99DED261B9DED240B16B013
:103A6000BDEC0E8B04B0BDE8F04D00F069BE002740
:103A7000002DBCBFE149884521DAE1498845A8BF4E
:103A800002271CDAC3451ADCDE4901EB2851142950
:103A900008DDC1F1340220FA02F101FA02F2824299
:103AA0000DD108E058B9C1F1140228FA02F101FA67
:103AB00002F2424503D101F00101C1F1020756EAC9
:103AC0000A0124D1002C22DA002D18BF022F01D0C8
:103AD000012F0AD00220FCF7F6FD16B0BDEC0E8BCC
:103AE00004B0BDE8F04D00F013BE0220FCF7EBFD82
:103AF00000F00EFE51EC100B01F02AFF41EC100B10
:103B000016B0BDEC0E8B04B0BDE8F08D18E09FED53
:103B1000BEAB9FEDBF8B002871D1B848804522D144
:103B200005F1804010F5801008BFBAF1000F07D0F2
:103B3000B3450ADC002CA8BF9DED260BE0DA0DE0B2
:103B4000B0EE490AF0EE690ADAE7002C06DA9DEDDC
:103B5000260B51EC100B01F0FBFE6FE0AE487844F1
:103B600090ED000BCCE7D8454DD1002C48DA2EB1B2
:103B700086423AD1BAF1000F42D126E0BAF1000FE5
:103B800013D00220FCF79FFD00F0F6FD8DED020B37
:103B90009DED240B8DED000B10EE900A039961F35F
:103BA0001E0003909DED020BAAE78DED02AB9DED8B
:103BB000240B1AEE901A10EE900A8DED000B61F3B3
:103BC0001E0003909DED020B9AE78DED028B9DED9B
:103BD000240B18EE901A10EE900A8DED000B61F395
:103BE0001E0003909DED020B8AE709DA9DED240B80
:103BF00051EC190B53EC102B01F0A4FF1EE020E058
:103C00009DED240B7CE786421BDAB4F1804F0DD08A
:103C1000A4F10050B0F1FF5013D1002D11DB9DED48
:103C2000240B51EC100B01F005FE07E09DED240B79
:103C300053EC102B51EC100B00F0C2BC41EC100BFC
:103C40005EE79DED240B51EC100B01F099F8BAF1F1
:103C5000000FCDE90E0142D19FED710B46B3A6F1E5
:103C6000E040B0F17F600CD05E4538D1002D00DA25
:103C7000A7B3022F0CBF01204FF0FF3002F0E7F88E
:103C8000DCE7002D01DD002C0DDA002D01DD002C1C
:103C90001FDB002D16DA002C14DB012F08BF9FED6F
:103CA000620B3FF42DAFB0EE4A0AF0EE6A0A27E746
:103CB000022F18BF002D0CD0012F0AD1002DFFF6C6
:103CC0001FAF06E0002DB8BF002C08DA012F3FF42B
:103CD00017AFB0EE480AF0EE680A11E71BE00120CA
:103CE00000EBE57050EA070115D0791EB0EE498A65
:103CF000F0EE698A084308BF9FED4D8B4E480025C2
:103D0000804570DD4D494E48884514DDB0420DDBDD
:103D1000002C19DB2FE00120FCF7D5FC16B0BDEC20
:103D20000E8B04B0BDE8F04D00F016BDB34502DCCB
:103D3000002C09DC1FE0864202DA002C1BDA03E0CB
:103D40005E452BDD002C16DD0220FCF7BCFC00F0EC
:103D500013FD8DED020B53EC1A2B51EC180B02F0F6
:103D6000DDF8CDE900010399019861F31E0003908D
:103D70009DED020BC4E60220FCF7A5FC00F00CFD53
:103D800010EE901A18EE900A8DED020B8DED008B5F
:103D900061F31E0003909DED020BB1E69DED0E0B4D
:103DA00053EC192B51EC100B02F0C4FA9FED260BCB
:103DB000CDE9080153EC102B9DED080B51EC100BD5
:103DC00002F0ACF89FED221B53EC112B02F0DAF954
:103DD0009DED081B53EC112B02F0A0F89FED1E1B6C
:103DE00053EC112B3CE08CE0FFFF1F00FFFF0F00A6
:103DF000000000000000F03F0000F03F0000F07FF6
:103E00000000404301FCFFFF000000000000F07FC5
:103E10000000000000000000362C00000000000040
:103E20000000000000000080000000000000F0FF23
:103E3000000000000000F0BF0000E0410000F0437F
:103E4000FFFFEF3F00000000000000000000D03F37
:103E5000555555555555D53F000000000000E03F31
:103E600002F090F99DED080B41EC1A0B53EC102B6E
:103E700051EC100B02F052F853EC1A2B02F04EF8F2
:103E800041EC1A0B9FEDFE0B53EC102B9DED080B34
:103E900051EC100B02F042F841EC1B0B9FEDFA0BBA
:103EA00051EC1A0B53EC102B02F038F841EC1A0BC2
:103EB0009FEDF70B53EC102B9DED080B51EC100B05
:103EC00002F02CF853EC1A2B02F034FA41EC1A0BE6
:103ED00051EC1B0B53EC1A2B01F078FD0690CDE949
:103EE00006519DED060B53EC1B2B51EC100B02F011
:103EF00021FA53EC1A2B02F045F941EC100B00F0BB
:103F0000A1B90020B6F5801F0EDA9FEDE30B53EC4C
:103F1000102B9DED0E0B51EC100B01F0FFFFCDE9C6
:103F20000E016FF034000E4600EB2650A0F2FF3772
:103F3000C6F31300DA4940F07F6646F040568842E7
:103F4000D8BF002408DDD7498142C8BF012403DC63
:103F50000024A6F580167F1CD348784400EBC400EB
:103F60000F9690ED00CB9DED0E0B53EC1C2B51ECFE
:103F7000100B02F0DFF99DED0E0B41EC1B0B53EC27
:103F80001C2B51EC100B01F021FD41EC100B51ECFE
:103F9000190B53EC102B01F0D5FD41EC1D0B51EC2E
:103FA0001B0B53EC1D2B01F0B9FF41EC1A0BBF4862
:103FB0008DED10AB7844109590ED000B4FF0005054
:103FC00040EA660000EB84408DED080B00F5002010
:103FD00009909DED080B53EC1C2B51EC100B02F0DB
:103FE000A9F99DED0E1B53EC112B02F0CBF841EC1F
:103FF000100B53EC102B9DED100B51EC100B01F03E
:104000008DFF9DED080B41EC1C0B53EC102B9DED2F
:10401000100B51EC100B01F081FF53EC1B2B02F045
:10402000B1F853EC1C2B02F085F953EC1D2B01F079
:1040300075FF41EC1C0B53EC1A2B51EC1A0B01F0E1
:104040006DFF41EC1B0B9A480621B0EE4B0AF0EED7
:104050006B0A784400F0E0FAB0EE401AF0EE601A15
:10406000B0EE41DAF0EE61DA53EC1B2B51EC1B0B96
:1040700001F054FF53EC1D2B01F050FF9DED100B90
:1040800041EC1B0B53EC1A2B51EC100B01F09EFC76
:1040900053EC1C2B01F042FF53EC1B2B01F096FC60
:1040A0009DED100B41EC1B0B53EC102B51EC100B46
:1040B00001F034FF41EC1D0B9FED7FEB53EC1E2B09
:1040C00001F084FC53EC1B2B01F080FC0890CDE93F
:1040D00008519DED080B53EC1E2B51EC100B02F018
:1040E00029F953EC1D2B02F025F953EC1B2B02F0A0
:1040F00049F89DED080B41EC1D0B53EC102B9DED89
:10410000100B51EC100B01F009FF41EC1B0B53ECB1
:104110001A2B51EC1D0B01F001FF9DED080B41EC3A
:104120001A0B53EC102B51EC1C0B01F0F7FE53EC67
:104130001A2B01F04BFC41EC1A0B51EC1B0B53EC0E
:104140001A2B01F043FC0C90CDE90C519DED0C0BAA
:1041500053EC1B2B51EC100B02F0ECF853EC1A2B28
:1041600002F010F841EC1B0B9FED550B53EC102B9C
:104170009DED0C0B51EC100B01F0D0FE41EC1A0B35
:104180009FED510B51EC1B0B53EC102B01F0C6FEB5
:1041900041EC1B0B9FED4E0B53EC102B9DED0C0BCC
:1041A00051EC100B01F0BAFE53EC1B2B01F00EFC8E
:1041B00041EC100B4848784400EBC40090ED001B24
:1041C00051EC100B53EC112B01F000FC41EC1B0BDC
:1041D000384601F03CFECDE9080153EC1B2B51ECB5
:1041E0001A0B01F0F3FB41EC100B3C48784400EB58
:1041F000C40090ED00CB51EC100B53EC1C2B01F0E4
:10420000E5FB9DED081B53EC112B01F0DFFB069045
:10421000CDE906519DED080B53EC102B9DED060BDF
:1042200051EC100B02F086F853EC1C2B02F082F8D4
:1042300053EC1A2B02F07EF853EC1B2B01F0A2FF7B
:1042400041EC100B9DED261B53EC102B8DED001B4C
:1042500000959DED260B51EC100B01F05FFE9DEDDE
:10426000000B41EC1A0B53EC102B9DED260B51EC7F
:10427000100B02F05FF89DED061B53EC112B2FE0A5
:10428000000000604715F73FFE822B654715F73F9A
:1042900044DF5DF80BAE543E0000000000004043D8
:1042A0008E9803007AB60B00B2270000E0270000CA
:1042B000EA260000000000000000000000000840A6
:1042C000000000E009C7EE3FFD033ADC09C7EE3FFE
:1042D000F5015B14E02F3EBE76250000302500007E
:1042E00001F01CFE53EC1A2B01F070FB9DED060B48
:1042F00041EC1A0B53EC102B9DED000B51EC100B05
:1043000001F00CFECDE90C019DED0C0B51EC1A0BEC
:1043100053EC102B01F05AFBCDE902010C46AA49DF
:104320008C422FDB611A084318D19DED0C0B53EC26
:10433000102B9DED020B51EC100B01F0FBFF41EC3B
:104340001B0B9FEDA30B51EC1A0B53EC102B01F040
:104350003DFB53EC1B2B01F0DFFE2DD20220FCF7BE
:10436000B2F900F009FA10EE901A18EE900A8DEDED
:10437000020B8DED008B61F31E0003909DED020B8F
:10438000FFF7BEBB944A24F00041914214D39349F5
:10439000214408437FF4EFAC9DED0C0B53EC102B44
:1043A0009DED020B51EC100B01F0C4FF53EC1A2BE6
:1043B00001F0B2FE7FF6DFAC24F000408849894A64
:1043C000002601EB205182422BDA481C4FF4801169
:1043D00021FA00F02044844AC0F30A517A44A1F241
:1043E000FF3192ED000B814A8DED080BCA4020EAA7
:1043F0000202C0F3130040F48010C1F1140120FA4E
:1044000001F60992002CB8BF76429DED080B53ECE3
:10441000102B9DED0C0B51EC100B01F08BFFCDE937
:104420000C019DED0C0B51EC1A0B53EC102B01F011
:10443000CDFA9FED6F0B0890CDE9085153EC102B8E
:104440009DED080B51EC100B01F068FD41EC1B0BCE
:104450009FED690B53EC102B9DED080B51EC100BED
:1044600001F05CFD9DED0C0B41EC1C0B53EC102B93
:104470009DED080B51EC100B01F05CFF53EC1A2B77
:1044800001F080FE9FED5E1B53EC112B01F046FD09
:1044900053EC1C2B01F09AFA41EC1A0B51EC1B0B5C
:1044A00053EC1A2B01F092FACDE902019DED020BBB
:1044B00053EC1B2B51EC100B01F03CFF53EC1A2B6F
:1044C00001F060FE9DED020B41EC1A0B53EC102B3A
:1044D00051EC100B01F022FDCDE908014A489DED99
:1044E000080B0521784400F097F89DED081B51EC6E
:1044F000100B53EC112B01F011FD9DED021B53EC41
:10450000112B01F03FFECDE906019DED020B53ECAE
:104510001A2B51EC100B01F001FD53EC1A2B01F09A
:1045200055FA9FED3B0B41EC1A0B53EC102B9DED14
:10453000060B51EC100B01F0FDFE9DED060B41EC5E
:104540001B0B53EC102B9DED020B51EC100B01F0EB
:10455000E5FC53EC1B2B01F0F5FA53EC1A2B01F0A0
:10456000E9FE9DED021B53EC112B01F0E3FE53EC31
:10457000192B01F007FECDE9020101EB06500115F0
:104580000029C8BF039015DC9DED020B324651ECAB
:10459000100B02F066F8FFF7EFF9042808BF00F0EF
:1045A000FBF832469DED020B51EC100B02F059F86E
:1045B000CDE902019DED020B51EC180B53EC102BD1
:1045C00001F0ACFCFFF73ABB000090400000000097
:1045D000FE822B654715973C00CC904000346F3F1E
:1045E00001FCFFFF0000E03FB8230000FFFF0F00C9
:1045F00000000000432EE63F396CA80C615C20BE31
:10460000EF39FAFE422EE63F88220000000000004B
:10461000000000000000004070B504462DED028B44
:104620004D1E00EBC500B0EE408AF0EE608A90EDC2
:10463000000B35F0060017D053EC182B51EC100B83
:1046400001F06CFC41EC100B6D1E04EBC50090ED0D
:10465000001B51EC100B53EC112B01F0B7F941EC9E
:10466000100B35F00600E7D1022D36D0042D1CD0FA
:10467000062D1CBFBDEC028B70BD53EC182B51EC0A
:10468000100B01F04BFC94ED0A1B53EC112B01F0C5
:104690009DF953EC182B01F041FC94ED081B53ECF1
:1046A000112B01F093F941EC100B53EC182B51EC4A
:1046B000100B01F033FC94ED061B53EC112B01F0B1
:1046C00085F953EC182B01F029FC94ED040B53EC05
:1046D000102B01F07BF941EC100B53EC182B51EC33
:1046E000100B01F01BFC94ED021B53EC112B01F09D
:1046F0006DF953EC182B01F011FC94ED001B53ECF9
:10470000112B01F063F9BDEC028B41EC100B70BD75
:104710009FED070B10B553EC102B9FED070B51ECE1
:10472000100B01F00FFA41EC100B10BD000000005F
:104730000000000000000000000000000000F03F4A
:1047400010B553EC112B51EC100B01F03FF941EC7B
:10475000100B10BD000000009FED050B10B553ECD1
:10476000102B51EC100B01F0EDF941EC100B10BDCA
:1047700000000000000000009FED050B10B553EC99
:10478000102B51EC100B01F0C9FB41EC100B10BDCC
:1047900000000000000000709FED050B10B553EC09
:1047A000102B51EC100B01F0B9FB41EC100B10BDBC
:1047B00000000000000000100FB401A9DFED252A61
:1047C000B0EE000AD1EC030AB7EE002AB6EE003ACA
:1047D000F1EE600AF5EEC01AF1EE10FA1BDB71EE95
:1047E000821A61EE831AF5EEC01AF1EE10FA11DBAF
:1047F000B1EEE12A80ED002A22EE000AC1EE001A95
:1048000080EE801AC0ED011A80ED021AC0ED032A75
:1048100004B07047FEE772EE611A61EE831AF5EE9E
:10482000C01AF1EE10FA14DBB1EEE12AB1EE411A32
:1048300022EE000AC1EE001AB1EE421AC0ED001AD3
:1048400080ED011A80EE801AC0ED022A80ED031A75
:10485000DEE7FEE7000000000FB49FED290A2DE916
:10486000F0430D462DED028B87B01446DDE91C6840
:1048700082ED000A9DED160A814682ED010A9DED4A
:10488000170A16A982ED020A9DED180A0F4682ED5D
:10489000030A18226846FBF763FE0DF14C0C28460C
:1048A0009CE80E00FFF788FF94EC042A204695EC64
:1048B000040A00F0F7FF94ED010A182286ED000AC1
:1048C00094ED028A394688ED008A6846FBF748FE77
:1048D00013AF96ED000A97E80E00F0EE480A204666
:1048E00000F026FB95EC042A484694EC040A07B035
:1048F000BDEC028BBDE8F0035DF814EB00F041BCA9
:104900000000000000224FF400510148FDF7ECB90F
:104910000004024008B56A460321002000F0D6FAE0
:104920009DF80000032140F002028DF800200020D5
:1049300000F0E8FA6420FDF7D5F86A46032100206C
:1049400000F0C4FA9DF80000032140F020028DF829
:104950000020002000F0D6FA0A20FDF7C3F8072255
:104960008DF800200121302000F0CCFA0A20FDF75C
:10497000B9F840228DF800200521002000F0C2FA8D
:104980000A20FDF7AFF803228DF800200021302027
:1049900000F0B8FA0A20FDF7A5F880228DF8002073
:1049A0000221302000F0AEFA0A20FDF79BF8012129
:1049B000322000F008F86420FDF794F80821312037
:1049C00000F001F808BD70B50C4605460C22032125
:1049D000302000F097FA2A460421302000F092FAA5
:1049E00022460621302000F08DFA3220FDF77AF8B9
:1049F00081220521302000F085FABDE87040322088
:104A0000FDF770B810B50422264B11462648FCF776
:104A1000C0FB2548254B062204210830FCF7B9FBD2
:104A2000224B21480622603311461030FCF7B1FBBF
:104A30001D4B062250331146A3F13800FCF7A9FBA9
:104A40001A4B1948F033062204212030FCF7A1FB51
:104A50001548174B012206212830FCF79AFB144B0E
:104A600011481833012204213030FCF792FB104B1F
:104A70000D480422283311463830FCF78AFB0C4BD2
:104A800009486833042206214030FCF782FB084BBA
:104A90000548C83306220421BDE810404830FCF721
:104AA00078BB000058030020580000205804002064
:104AB000A80500200FB4524B03222DED040B114624
:104AC000A3F5807010B52DED048B82B0B0EE408A56
:104AD000F0EE608AB0EE419AF0EE619AFCF759FB75
:104AE00047480422474B1146F838FCF752FB454B28
:104AF0004348403303220421F038FCF74AFB414B82
:104B00003F48042270331146E838FCF742FB3D4829
:104B1000B7EE000AFEEE000A80ED000ADDED123A63
:104B2000394C63EEA02AC0ED012ADDED131A21EE07
:104B3000A02A80ED022A9DED141A21EE203AF6EE0D
:104B4000000A63EEA03A80ED033A21EE201AC0ED90
:104B5000043A80ED050A61EEA00A80ED061A80EDA8
:104B6000072AC0ED080A80ED093A80ED0A0AC0ED77
:104B70000B3A80ED0C1AC0ED0D0AC0ED0E2A80ED47
:104B80000F0AD4E90D23CDE90023D4E9070100F091
:104B9000B5F81C48B1EE680A4030F1EE490A80EDE4
:104BA000038AB1EE691A80EC030A80ED041A80EDE5
:104BB000059AC0ED069A80ED078A80ED080AC0EDDF
:104BC000090AC0ED0A8A80ED0B8AD4E90B01CDE910
:104BD0000001D4E90901D4E9052300F08FF804F1BC
:104BE0003402A2F108011046FCF776FA002800D042
:104BF000FEE702B0BDEC048B10BC5DF824FB0000A6
:104C000038010020A803002024000020B8EE004A4C
:104C1000B0EE003A61EE044A1CB561EE831A20EE54
:104C2000045A344860EE833A20EE030AC0ED004A8D
:104C3000C0ED011A80ED025AC0ED033AC0ED043A0E
:104C400021EE031A80ED050A20EE844AC0ED061A13
:104C500080ED071A61EEA20A80ED080A80ED094A8C
:104C600024EEA23AC0ED0A4A43EE820A65EE224AD9
:104C700063EEA23A00EE023AC0ED0B1A41EE424A50
:104C800041EEC23A1C4980ED0C3AC0ED0D0AC0ED70
:104C90000E4AC0ED0F3AC0ED103A60EE223A41EEF6
:104CA000023A21EE221A00EE421A24EE220AC0ED48
:104CB000113AC0ED120A01EE820A80ED131AC0ED1E
:104CC000143A80ED150A80ED163AC0ED170AA1F1ED
:104CD0000800FCF7CFFC00B1FEE707487C38D0E9BC
:104CE0001112CDE90012D0E90D23816F406F00F061
:104CF00005F81CBD10060020A00000203FB585B0BF
:104D0000BDF81600BDF8141080004843FBF7DEFA2A
:104D10000546BDF81600BDF8141080004843FBF7A7
:104D2000D5FA0446BDF81420BDF816102B46684687
:104D3000FCF72FFA694605A8FCF79CFCBDF8162085
:104D4000BDF81410234602A8FCF723FA02AA07A90B
:104D500005A8FCF79DFB0CAA694602A8FCF798FB86
:104D60002846FBF7E2FA2046FBF7DFFA09B030BD30
:104D7000012251030148FCF7B7BF000000040240C4
:104D800082B0CDE9000121F0004001909DED000BC3
:104D900002B051EC100B70478A68002A01DCFBF767
:104DA0003DBE521E8A604A68C0B2531C4B601070F0
:104DB000704710B5C1220621002000F0A3F864203E
:104DC000FCF790FE01220621002000F09BF8002253
:104DD0001021202000F096F800221021202000F061
:104DE00091F803221421202000F08CF810220321D6
:104DF000002000F087F8002000F0ECFB00F056FAED
:104E000000221146202000F07DF8032201212020FD
:104E100000F078F8FFF77EFD11248C22032130206A
:104E200000F070F822460421302000F06BF83220A8
:104E3000FCF758FE88220521302000F063F832206C
:104E4000FCF750FEBDE81040002000F0C3BB00009E
:104E500008B5AD218DF800101A490A8852BA0280AF
:104E60004A8852BA42808A8852BA8280CA8852BA24
:104E7000C2800A8952BA02814A8952BA42818A7B27
:104E8000CB7B683242EA032282810A7C4B7C6A3205
:104E900042EA0322C2818A7CC97CA2F2162242EA3B
:104EA00001210182FFF72EFD4FF47A73012269463A
:104EB0000548FDF7D4FC142202490348FDF752FCD3
:104EC000002008BD440300206801002038B541F0EF
:104ED000800114468DF8001000F07CFBFFF712FDF6
:104EE0006423012269460648FDF7B9FC64230122C8
:104EF00021460348FDF78CFBFFF73AFF38BD000061
:104F00006801002007B500F065FBFFF7FBFC642398
:104F1000012201A90548FDF7A2FC6423012202A990
:104F20000248FDF79CFCFFF723FF0EBD680100203F
:104F300060EE001A9FED2B1A40EEA01AF5EEC01A93
:104F4000F1EE10FA2EDBB1EEE12A60EE001AB5EEBA
:104F5000C00AB6EE003A40EEA01AF1EE600AF1EE99
:104F6000E12AF0EE001A62EEA12AF1EE10FAC0EE8C
:104F7000223A1BDB33EE830AB5EEC00AF1EE10FADB
:104F800011DBF1EEC02AC0ED002A22EEA10A80ED6D
:104F9000011A80ED021A20EE020A80EE801A80EDDE
:104FA000031A7047FEE780ED001AFEE733EE630A4E
:104FB000B5EEC00AF1EE10FA10DBF1EEC02AC0ED3A
:104FC000032A22EEA10A80ED011A80ED021A20EEDA
:104FD000020A80EE801A80ED001A704780ED031AF5
:104FE000FEE70000000000008CB0FCF791FEFEF729
:104FF00009FBFEF709F93D480025016841F400115D
:10500000016000682A4600F40010009029460E2036
:10501000FCF7DEFE0E20FCF7CDFE002211460F202D
:10502000FCF7D6FE0F20FCF7C5FEFEF71DF9FEF7D4
:105030003BF930482E4901604FF4E131C0E90115D8
:105040000C21C560C0E904518561C561FEF723F8F4
:1050500008B172B6FEE76420FCF744FDFFF7A9FE35
:10506000FFF7D0FC244C20780128FCD1257006A83D
:10507000FFF7EEFEBDF91E00A1680DF1180C084403
:10508000A060BDF92010E2681144E160BDF9221072
:105090002269114421616080BDF81800A080154884
:1050A00048300190BDF82800ADF800009CE80F00E2
:1050B00000F0AAFA0F4814226C30A0F114010590F8
:1050C0006846FBF74DFA0B4848300FC800F03CF932
:1050D000761C36B21E2EC6D1064900266423102245
:1050E0006C310448FEF73EF8BDE70000303802405E
:1050F0000044004008020020000000200FB4D0ED62
:10510000010A9DED072A90ED021ADDED082A20EE36
:10511000C24A90ED030ADDED093AD0ED001A01EE26
:10512000624AB6EE003AF0EE614A00EE634A44EE9F
:10513000034A21EE824A01EE234AC0ED004AF0EE16
:10514000604A00EE624A44EE034A21EEA24A00EEB3
:10515000E34AC0ED014A00EE024AB0EE410A04EE15
:10516000030A80ED020A21EEA30A00EEA20AD0EDA6
:10517000030A01EE420A40EE030AC0ED030A04B03E
:10518000704720EE024A00EEE24A01EE434A01EE89
:10519000E34A80ED004A20EE224A00EE824A01EE08
:1051A000234A01EEC34A80ED014A20EE034A20EE75
:1051B000230A00EEE34A00EE830A01EE024A01EE02
:1051C000620A01EEA24A01EE820A80ED024A80EDF7
:1051D000030A704790ED002AD0ED011A90ED021AF3
:1051E00062EE022AD0ED030A41EEA12A41EE012A25
:1051F00040EEA02AF5EEC02AF1EE10FA12DBB1EE75
:10520000E20AC2EE002A81EE802AC0ED002AC1EE39
:10521000001A80ED012A80EE801AC0ED021A80ED9E
:10522000031A7047FEE760EEA14AB0EE004AB0EE06
:10523000643A40EE014A00EE413A63EE045A21EE30
:10524000213AC0ED005A00EE203A23EE045A20EE37
:10525000003A80ED015AF0EE433A00EEE03A40EEBB
:10526000A03A60EE810A40EE610A41EE413A01EE59
:10527000413A24EE840A60EE840A41EEE13A01EEFE
:10528000A13A20EE020A60EE820A63EE823A45EE0F
:10529000220A03EE220A80ED023A45EEA23AC0ED60
:1052A000033AC0ED040A80ED050A70472DE9F0418C
:1052B000002786B03E463D463C464FF4FA786846A5
:1052C000FFF7C6FDBDF906000744BDF90800064416
:1052D000BDF90A0005440220FCF704FC641C4445A7
:1052E000EDDB4FF4FA6097FBF0F14C4296FBF0F1E6
:1052F00095FBF0F045424E426420FCF7F3FBC4F30B
:10530000072203212020FFF7FDFDE2B20421202027
:10531000FFF7F8FDC6F3072205212020FFF7F2FD75
:10532000F2B206212020FFF7EDFDC5F30722072189
:105330002020FFF7E7FDEAB208212020FFF7E2FD79
:1053400006B0BDE8F08100000FB470B5984CA0B075
:10535000984D20782D9EC8B3142228A96846FBF7E3
:10536000FFF80DF1900C40359CE80F0095EC040A15
:10537000403DFFF79FFB182227A96846FBF7F0F88E
:105380000DF1900C05F140009CE80E00FFF7B6FE11
:105390004035D4ED042A94ED032A0AA895EC040ABA
:1053A000403DFFF740FF4035D4ED042A94ED032A39
:1053B00095EC040A403DFFF729FC04F1440202F198
:1053C00008011046FBF788FEE8B3FEE7FFE77849DF
:1053D000012020700831081FCDE90801202225A9ED
:1053E0006846FBF7BDF81BAA17A913A8249BFFF773
:1053F00033FA0DF14C0C9CE80F0005F1400C8CE8E1
:105400000F0094ED010AD4ED020A694820EE000A6B
:105410000C3000EEA00A9FED681AB5EEC00AF1EE5E
:1054200010FA14DBF1EEC00AB7EE000AC0ED000A74
:1054300000EEE00A001DB5EEC00AF1EE10FA09DB3D
:10544000F1EEC00A00E008E0C0ED000AA6E080ED41
:10545000001AFEE780ED001AFEE755494431084680
:10546000FBF79CFE00B1FEE7514A3C3202F14001DD
:10547000A1F14800FCF70CF800B1FEE74C4A5432A9
:10548000A2F11001A1F10800FCF702F800B1FEE75B
:1054900047489DED240ADDED0A0A5C30444A30EEAF
:1054A000600A4168643281ED000A9DED250ADDED58
:1054B0000B0A416830EE600A81ED010A9DED260A73
:1054C000DDED0C0A4068A2F1080130EE600A80EDC3
:1054D000020A9DED270ADDED0D0A30EE600A80ED2F
:1054E000030A9DED280ADDED0E0A30EE600A80ED1C
:1054F000040A9DED290ADDED0F0A30EE600A80ED09
:10550000050AA1F10800FBF7C3FF00B1FEE7284937
:10551000284864314030496890ED000AD1ED000A16
:1055200030EE200A80ED000A90ED010AD1ED010A6B
:1055300030EE200A80ED010A90ED020AD1ED020A58
:1055400030EE200A80ED020A90ED030AD1ED030A45
:1055500030EE200A80ED030AFFF73CFE144A6C325D
:1055600002F10801A1F12000FBF792FF00B1FEE774
:105570000F4A6C32A2F138011046FBF789FF00B1E7
:10558000FEE70B4A343202F138011046FCF714F8FA
:10559000010003D009A0FAF767FFFEE7403595E860
:1055A0000F0086E80F0020B070BC5DF814FB00000F
:1055B0002400002058030020000000006572726F74
:1055C00072206D6174726978206D756C742120256C
:1055D00064200A001CB58DF800007F208DF80400BF
:1055E000FFF790F96423012201A90648FDF737F976
:1055F0006423012269460348FDF731F9FFF7B8FB40
:105600001CBD0000680100202DE9F047884601B26A
:1056100000EE101A00142DED0C8BB8EEC00A914666
:105620000FFA88F260EE000A00EE100ADDE9145469
:10563000B8EEC01A00EE100AB8EEC00A41EE000A39
:1056400012FB02F600EE106AB8EEC00A30EE800AD5
:10565000B5EEC00AF1EE10FA7DDBF1EEC00A1FB222
:105660001E1400EE107A01EE106A2DB2B8EEC00AD8
:10567000F8EEC11A01EE106A20EE000AB8EEC11A67
:1056800001EE810A01EE105AF8EEC11A01EE105A2D
:10569000B8EEC11A01EE810AB5EEC00AF1EE10FAB9
:1056A0007EDBB1EEC08A00EE101AB8EEC00AB1EE91
:1056B000400A80EE201A00EE100AB8EEC00A84ED0F
:1056C000001A80EE201A00EE102AB8EE400A84ED8F
:1056D000011A80EE201A84ED021A9FED4ECBB0EE37
:1056E0004C1AF0EE6C1A9FED4DDBB0EE4D0AF0EE69
:1056F0006D0AFEF769F99FED4B9B51EC100B53ECD3
:10570000192B00F00BFC41EC1A0B4FEA284000F07B
:105710009EFB53EC1A2B00F001FC9FED44AB53ECC5
:105720001A2B00F00FFA00F01FF9B0EE4C1AF0EE51
:105730006C1AB0EE4D0AF0EE6D0AA061FEF744F966
:1057400053EC192B51EC100B00F0E8FB41EC1B0B58
:105750000FFA89F000E05BE000EE100AB8EEC00A34
:10576000B1EE402A12EE100A00F0CEFE53EC1B2BD5
:1057700000F0D4FB53EC1A2B00F0E4F900F0F4F83D
:10578000B0EE4C1AF0EE6C1AB0EE4D0AF0EE6D0A67
:10579000E061FEF719F953EC192B51EC100B00E006
:1057A00037E000F0BBFB41EC190B4FEA294000EE5B
:1057B000100AB8EEC00AB1EE400A10EE100A00F06E
:1057C000A3FE53EC192B00F0A9FB53EC1A2B00F0AD
:1057D000B9F900F0C9F800EE107A2062B8EEC00AFC
:1057E000C0EE080A00EE106AB8EEC00AC4ED030A63
:1057F000C0EE080A00EE105AB8EEC00AC4ED040A62
:10580000C0EE080AC4ED050ABDEC0C8BBDE8F087BC
:10581000FEE7FEE7000000000000F03F000000008F
:1058200000000040ED7BA8BA2D74213F000000006D
:1058300000408F4000B52DED048B83B041EC190B77
:1058400000F0ACFC41EC180B18EE100A18EE901AA0
:105850008DED008B002818BF0120084320F0004088
:10586000C0F17F6000F1E040C00F14D019EE101AB3
:1058700019EE900A8DED009B002918BF0121084305
:1058800020F00040C0F17F6000F1E040C00F04BF95
:105890000120FAF718FF51EC180B03B0BDEC048B94
:1058A00000BD00009FED292AF0EE005A80ED002A8D
:1058B00020EE002A23EE255A23EEA56A60EE814AE7
:1058C000B0EE424A00EEE02A00EEA04A62EEA55A8F
:1058D00001EE414A01EEE14A64EE226AF0EE422A0C
:1058E000B0EE644A41EE012A40EE214A00EE614AE0
:1058F00001EE412A41EEE12A64EEA54A45EE046A32
:1059000020EEA14A01EEA12A43EE224A61EE212AAD
:10591000B0EE447A00EE414A00EE017AB0EE623A0F
:1059200040EE202A00EE603A46EE076A46EE034A51
:1059300024EE253AC0ED016A05EE223AC0ED024A96
:1059400003EE823A80ED033A704700000000000049
:1059500081F00041704780F00040704721F0004125
:10596000704720F00040704721F00042A2F16052E1
:10597000B2F5801F01F0004328BFD2F17F6C0BD934
:105980005FEA001C43EAC20242EB507018BF704746
:1059900028BF20F001007047B2F5801FBCBF184639
:1059A00070474FEA410C1CF5001F02D2084600F078
:1059B00021BE70B500F05CFB00000089FFF7F6BF68
:1059C0004FF00040A0F580007047000010B591EA4C
:1059D000030F48BF83F0004300F1B484841A71EBD5
:1059E000030C05D2121943EB0C03001B61EB0C01F5
:1059F000DFF824E14FEA1154A4EB135C1EEA430FD5
:105A000018BF9EEA445F73D023EA0E03DCF1200E38
:105A100021EA045143F4801332D322FA0CFE10EB36
:105A20000E0023FA0CFE41EB0E01CCF1200E03FA1E
:105A30000EFE10EB0E0051F10001B1F5801FCCF10C
:105A4000200E32D201EB045112FA0EF2BDE81040E2
:105A500058BF7047401C38BF5FEA420218BF70470A
:105A6000002814BF20F0010041F100014FEA41037A
:105A700013F5001F38BF7047A1F1C04100F046BBCD
:105A8000012A43EB0302ACF1200CDCF11F0E32BF04
:105A90004FF0000E23FA0CF310EB030041EB04511E
:105AA000B4EB115FD0D0A1EB045101F5801149088E
:105AB0005FEA300001EB04510ED350F1000038BF13
:105AC00012FA0EFE08D1BDE81040C9E7401C38BFED
:105AD0005FEA4202CAD1C3E7BDE810404FEA410382
